:020000040800F2
:10000000000002202D5E0008F9060008FB0600082B
:10001000FD060008FF0600080107000800000000B8
:10002000000000000000000000000000615B00080C
:100030000307000800000000015C0008EB56000800
:100040007D5E00087D5E00087D5E00087D5E000824
:100050007D5E00087D5E00087D5E00087D5E000814
:100060007D5E00087D5E00087D5E00087D5E000804
:100070007D5E00087D5E00087D5E00087D5E0008F4
:100080007D5E00087D5E00087D5E00087D5E0008E4
:100090007D5E00087D5E00087D5E00087D5E0008D4
:1000A0007D5E0008050700087D5E00087D5E000893
:1000B0007D5E00087D5E00087D5E00087D5E0008B4
:1000C0007D5E00087D5E00087D5E00087D5E0008A4
:1000D0007D5E00087D5E00087D5E00087D5E000894
:1000E0007D5E00087D5E0008000000007D5E000867
:1000F0007D5E00087D5E00087D5E00087D5E000874
:100100007D5E00087D5E00087D5E00087D5E000863
:100110007D5E00087D5E00087D5E00087D5E000853
:100120007D5E00087D5E00087D5E00087D5E000843
:100130007D5E00087D5E00087D5E00087D5E000833
:100140007D5E00087D5E00080000000000000000E9
:100150007D5E00087D5E00087D5E00087D5E000813
:100160007D5E00087D5E00087D5E00087D5E000803
:100170007D5E00087D5E00087D5E00087D5E0008F3
:100180007D5E00087D5E00087D5E00087D5E0008E3
:100190007D5E00087D5E00087D5E00087D5E0008D3
:1001A0007D5E00087D5E00087D5E00087D5E0008C3
:1001B0007D5E00087D5E00087D5E00087D5E0008B3
:1001C0007D5E00087D5E00087D5E00087D5E0008A3
:1001D0007D5E00087D5E00087D5E00087D5E000893
:1001E0007D5E00087D5E00087D5E00087D5E000883
:1001F0007D5E00087D5E00087D5E00087D5E000873
:100200007D5E00087D5E00087D5E00087D5E000862
:100210007D5E00087D5E00087D5E00087D5E000852
:100220007D5E00087D5E00087D5E00080000000025
:100230007D5E00087D5E00087D5E00087D5E000832
:100240007D5E00087D5E00087D5E00087D5E000822
:100250007D5E00087D5E00087D5E00087D5E000812
:100260007D5E00087D5E00087D5E00087D5E000802
:100270007D5E00087D5E00087D5E00087D5E0008F2
:100280007D5E00087D5E00087D5E000800000000C5
:080290007D5E00087D5E0008A0
:1002A00053B94AB9002908BF00281CBF4FF0FF31DD
:1002B0004FF0FF3000F00CB8ADF1080C6DE904CE42
:1002C00005F018FEDDF804E0DDE9022304B0704714
:1002D000704700BF0348044B834202D0034B03B175
:1002E0001847704714000020140000200000000090
:1002F0000548064B1B1AD90F01EBA301491002D088
:10030000034B03B11847704714000020140000206D
:100310000000000010B5064C237843B9FFF7DAFF60
:10032000044B13B10448AFF300800123237010BDC8
:100330001400002000000000B061000808B5054B63
:100340001BB105490548AFF30080BDE80840FFF741
:10035000CFBF00BF0000000018000020B0610008FF
:1003600030B58BB000240594069407940894099442
:10037000264BD3F8E02042F00402C3F8E020D3F883
:10038000E02002F004020092009AD3F8E02042F04C
:100390008002C3F8E020D3F8E02002F0800201924E
:1003A000019AD3F8E02042F00202C3F8E020D3F82B
:1003B000E02002F002020292029AD3F8E02042F01A
:1003C0000802C3F8E020D3F8E02002F0080203920C
:1003D000039AD3F8E02042F00102C3F8E020D3F8FA
:1003E000E03003F001030493049B094D22460121F0
:1003F000284602F05FFA01230593069307940894B8
:1004000005A9284602F046F90BB030BD0044025859
:100410000004025808B50A4C01221146204602F099
:1004200049FA4FF47A7005F0F9F9002201212046CB
:1004300002F040FA4FF47A7005F0F0F9EBE700BFF4
:100440000004025808B50268034B9A4200D008BD68
:1004500002F0CEFAFBE700BF0000014072B6FEE7F3
:1004600008B51548154B03604FF4E1334360002392
:100470008360C36003610C2242618361C3610362D4
:100480004362836203F0EDF870B900210A4803F07B
:1004900060F958B90021084803F080F940B90648CE
:1004A00003F038F930B908BDFFF7D8FFFFF7D6FFE2
:1004B000FFF7D4FFFFF7D2FF4005002000480040BF
:1004C00008B50B480B4B036009234360022202610D
:1004D0000023C3608261C3610362436201228262BE
:1004E000C262036303F07FF900B908BDFFF7B6FFEE
:1004F000340000200000084000B587B000230193BD
:10050000029303930493059300931C481C4A0260D2
:1005100043607F228260FF22C26003618361C36106
:10052000436103F009FD10BB00238DF804308DF802
:1005300005308DF8063004930593012201A90F4878
:1005400003F058FDA8B901228DF8002003238DF88F
:10055000013013238DF8023024238DF803306946CF
:10056000064803F0ABFD30B907B05DF804FBFFF7B8
:1005700075FFFFF773FFFFF771FF00BFD405002081
:100580000040005800B59DB04C22002109A805F09C
:1005900076FC2022002101A805F071FC042002F065
:1005A000A7F900230093264BDA6A22F00102DA62EF
:1005B000DB6A03F001030093224A936923F440436A
:1005C00043F400439361936903F440430093009B19
:1005D0001C4B9B6913F4005FFAD00B2309934FF473
:1005E000A0230A9301220C9240230D930E92022322
:1005F00012931393149218221592169304221792B1
:1006000018930C23199300231A931B9309A800F045
:10061000D3F988B93F2301930023029303930493F2
:100620000593069307930893012101A800F018FE93
:1006300020B91DB05DF804FBFFF710FFFFF70EFFB8
:10064000000400580048025800B583B04FF6FF730D
:1006500000E01346244A126812F4004F03D05A1ED9
:10066000002BF6DC1346002B1ADB02F093F9FFF7A0
:1006700089FF1D4BD3F8E02042F00072C3F8E02060
:10068000D3F8E03003F000730193019B002002F0E7
:1006900017F90021084602F023F94FF6FF7302E034
:1006A000FFF7DCFE1346104A126812F4004F03D124
:1006B0005A1E002BF6DC1346002B13DBFFF750FE0F
:1006C000FFF7CEFEFFF7FCFEFFF716FF05F01AF866
:1006D000064A0021064805F043F8064B186005F06D
:1006E00023F8FEE7FFF7BAFE00440258D461000881
:1006F0001504000830000020FEE7FEE7FEE7FEE7F5
:10070000FEE7704708B5024802F0ECF908BD00BFEB
:10071000FC05002000B583B00A4BD3F8F42042F06A
:100720000202C3F8F420D3F8F43003F0020301937B
:10073000019B00220F216FF0010000F029F903B0A6
:100740005DF804FB0044025810B5B0B00446C02266
:100750000021684605F093FB22680D4B9A4201D0B8
:1007600030B010BD4FF480020023CDE900234FF4D8
:1007700000732D93684601F039F828B9054A136FC4
:1007800043F400431367EBE7FFF768FEF6E700BFAB
:10079000004000580044025810B5B8B0044600218B
:1007A00033913491359136913791C02202A805F0EA
:1007B00066FB22681B4B9A4201D038B010BD022262
:1007C0000023CDE9022302A801F010F838BB164B34
:1007D000D3F8E82042F48022C3F8E820D3F8E820D8
:1007E00002F480220092009AD3F8E02042F008023E
:1007F000C3F8E020D3F8E03003F008030193019B35
:100800004FF440733393022334930023359336938C
:100810000723379333A9054801F03CFFCDE7FFF7E5
:100820001DFED4E70048004000440258000C025866
:1008300070B5B8B0044600213391349135913691AA
:100840003791C02202A805F01AFB2268244B9A4275
:1008500001D038B070BD4FF480220023CDE90223CF
:100860004FF48013249302A800F0C0FF002833D176
:1008700002F088F81B4CD4F8E03043F00103C4F8D0
:10088000E030D4F8E03003F001030093009B4FF414
:10089000C8533393022334930025359536950A23A4
:1008A0003793114E33A9304601F0F4FE4FF4007334
:1008B00033933495359533A9304601F0EBFED4F8E7
:1008C000D83043F00063C4F8D830D4F8D83003F0FF
:1008D00000630193019BBCE7FFF7C0FDC8E700BFC1
:1008E000000008400044025800000258002807DBBE
:1008F00000F01F02400901239340024A42F82030D1
:10090000704700BF00E100E0002804DB0901C9B224
:10091000044B1954704700F00F000901C9B2024B93
:100920001954704700E400E014ED00E000B500F059
:100930000700C0F1070CBCF1040F28BF4FF0040CF6
:10094000031D062B0FD9C31E4FF0FF3E0EFA0CF00D
:1009500021EA000199400EFA03FE22EA0E0241EA62
:1009600002005DF804FB0023EEE700000649CB68B7
:1009700023F4E0631B041B0C000200F4E06003435B
:10098000024A1A43CA60704700ED00E00000FA0511
:1009900010B50446054BD868C0F30220FFF7C6FF28
:1009A00001462046FFF7B0FF10BD00BF00ED00E09C
:1009B00008B5FFF79BFF08BD002800F0398338B564
:1009C0000446036813F0010F25D0944A136903F01D
:1009D0003803926A102B15D0182B0FD06368B3F52B
:1009E000803F3FD0002B53D18C4B1A6822F48032C9
:1009F0001A601A6822F480221A6038E002F00302BA
:100A0000022AEBD1854B1B6813F4003F03D06368C7
:100A1000002B00F00F83236813F0020F00F0A18079
:100A20007E4A1369926A13F038035AD0182B55D0B6
:100A3000E368002B00F0DE8078490A6822F0190292
:100A400013430B6001F0E0FF0546744B1B6813F085
:100A5000040F40F0AD8001F0D7FF401B0228F4D90D
:100A60000320EEE26D4A136843F480331360636839
:100A70002BB301F0C9FF0546684B1B6813F4003F18
:100A8000C9D101F0C1FF401B6428F5D90320D8E289
:100A9000B3F5A02F09D0614B1A6822F480321A6096
:100AA0001A6822F480221A60E1E75C4B1A6842F46B
:100AB00080221A601A6842F480321A60D7E701F087
:100AC000A3FF0546554B1B6813F4003FA3D001F06C
:100AD0009BFF401B6428F5D90320B2E212F0030FFC
:100AE000A6D14E4B1B6813F0040F03D0E368002B14
:100AF00000F0A282494A136823F01903E1680B430E
:100B0000136001F081FF0546444B1B6813F0040F8E
:100B100006D101F079FF401B0228F5D9032090E2AD
:100B200001F08CFF41F20303984212D82269402A57
:100B300007D03A494B6823F47C3343EA02334B60D5
:100B40000FE0364A536823F47C3343F40033536098
:100B500007E0324A536823F0FE43216943EA016308
:100B60005360236813F0100F00F088802B4A13693C
:100B700003F03803926A082B56D0182B50D0E36943
:100B8000002B00F0B880254A136843F080031360FF
:100B900001F03AFF0546214B1B6813F4807F40F0BB
:100BA000888001F031FF401B0228F4D9032048E27D
:100BB00001F044FF41F20303984212D82269402A0F
:100BC00007D016494B6823F47C3343EA02334B6069
:100BD000C7E7124A536823F47C3343F4003353606D
:100BE000BFE70E4A536823F0FE43216943EA0163DD
:100BF0005360B6E7094A136823F00103136001F05C
:100C000003FF0546054B1B6813F0040FA9D001F044
:100C1000FBFE401B0228F5D9032012E200440258D3
:100C200002F00302012AAAD1A14B1B6813F4807FB2
:100C300003D0E369802B40F0018201F0FFFE41F216
:100C40000303984212D8226A202A07D098494B6899
:100C500023F0F84343EA82634B600FE0944A536801
:100C600023F0F84343F08043536007E0904AD36891
:100C700023F07C53216A43EA0163D360236813F0B5
:100C8000080F60D06369002B49D0894A536F43F045
:100C90000103536701F0B8FE0546854B5B6F13F007
:100CA000020F50D101F0B0FE401B0228F5D90320FD
:100CB000C7E101F0C3FE41F20303984212D8226A51
:100CC000202A07D07A494B6823F0F84343EA82632D
:100CD0004B60D3E7764A536823F0F84343F08043F0
:100CE0005360CBE7724AD36823F07C53216A43EA0E
:100CF0000163D360C2E76E4A136823F08003136078
:100D000001F082FE05466A4B1B6813F4807FB5D064
:100D100001F07AFE401B0228F5D9032091E1644AD4
:100D2000536F23F00103536701F06EFE0546604BDD
:100D30005B6F13F0020F06D001F066FE401B022825
:100D4000F5D903207DE1236813F0200F29D0A36992
:100D50009BB1574A136843F48053136001F054FE6B
:100D60000546534B1B6813F4005F1AD101F04CFE8B
:100D7000401B0228F5D9032063E14D4A136823F490
:100D80008053136001F040FE0546494B1B6813F485
:100D9000005F06D001F038FE401B0228F5D9032081
:100DA0004FE1236813F0040F21D1636A002B00F098
:100DB00047813F4A126902F03802182A00F0EE809B
:100DC000022B79D03A4A136823F08073136001F044
:100DD0001BFE0446364B1B6813F0007F00F0DC80DE
:100DE00001F012FE001B0228F4D9032029E1314A48
:100DF000136843F48073136001F006FE05462D4B23
:100E00001B6813F4807F06D101F0FEFD401B6428AF
:100E1000F5D9032015E1A368012B0AD00BBB244BA5
:100E20001A6F22F001021A671A6F22F004021A6781
:100E300004E01F4A136F43F001031367A36833B341
:100E400001F0E2FD05461A4B1B6F13F0020FACD107
:100E500001F0DAFD401B41F288339842F3D90320B8
:100E6000EFE0052B09D0124B1A6F22F001021A672E
:100E70001A6F22F004021A67E0E70D4B1A6F42F076
:100E800004021A671A6F42F001021A67D6E701F0EE
:100E9000BBFD0546064B1B6F13F0020F85D001F01A
:100EA000B3FD401B41F288339842F3D90320C8E0D8
:100EB0000044025800480258694A136823F08073BE
:100EC000136001F0A1FD0546654B1B6813F0007F20
:100ED00006D001F099FD401B0228F5D90320B0E0AF
:100EE0005F4B996A5F4A0A40A16AE06A41EA0011D1
:100EF0000A439A62226B013AC2F30802616B01391C
:100F0000490289B20A43A16B0139090401F4FE01C7
:100F10000A43E16B0139090601F0FE410A431A63F5
:100F2000DA6A22F00102DA62596B4F4A0A40A16C78
:100F300042EAC1025A63DA6A22F00C02216C0A43C7
:100F4000DA62DA6A22F00202616C0A43DA62DA6A71
:100F500042F48032DA62DA6A42F40032DA62DA6A41
:100F600042F48022DA62DA6A42F00102DA621A6836
:100F700042F080721A6001F047FD0446384B1B684E
:100F800013F0007F06D101F03FFD001B0228F5D9C8
:100F9000032056E0002054E0002052E0304A916ADD
:100FA000106B012B4ED001F00303A26A93424BD188
:100FB000C1F30511E36A994248D1C0F30802236BDB
:100FC000013B9A4244D1C0F34622636B013B9A42F3
:100FD00040D1C0F30642A36B013B9A423CD1C0F31F
:100FE0000660E36B013B984238D11D4B5B6BC3F34A
:100FF000CC03A26C9A4201D1002022E0184AD36AA5
:1010000023F00103D36201F0FFFC054601F0FCFC74
:10101000A842FBD0124A516B134B0B40A16C43EA20
:10102000C1035363D36A43F00103D362002008E095
:1010300001207047012004E0012002E0012000E0CF
:10104000002038BD0120FCE70120FAE70120F8E785
:101050000120F6E70120F4E70120F2E70120F0E7A4
:10106000004402580CFCFFFF0700FFFF744B1B6994
:1010700003F03803102B00F0DE80182B0FD00BB1DB
:10108000704870476E4B1B6813F0200F00F0D5803E
:101090006B4B1B68C3F3C1036B48D840704710B457
:1010A000674B9A6A02F003029C6AC4F30510D96A7E
:1010B00001F001015B6BC3F3CC0301FB03F307EE0B
:1010C000903AF8EE677A14F47C7F00F09480012A5D
:1010D00066D0022A00F09280E2B107EE100AF8EE24
:1010E000476A9FED5A6A86EE267A554B1B6BC3F30F
:1010F000080306EE903AF8EE666A9FED556A67EED1
:10110000867A76EEA77AF7EE006A77EEA67A27EE71
:10111000277A61E04A4B1B6813F0200F23D048491F
:101120000A68C2F3C102484BD34007EE103AF8EE0A
:10113000476A07EE100AB8EE476A86EE867A0B6BAE
:10114000C3F3080306EE903AF8EE666A9FED406A34
:1011500067EE867A76EEA77AF7EE006A77EEA67AE1
:1011600027EE277A38E007EE100AF8EE476A9FED7F
:10117000396A86EE267A324B1B6BC3F3080306EE00
:10118000903AF8EE666A9FED326A67EE867A76EEFE
:10119000A77AF7EE006A77EEA67A27EE277A1BE0A9
:1011A00007EE100AF8EE476A9FED286A86EE267A67
:1011B000234B1B6BC3F3080306EE903AF8EE666A06
:1011C0009FED236A67EE867A76EEA77AF7EE006ADD
:1011D00077EEA67A27EE277A194B1B6BC3F34623CB
:1011E000013307EE903AF8EE677AC7EE276AFCEE15
:1011F000E67A17EE900A5DF8044B704707EE100A86
:10120000F8EE476A9FED146A86EE267A0C4B1B6B4C
:10121000C3F3080306EE903AF8EE666A9FED0C6A97
:1012200067EE867A76EEA77AF7EE006A77EEA67A10
:1012300027EE277AD0E7094870470348704700BF78
:101240000044025800093D000090D0030024744A75
:10125000000000390024744C0024F44A00127A0083
:10126000002800F0328170B50D4604469B4B1B6888
:1012700003F00F038B420BD2984A136823F00F033D
:101280000B431360136803F00F038B4240F01F8180
:10129000236813F0040F0CD02269914B9B6903F073
:1012A00070039A4205D98E498B6923F070031A4363
:1012B0008A61236813F0080F0CD06269884BDB69E0
:1012C00003F070039A4205D98549CB6923F0700376
:1012D0001A43CA61236813F0100F0CD0A269804B27
:1012E000DB6903F4E0639A4205D97D49CB6923F4B5
:1012F000E0631A43CA61236813F0200F0CD0E2693F
:10130000774B1B6A03F070039A4205D974490B6A44
:1013100023F070031A430A62236813F0020F0CD003
:10132000E2686F4B9B6903F00F039A4205D96C4941
:101330008B6923F00F031A438A61236813F0010FAE
:1013400041D0674A936923F47063A1680B439361AA
:101350006368022B0AD0032B27D0012B2CD0604AC4
:10136000126812F0040F06D10120ADE0126812F4E9
:10137000003F00F0AE805A490A6922F00702134389
:101380000B6101F041FB0646554B1B6903F0380326
:101390006268B3EBC20F16D001F036FB801B41F23E
:1013A00088339842F0D903208EE04D4A126812F03B
:1013B000007FE0D1012087E0494A126812F4807F63
:1013C000D9D1012080E0236813F0020F0CD0E2682D
:1013D000434B9B6903F00F039A4205D240498B6946
:1013E00023F00F031A438A613C4B1B6803F00F0381
:1013F000AB420AD9394A136823F00F032B43136019
:10140000136803F00F03AB4265D1236813F0040F98
:101410000CD02269324B9B6903F070039A4205D2CB
:101420002F498B6923F070031A438A61236813F0F4
:10143000080F0CD062692A4BDB6903F070039A42F3
:1014400005D22749CB6923F070031A43CA61236888
:1014500013F0100F0CD0A269214BDB6903F4E06399
:101460009A4205D21E49CB6923F4E0631A43CA614C
:10147000236813F0200F0CD0E269194B1B6A03F0AC
:1014800070039A4205D216490B6A23F070031A437F
:101490000A62FFF7EBFD12498B69C3F30323114A7C
:1014A000D35C03F01F03D8408B6903F00F03D35CB8
:1014B00003F01F0320FA03F30B4A13600B4B186071
:1014C0000B4B186802F08EFC70BD012070470120A4
:1014D000FAE70120F8E70120F6E700BF00200052FC
:1014E0000044025820620008080000200C00002080
:1014F0000400002008B5FFF7B9FD0B4A9369C3F358
:1015000003230A49CB5C03F01F0320FA03F392691B
:1015100002F00F02885C00F01F0023FA00F0044A7A
:101520001060044A136008BD00440258206200089D
:10153000080000200C00002008B5FFF7DBFF054B7A
:10154000DB69C3F30213044AD35C03F01F03D840E2
:1015500008BD00BF004402582062000808B5FFF72C
:10156000C9FF054BDB69C3F30223044AD35C03F0D4
:101570001F03D84008BD00BF004402582062000885
:101580003F230360114B1A6902F0070242609A6917
:1015900002F4706282609A6902F00F02C2609A6976
:1015A00002F070020261DA6902F070024261DA69E7
:1015B00002F4E06282611B6A03F07003C361044BB2
:1015C0001B6803F00F030B60704700BF0044025814
:1015D00000200052404B9B6A03F00303032B79D099
:1015E00070B505460E463C4A136823F080631360CD
:1015F00001F00AFA0446384B1B6813F0006F06D05E
:1016000001F002FA031B022BF5D9032070BD324B07
:101610009A6A22F47C32296842EA01329A626A6844
:10162000013AC2F30802A9680139490289B20A43A2
:10163000E9680139090401F4FE010A432969013905
:10164000090601F0FE410A439A63DA6A22F0C002F9
:1016500069690A43DA62DA6A22F02002A9690A4358
:10166000DA62DA6A22F01002DA62D96B1B4A0A40A7
:10167000E96942EAC102DA63DA6A42F01002DA6228
:10168000C6B91A46DB6A43F40023D362124A1368D0
:1016900043F08063136001F0B7F904460E4B1B68FA
:1016A00013F0006F14D101F0AFF9001B0228F5D937
:1016B0000320ABE7012E05D0074AD36A43F4001399
:1016C000D362E3E7044AD36A43F48013D362DDE7CD
:1016D00000209BE701207047004402580700FFFFED
:1016E000404B9B6A03F00303032B79D070B505468A
:1016F0000E463C4A136823F08053136001F084F9CE
:101700000446384B1B6813F0005F06D001F07CF9EB
:10171000031B022BF5D9032070BD324B9A6A22F0CD
:101720007C72296842EA01529A626A68013AC2F3FD
:101730000802A9680139490289B20A43E9680139F6
:10174000090401F4FE010A4329690139090601F07F
:10175000FE410A431A64DA6A22F4406269690A4364
:10176000DA62DA6A22F40072A9690A43DA62DA6A92
:1017700022F48072DA62596C1B4A0A40E96942EA33
:10178000C1025A64DA6A42F48072DA62C6B91A4651
:10179000DB6A43F48003D362124A136843F0805338
:1017A000136001F031F904460E4B1B6813F0005F23
:1017B00014D101F029F9001B0228F5D90320ABE769
:1017C000012E05D0074AD36A43F08073D362E3E762
:1017D000044AD36A43F40003D362DDE700209BE7A9
:1017E00001207047004402580700FFFFF8B5044687
:1017F000036813F0006F30D0836EB3F5001F26D05E
:101800000ED8EBB1B3F5801F07D102210830FFF7E6
:10181000E1FE054645B12E4621E0012635461EE093
:10182000B3F5401F09D10025984A136D23F44013E6
:10183000A16E0B431365002611E0012635460EE02C
:10184000924AD36A43F40033D3620025ECE70221C5
:101850002830FFF745FF0546DCE7002635462368BC
:1018600013F4807F14D0A36D042B32D8DFE803F08B
:1018700003232A080800854AD36A43F40033D3625D
:1018800055BB824A136D23F00703A16D0B4313650B
:10189000236813F4007F31D0E36D802B4CD020D827
:1018A000002B43D0402B19D1002104F10800FFF791
:1018B00091FE05461AE0002104F10800FFF78AFEB8
:1018C0000546DDE7002104F12800FFF709FF054682
:1018D000D6E701263546DBE72E46D9E70126354611
:1018E0000CE0C02B02D0B3F5807F1CD15DBB674AF2
:1018F000136D23F4E073E16D0B431365236813F458
:10190000806F46D0D4F8A830B3F5800F39D01FD8F7
:101910008BB3B3F5001F18D1002104F10800FFF7C5
:1019200059FE05461AE001263546E7E7574AD36ACD
:1019300043F40033D362D9E7002104F12800FFF714
:10194000CFFE0546D2E72E46D8E70126354620E0F1
:10195000B3F5C00F02D0B3F5000F09D1C5B94B4A9A
:10196000936D23F46003D4F8A8100B43936510E043
:10197000012635460DE0454AD36A43F40033D3626D
:10198000ECE7002104F12800FFF7AAFE0546E5E791
:101990002E46236813F4006F24D0D4F8AC30B3F192
:1019A000007F42D00ED8002B39D0B3F1807F06D112
:1019B000002104F10800FFF70DFE054608E00126AE
:1019C00035460FE0B3F1407F02D0B3F1806F23D1F1
:1019D000002D31D12D4A936D23F0E063D4F8AC1083
:1019E0000B439365236813F0007F2ED0E36C202B0C
:1019F00040D026D833B1102B20D1244AD36A43F4E7
:101A00000033D362002D3CD1204AD36C23F0300345
:101A1000E16C0B43D36418E001263546E2E71B4A2C
:101A2000D36A43F40033D362D2E7002104F12800E3
:101A3000FFF756FE0546CBE72E46D3E7012635468F
:101A400003E0302BDED001263546236813F4805F97
:101A50002DD0236EB3F5005F4FD019D8002B46D0A0
:101A6000B3F5805F0FD1002104F10800FFF7B2FD4C
:101A7000054613E0022104F10800FFF7ABFD05461F
:101A8000C0E72E46E1E70126354610E00044025843
:101A9000B3F5405F02D0B3F5804F25D1002D33D18F
:101AA000774A136D23F4E043216E0B4313652368DB
:101AB00013F4005F38D0636EB3F5003F53D028D8DD
:101AC00043B1B3F5803F21D1012104F10800FFF7B4
:101AD00081FD0546002D4DD1694A136D23F4E023A5
:101AE000616E0B4313651FE001263546DFE7644A4C
:101AF000D36A43F40033D362D0E7002104F1280015
:101B0000FFF7EEFD0546C9E72E46D0E7012635462C
:101B10000AE0B3F5802FDDD0B3F5A02FDAD0B3F50E
:101B2000403FD7D001263546236813F4804F31D08B
:101B3000D4F8B030B3F1005F45D020D843B1B3F151
:101B4000805F19D1012104F10800FFF743FD05462C
:101B5000002D3FD14A4A936D23F0E043D4F8B010F2
:101B60000B43936516E0012104F12800FFF7B8FD4F
:101B70000546AFE72E46D7E7012635460AE0B3F122
:101B8000804FE5D0B3F1A04FE2D0B3F1405FDFD09A
:101B900001263546236813F4004F09D0236FB3F1B3
:101BA000805F19D0B3F1005F24D0D3B10126354650
:101BB000236813F0807F33D0A36C032B5BD8DFE85E
:101BC00003F027225327012104F12800FFF788FDA5
:101BD0000546BDE72E46DDE7294AD36A43F40033C4
:101BE000D36275B9264A136D23F04053216F0B431E
:101BF0001365DDE7012104F10800FFF7EBFC054662
:101C0000EFE72E46D4E71E4AD36A43F40033D3628B
:101C1000A5BB1B4AD36C23F00303A16C0B43D36415
:101C2000236813F4800F2DD1236813F0010F00F007
:101C3000A580E36F282B00F29F80DFE803F08D9DE5
:101C40009D9D9D9D9D9D879D9D9D9D9D9D9D969DE1
:101C50009D9D9D9D9D9D8D9D9D9D9D9D9D9D8D9DD4
:101C60009D9D9D9D9D9D8D00022104F10800FFF723
:101C7000B1FC0546CCE701263546D1E72E46CFE735
:101C800000440258914A136843F48073136000F0D3
:101C9000BBFE07468D4B1B6813F4807F05D100F017
:101CA000B3FEC01B6428F5D90325002D4AD1884B0B
:101CB0001B6FD4F8B420534013F4407F0CD0844BF6
:101CC0001A6F22F44072196F41F480311967196F4D
:101CD00021F4803119671A67D4F8B430B3F5807FE6
:101CE00015D08DBBD4F8B43003F44072B2F5407F08
:101CF0001ED0774A136923F47C53136174490B6F28
:101D0000D4F8B420C2F30B0213430B678CE700F046
:101D10007BFE07466E4B1B6F13F0020FE1D100F004
:101D200073FEC01B41F288339842F3D90325D8E7EC
:101D30006748026922F47C52664901EA131313438F
:101D40000361DBE72E466FE72E466DE7012104F1C4
:101D50000800FFF73FFC0546E5B95D4A536D23F0E7
:101D60003803E16F0B43536508E0012104F12800BB
:101D7000FFF7B6FC0546EFE701263546236813F06A
:101D8000020F17D0A36F052B28D8DFE803F00B054F
:101D9000200B0B0B2E46F1E7012104F10800FFF7A1
:101DA00019FC0546EDB94A4A536D23F00703A16FAC
:101DB0000B435365236813F0040F23D0D4F89430F9
:101DC000052B45D8DFE803F0150F3D15151501214A
:101DD00004F12800FFF784FC0546E3E701263546B9
:101DE000E8E72E46E6E7012104F10800FFF7F2FBE1
:101DF000054685BB364A936D23F00703D4F894104B
:101E00000B439365236813F0200F34D0D4F890303F
:101E1000B3F1005F4ED023D843B1B3F1805F1CD142
:101E2000002104F10800FFF7D5FB0546002D48D13D
:101E3000274A536D23F0E043D4F890100B435365C9
:101E400019E0012104F12800FFF74AFC0546D0E71C
:101E500001263546D6E72E46D4E7012635460AE068
:101E6000B3F1804FE2D0B3F1A04FDFD0B3F1405FC8
:101E7000DCD001263546236813F0400F37D0D4F864
:101E80009C30B3F5006F53D026D843B1B3F5806FC3
:101E900019D1002104F10800FFF79CFB0546002D35
:101EA0004DD10B4A936D23F4E053D4F89C100B43AF
:101EB00093651CE0022104F12800FFF711FC0546A0
:101EC000B4E72E46D7E70126354610E00048025811
:101ED00000440258CFFFFF00B3F5805FDFD0B3F5B9
:101EE000A05FDCD0B3F5406FD9D00126354623681A
:101EF00013F0800F33D0D4F8A030B3F5804F00F04A
:101F0000A38021D843B1B3F5005F1AD1002104F1B9
:101F10000800FFF75FFB0546002D40F09C80814ADA
:101F2000936D23F46043D4F8A0100B43936516E03F
:101F3000022104F12800FFF7D3FB0546AFE72E4648
:101F4000D5E7012635460AE0B3F5004FE4D0B3F5F6
:101F5000204FE1D0B3F5C04FDED0012635462368CF
:101F600013F0080F0CD0D4F88430B3F5805F74D030
:101F70006C4A536D23F44053D4F884100B435365DB
:101F8000236813F0100F0CD0D4F89830B3F5807F8D
:101F90006CD0644A936D23F44073D4F898100B43CB
:101FA0009365236813F4002F0BD0D4F8A430B3F555
:101FB000803F74D0B3F5003F67D0002B5FD001267F
:101FC0003546236813F4802F0CD0D4F88830B3F54D
:101FD000001F7CD0B3F5401F6FD0B3F5801F67D0D2
:101FE00001263546236813F4803F08D0236D002B6B
:101FF00076D0B3F5803F00F0818001263546236816
:1020000013F0005F40F08380236813F4003F00F07A
:102010008E80D4F88030B3F5807F00F0EC8040F201
:102020008380B3F5007F03D0B3F5407F40F0E180BB
:10203000002D40F0E6803B4A536D23F44073D4F802
:1020400080100B43536572E0022104F12800FFF772
:1020500047FB054660E72E4681E7022104F1280090
:10206000FFF73EFB002883D0012681E7022104F11F
:102070002800FFF735FB00288BD0012689E70021D7
:1020800004F10800FFF7A6FA05467DB9254A936DCD
:1020900023F44033D4F8A4100B43936591E7022155
:1020A00004F12800FFF71CFB0546EEE72E4688E703
:1020B0001C4AD36A43F40033D3627DB9194A536D85
:1020C00023F44013D4F888100B4353658AE70121A9
:1020D00004F12800FFF704FB0546EEE72E4681E7F2
:1020E000104AD36A43F40033D36275B90D4AD36CF6
:1020F00023F48033216D0B43D36480E7022104F184
:102100000800FFF767FA0546EFE72E4677E702215A
:1021100004F12800FFF7E4FA00283FF475AF012628
:1021200072E700BF00440258002B81D001262368CB
:1021300013F4801F06D04F4A136D23F00043616FE4
:102140000B431365236813F0805F07D0494A136976
:1021500023F48043D4F8B8100B431361236813F4BD
:10216000001F06D0434A136D23F08073E16E0B43CA
:102170001365236813F0804F09D03E4B1A6922F48F
:1021800000421A611A69D4F8BC100A431A61236824
:10219000002B06DA374AD36C23F04053616D0B43B2
:1021A000D364236813F4000F07D0324A536D23F42D
:1021B0004003D4F88C100B435365636813F0010F90
:1021C00021D1636813F0020F26D1636813F0040F66
:1021D0002BD1636813F0080F30D1636813F0100F30
:1021E00035D1636813F0200F3AD106B1012630468D
:1021F000F8BD01269BE71F4AD36A43F40033D3623C
:1022000016E72E4693E7002104F10800FFF7E2F9F4
:102210000028D6D00646D4E7012104F10800FFF7D4
:10222000D9F90028D1D00646CFE7022104F10800F1
:10223000FFF7D0F90028CCD00646CAE7002104F108
:102240002800FFF74DFA0028C7D00646C5E7012150
:1022500004F12800FFF744FA0028C2D00646C0E780
:10226000022104F12800FFF73BFA0028BDD0012627
:10227000BDE700BF0044025808B5FFF73BF9054B26
:102280001B6AC3F30213044AD35C03F01F03D84054
:1022900008BD00BF004402582062000810B4784B0B
:1022A0009A6A9C6AC4F3053CD96AC1F30011DB6BDE
:1022B000C3F3CC0301FB03F314F47C3F00F0DB8099
:1022C00002F0030207EE903AF8EE677A012A66D030
:1022D000022A00F0B380E2B107EE10CAF8EE476AB6
:1022E0009FED686A86EE267A654B9B6BC3F3080305
:1022F00006EE903AF8EE666A9FED636A67EE867ABC
:1023000076EEA77AF7EE006A77EEA67A27EE277ABE
:1023100061E05B4B1B6813F0200F23D058490A681B
:10232000C2F3C102594BD34007EE103AF8EE476AA8
:1023300007EE10CAB8EE476A86EE867A8B6BC3F357
:10234000080306EE903AF8EE666A9FED4F6A67EE74
:10235000867A76EEA77AF7EE006A77EEA67A27EE0F
:10236000277A38E007EE10CAF8EE476A9FED486A10
:1023700086EE267A424B9B6BC3F3080306EE903A37
:10238000F8EE666A9FED406A67EE867A76EEA77A87
:10239000F7EE006A77EEA67A27EE277A1BE007EEC3
:1023A00010CAF8EE476A9FED376A86EE267A344BFC
:1023B0009B6BC3F3080306EE903AF8EE666A9FED56
:1023C000326A67EE867A76EEA77AF7EE006A77EEE3
:1023D000A67A27EE277A2A4A936BC3F3462307EEA1
:1023E000903AF8EE677AF7EE006A77EEA67A87EE13
:1023F000276ABCEEC66A80ED006A936BC3F306439E
:1024000007EE903AF8EE677A77EEA67A87EE276ABB
:10241000BCEEC66A80ED016A936BC3F3066307EEF8
:10242000903AF8EE677A77EEA67AC7EE276AFCEE66
:10243000E66AC0ED026A5DF8044B704707EE10CA09
:10244000F8EE476A9FED136A86EE267A0C4B9B6B7B
:10245000C3F3080306EE903AF8EE666A9FED0A6A47
:1024600067EE867A76EEA77AF7EE006A77EEA67ABE
:1024700027EE277AAFE70023036043608360DAE743
:10248000004402580024744A000000390090D00330
:102490000024744C0024F44A10B4784B9A6A9C6A65
:1024A000C4F3055CD96AC1F300215B6CC3F3CC03B0
:1024B00001FB03F314F07C7F00F0DB8002F00302E9
:1024C00007EE903AF8EE677A012A66D0022A00F009
:1024D000B380E2B107EE10CAF8EE476A9FED686A72
:1024E00086EE267A654B1B6CC3F3080306EE903A22
:1024F000F8EE666A9FED636A67EE867A76EEA77AF3
:10250000F7EE006A77EEA67A27EE277A61E05B4B5A
:102510001B6813F0200F23D058490A68C2F3C10288
:10252000594BD34007EE103AF8EE476A07EE10CA4F
:10253000B8EE476A86EE867A0B6CC3F3080306EEA4
:10254000903AF8EE666A9FED4F6A67EE867A76EE0D
:10255000A77AF7EE006A77EEA67A27EE277A38E0B8
:1025600007EE10CAF8EE476A9FED486A86EE267AB3
:10257000424B1B6CC3F3080306EE903AF8EE666A12
:102580009FED406A67EE867A76EEA77AF7EE006AEC
:1025900077EEA67A27EE277A1BE007EE10CAF8EE50
:1025A000476A9FED376A86EE267A344B1B6CC3F37D
:1025B000080306EE903AF8EE666A9FED326A67EE1F
:1025C000867A76EEA77AF7EE006A77EEA67A27EE9D
:1025D000277A2A4A136CC3F3462307EE903AF8EEA3
:1025E000677AF7EE006A77EEA67A87EE276ABCEE86
:1025F000C66A80ED006A136CC3F3064307EE903A97
:10260000F8EE677A77EEA67A87EE276ABCEEC66A9E
:1026100080ED016A136CC3F3066307EE903AF8EE9F
:10262000677A77EEA67AC7EE276AFCEEE66AC0ED17
:10263000026A5DF8044B704707EE10CAF8EE476A6D
:102640009FED136A86EE267A0C4B1B6CC3F30803CE
:1026500006EE903AF8EE666A9FED0A6A67EE867AB1
:1026600076EEA77AF7EE006A77EEA67A27EE277A5B
:10267000AFE70023036043608360DAE70044025859
:102680000024744A000000390090D0030024744CE8
:102690000024F44AF0B583B000236BE085685E0047
:1026A0000324B44025EA0405CC68B4402C4384607C
:1026B000456825EA0C054C68C4F300149C402C4383
:1026C000446069E0DD08083550F8254003F0070C48
:1026D0004FEA8C0C4FF00F0E0EFA0CFE24EA0E0E91
:1026E0000C6904FA0CF444EA0E0440F825406BE04F
:1026F000092400E0002404FA0EF42C430CF1020C2F
:10270000694D45F82C404FF0B0442568D44325EA84
:1027100002064F6817F4801F01D042EA05064FF009
:10272000B0452E606D6804EA05064F6817F4001F77
:1027300001D042EA05064FF0B0456E60D5F88450EE
:1027400004EA05064F6817F4003F01D042EA050687
:102750004FF0B045C5F88460D5F880502C404E68E5
:1027600016F4803F01D042EA05044FF0B042C2F8AF
:10277000804001330A6832FA03F400F092804FF08F
:10278000010C0CFA03FC1CEA0202F2D04C6804F0C3
:102790000304013C012C81D94C6804F00304032C90
:1027A0000CD0C4685D004FF0030C0CFA05FC24EA61
:1027B0000C0C8C68AC4044EA0C04C4604C6804F017
:1027C0000304022C3FF47EAF04684FEA430E4FF03F
:1027D000030C0CFA0EFC24EA0C0C4C6804F0030405
:1027E00004FA0EF444EA0C0404604C6814F4403F0C
:1027F000BFD02E4CD4F8F45045F00205C4F8F45084
:10280000D4F8F44004F002040194019C4FEA930CC4
:102810000CF10205244C54F8255003F0030E4FEA46
:102820008E0E0F2404FA0EF425EA0405204CA04273
:102830003FF460AF04F58064A04222D004F58064C8
:10284000A04220D004F58064A0421ED004F580642C
:10285000A0421CD004F58064A0421AD004F5806424
:10286000A04218D004F58064A04216D004F580641C
:10287000A04214D004F58064A0423FF439AF0A248A
:1028800039E7012437E7022435E7032433E704243A
:1028900031E705242FE706242DE707242BE708243A
:1028A00029E703B0F0BD00BF0004005800440258FF
:1028B000000002580AB181617047090481617047C4
:1028C0002030054B53F82020044B9A4201D00120C0
:1028D00070470020704700BF00640258000300806A
:1028E00041F44071014B43F82010704700640258D6
:1028F00038B50446224BDB6803F00703062B07D0EC
:102900001F4BDB6803F03F03834236D0012038BD04
:102910001B4AD36823F03F030343D36000F074F8ED
:102920000546174B5B6813F4005F07D100F06CF8A5
:10293000431BB3F57A7FF4D90120E8E72E2C18BFAA
:102940001E2C08D02D2C14BF002301231D2C02D0D7
:102950000BB90020DBE700F057F80446084BDB68B2
:1029600013F4803F07D100F04FF8001BB0F57A7FD9
:10297000F4D90120CBE70020C9E70020C7E700BF5A
:1029800000480258024AD36843F08073D36070470E
:102990000048025810B50320FDF7E8FFFEF766FB7C
:1029A0000F498B69C3F303230E4AD35C03F01F0363
:1029B000D8408B6903F00F03D35C03F01F0320FAA8
:1029C00003F3094A1360094B18600F2001F00AFA5B
:1029D00010B10124204610BD0446FDF79BFEF9E727
:1029E0000044025820620008080000200C0000206B
:1029F000034B1B78034A11680B441360704700BFF8
:102A000000000020F8050020014B1868704700BF47
:102A1000F805002038B50446FFF7F6FF0546B4F187
:102A2000FF3F02D0044B1B781C44FFF7EDFF401B17
:102A3000A042FAD338BD00BF00000020014B186847
:102A4000000C70470010005C7047000090F83D30AB
:102A5000DBB2012B3AD1022380F83D300268D36803
:102A600043F00103D36003681A4AB3F1804F18BFE3
:102A700093421DD0A2F57C42934219D002F58062A8
:102A8000934215D002F58062934211D002F578424C
:102A900093420DD0A2F56C42934209D002F59432D4
:102AA000934205D01A6842F001021A600020704774
:102AB0009968094A0A40062A18BFB2F5803F07D034
:102AC0001A6842F001021A60002070470120704726
:102AD0000020704700000140070001007047704768
:102AE0007047704710B5044603681A6912F0020F68
:102AF00011D0DA6812F0020F0DD06FF002021A61E5
:102B00000123037703689B6913F0030F79D0FFF764
:102B1000E6FF0023237723681A6912F0040F12D00E
:102B2000DA6812F0040F0ED06FF004021A6102236B
:102B3000237723689B6913F4407F68D02046FFF712
:102B4000CEFF0023237723681A6912F0080F12D0F2
:102B5000DA6812F0080F0ED06FF008021A61042331
:102B600023772368DB6913F0030F57D02046FFF764
:102B7000B6FF0023237723681A6912F0100F12D0D2
:102B8000DA6812F0100F0ED06FF010021A610823ED
:102B900023772368DB6913F4407F46D02046FFF794
:102BA0009EFF0023237723681A6912F0010F03D0D8
:102BB000DA6812F0010F3FD123681A6912F0800F12
:102BC00003D0DA6812F0800F3DD123681A6912F43D
:102BD000807F03D0DA6812F0800F3BD123681A6936
:102BE00012F0400F03D0DA6812F0400F39D1236899
:102BF0001A6912F0200F03D0DA6812F0200F37D1D3
:102C000010BDFFF76BFF2046FFF76AFF81E7204604
:102C1000FFF764FF2046FFF763FF92E72046FFF7C8
:102C20005DFF2046FFF75CFFA3E72046FFF756FF56
:102C30002046FFF755FFB4E76FF001021A61204606
:102C4000FDF700FCB8E76FF080021A61204600F043
:102C5000CAF8BAE76FF480721A61204600F0C4F82F
:102C6000BCE76FF040021A612046FFF73AFFBEE76B
:102C70006FF020021A61204600F0B4F8C0E70000AF
:102C800030B50368394A904214BF4FF0000E4FF040
:102C9000010EB0F1804F14BF72464EF00102AAB986
:102CA000334CA04214BF00240124324DA8420DD061
:102CB00064B904F1804404F58234A04214BF0024B6
:102CC000012405F50065A84200D01CB123F0700373
:102CD0004C68234312BB264A904214BF00220122B3
:102CE000244CA0421AD0CAB902F1804202F58232C5
:102CF000904214BF0022012204F50064A0420DD0CE
:102D000062B91D4A904214BF0022012204F59A3490
:102D1000A04203D012B9194A904204D123F4407C56
:102D2000CB6843EA0C0323F080034A691343036032
:102D30008A68C2620A688262114A904214BF73466E
:102D40004EF0010363B90C4B984214BF00230123DA
:102D500002F57052904203D013B9084B984201D14A
:102D60000B6903630123436130BD00BF00000140D4
:102D700000080040000400400044014000480140B9
:102D80000004014060B310B5044690F83D3013B321
:102D9000022384F83D30214651F8040BFFF770FF01
:102DA000012384F8483084F83E3084F83F3084F8BA
:102DB000403084F8413084F8423084F8433084F85D
:102DC000443084F8453084F8463084F8473084F83D
:102DD0003D30002010BD80F83C30FFF735FED7E7CE
:102DE000012070477047704770470000026852E842
:102DF000003F23F4907342E800310029F6D10268C5
:102E000002F1080353E8001F0D4B0B40083242E863
:102E100000310029F3D1C36E012B06D02023C0F866
:102E20008C300023C36643677047026852E8003F56
:102E300023F0100342E800310029F6D1EEE700BF8D
:102E4000FEFFFFEF70B586B0044601688368026933
:102E5000134342691343C26913430868884A024016
:102E60001A430A602268536823F44053E1680B4315
:102E70005360A1692268834B9A4201D0236A1943A7
:102E80009068814B03400B4393602268D36A23F020
:102E90000F03616A0B43D36222687C4B9A4221D0B4
:102EA0007B4B9A4200F08C807A4B9A4200F0A280D1
:102EB000794B9A4200F0B580784B9A4200F0C88076
:102EC000774B9A4200F0F480764B9A4200F01981D9
:102ED000754B9A4200F02C816A4B9A4200F03F8178
:102EE000802333E0714B5B6D03F03803282B65D8EA
:102EF000DFE813F0290064006400640064006400EB
:102F0000640064004D0164006400640064006400B7
:102F1000640064002B0064006400640064006400CA
:102F2000640064005E006400640064006400640087
:102F30006400640060006400640064006400640075
:102F4000640064006200012300E008234D498A42C6
:102F500000F02F81E069B0F5004F00F0AF81202B29
:102F600000F20782202B00F25182DFE813F01E02EC
:102F700024024F024F0227024F024F024F022C023F
:102F80004F024F024F024F024F024F024F023102D7
:102F90004F024F024F024F024F024F024F024F02A9
:102FA0004F024F024F024F024F024F024F023D02AB
:102FB0001023CBE72023C9E74023C7E78023C5E7D9
:102FC0003A4B5B6D03F00703052B11D8DFE813F0D4
:102FD0000600E10008000A000C000E000023B5E71F
:102FE0000823B3E71023B1E72023AFE74023ADE781
:102FF0008023ABE72D4B5B6D03F00703052B0ED849
:10300000DFE803F003C90507090B00239EE7082347
:103010009CE710239AE7202398E7402396E7802334
:1030200094E7224B5B6D03F00703052B0ED8DFE816
:1030300003F003B40507090B002387E7082385E79E
:10304000102383E7202381E740237FE780237DE768
:10305000164B5B6D03F00703052B0ED8DFE803F07A
:10306000039F0507090B002370E708236EE7102371
:103070006CE720236AE7402368E7802366E700BF08
:10308000F369FFCF000C0058FFF4FF11001001405E
:103090000044004000480040004C00400050004008
:1030A0000014014000780040007C004000440258B9
:1030B0007D4B5B6D03F03803282B20D8DFE803F04D
:1030C000151F1F1F1F1F1F1F711F1F1F1F1F1F1FC8
:1030D000171F1F1F1F1F1F1F191F1F1F1F1F1F1F0E
:1030E0001B1F1F1F1F1F1F1F1D0001232EE708236B
:1030F0002CE710232AE7202328E7402326E7802314
:1031000024E7694B5B6D03F00703052B0ED8DFE85E
:1031100003F0034A0507090B002317E7082315E707
:10312000102313E7202311E740230FE780230DE747
:103130005D4B5B6D03F00703052B0ED8DFE803F052
:1031400003350507090B002300E70823FEE61023DB
:10315000FCE62023FAE64023F8E68023F6E603F5B2
:103160000E339B6D03F00703052B0ED8DFE803F049
:10317000031F0507090B0223E8E60823E6E61023F0
:10318000E4E62023E2E64023E0E68023DEE60423B3
:10319000DCE60423DAE60423D8E60423D6E6042397
:1031A000D4E60423D2E60423D0E60423CEE60423A7
:1031B000CCE6202B27D8022BC0F01A81023B1E2B15
:1031C00000F21881DFE813F05000160156001601D6
:1031D000160116015B0016011601160116011601F3
:1031E00016011601600016011601160116011601DE
:1031F0001601160116011601160116011601160117
:10320000160116016C00402B2CD14FF40040626A6D
:10321000264B33F81220B0FBF2F3656805EB45014D
:10322000994200F2E980B3EB053F00F2E780002607
:1032300033463146FDF734F8090241EA10610002D5
:103240006B08C0182A46334641F10001FDF728F803
:10325000A0F54072164B9A4200F2D2802368D860E3
:103260003046D4E00120D2E0FFF706F80028CED1A6
:103270000020CCE003A8FFF711F80498F6E76846B1
:10328000FFF70AF90198F1E7074B1B6813F0200FCD
:1032900008D0054B1B68C3F3C1030648D840B6E706
:1032A0000548B4E70348B2E700440258F861000853
:1032B000FFFC0F000090D00300093D00202B15D823
:1032C000202B00F29F80DFE803F031379D9D3A9D6F
:1032D0009D9D3F9D9D9D9D9D9D9D449D9D9D9D9DD5
:1032E0009D9D9D9D9D9D9D9D9D9D5000402B1BD115
:1032F000626A4D4B33F81230B0FBF3F0626853084A
:1033000003EB4003B3FBF2F3A3F110014FF6EF72AE
:10331000914279D89AB222F00F02C3F342031343C9
:103320002268D360002072E0012070E0FEF704F90B
:103330000028DDD100206AE0FEF710F9F8E703A8C5
:10334000FEF7ACFF0498F3E76846FFF7A5F801988D
:10335000EEE7364B1B6813F0200F08D0334B1B6889
:10336000C3F3C1033248D840C2E73248C0E730480F
:10337000BEE7402B17D14FF40040626A2A4B33F866
:103380001230B0FBF3F0636800EB5300B0FBF3F0D6
:10339000A0F110024FF6EF739A4242D8236880B230
:1033A000D860002033E0012031E0FEF7C5F80028A6
:1033B000E3D100202BE0FEF7D1F8F8E703A8FEF7F1
:1033C0006DFF0498F3E76846FFF766F80198EEE7AB
:1033D000164B1B6813F0200F08D0144B1B68C3F367
:1033E000C1031348D840C8E71248C6E71048C4E7ED
:1033F00001200CE001200AE0012008E0012006E0A5
:10340000012004E0012002E0012000E0012001236E
:10341000A4F86A30A4F8683000236367A36706B095
:1034200070BD0120F3E700BFF861000800440258B6
:103430000090D00300093D00836A13F0010F06D00D
:103440000268536823F40033C16A0B435360836AF4
:1034500013F0020F06D00268536823F48033016B27
:103460000B435360836A13F0040F06D0026853685D
:1034700023F48023416B0B435360836A13F0080FDE
:1034800006D00268536823F40043816B0B435360FA
:10349000836A13F0100F06D00268936823F48053F8
:1034A000C16B0B439360836A13F0200F06D0026850
:1034B000936823F40053016C0B439360836A13F009
:1034C000400F0AD00268536823F48013416C0B4309
:1034D0005360436CB3F5801F0BD0836A13F0800FE9
:1034E00006D00268536823F40023C16C0B43536079
:1034F00070470268536823F4C003816C0B43536028
:10350000EBE72DE9F84305460F4616469946DDF8E8
:1035100020802B68DC6937EA04040CBF01240024F6
:10352000B44232D1B8F1FF3FF3D0FFF76DFAA0EB10
:10353000090040452CD8B8F1000F2BD02B681A6831
:1035400012F0040FE5D0DA6912F0080F11D1DA6930
:1035500012F4006FDDD04FF400621A622846FFF7C4
:1035600045FC2023C5F89030002385F884300320E3
:103570000CE008241C622846FFF738FCC5F8904090
:10358000002385F88430012000E00020BDE8F883A6
:103590000320FBE70320F9E730B583B0044600239E
:1035A000C0F89030FFF730FA05462268126812F032
:1035B000080F10D123681B6813F0040F28D12023B3
:1035C000C4F88830C4F88C300020E066206784F8A6
:1035D000840003B030BD6FF07E43009303460022A9
:1035E0004FF400112046FFF78CFF0028E2D022683C
:1035F00052E8003F23F0800342E800310029F6D171
:103600002023C4F88830002384F884300320E0E7C6
:103610006FF07E4300932B4600224FF4800120463A
:10362000FFF76FFF0028CAD0226852E8003F23F45A
:10363000907342E800310029F6D1226802F10803B4
:1036400053E8003F23F00103083242E8003100292B
:10365000F3D12023C4F88C30002384F88430032075
:10366000B7E778B310B50446D0F888300BB32423FD
:10367000C4F888302268136823F0010313602046E1
:10368000FFF7E0FB012813D0A36ABBB92268536897
:1036900023F4904353602268936823F02A039360D5
:1036A0002268136843F0010313602046FFF774FF9C
:1036B00010BD80F88430FDF76FF8D8E72046FFF79B
:1036C000BBFEE3E701207047436E2BB90123A0F84E
:1036D0006A30A0F86830704730B403689A68C2F363
:1036E00042629968490F094D6B5C1B01084C615C93
:1036F00093FBF1F3A0F86A30AB5C1B01A25C93FB77
:10370000F2F3A0F8683030BC704700BF18620008C0
:103710001062000890F88430012B18D0012380F843
:1037200084302423C0F8883003681A68196821F0AF
:103730000101196022F000520023436601680A600B
:103740002022C0F8882080F8843018467047022074
:10375000704738B590F88430012B1DD00446012302
:1037600080F884302423C0F8883003681D681A6804
:1037700022F001021A600268936823F06043194343
:103780009160FFF7A1FF23681D602023C4F88830F3
:10379000002084F8840038BD0220FCE738B590F89A
:1037A0008430012B1DD00446012380F8843024236B
:1037B000C0F8883003681D681A6822F001021A6098
:1037C0000268936823F0606319439160FFF77CFF00
:1037D00023681D602023C4F88830002084F884000A
:1037E00038BD0220FCE770B58AB0002800F0978051
:1037F0000546046890F8BD343BB3032385F8BD3417
:10380000E36B13F4807F01D10023EB60286800F0A4
:1038100013F92C4654F8106BEC460FCCACE80F00B3
:103820000FCCACE80F0094E803008CE803002B1DDC
:103830000ECB304600F0B2F8044658B1022385F8AA
:10384000BD34012420460AB070BD80F8BC34FCF7BA
:10385000EFFFD2E70021286800F020FA234616E0A7
:1038600003EBC30205EB8202012182F83D1082F8CE
:103870003C30A2F85630002182F840105164916427
:1038800003EBC30205EB8202D1640133DBB269684A
:103890008B42E5D316E004EBC40305EB830300225F
:1038A00083F87D2283F87C4283F88022C3F8842247
:1038B000C3F8882204EBC40305EB8303C3F88C220E
:1038C0000134E4B2A142E6D82C4654F8106BEC4621
:1038D0000FCCACE80F000FCCACE80F0094E803006D
:1038E0008CE803002B1D0ECB304600F001F9044696
:1038F00060B9002385F83830012385F8BD346B6A40
:10390000012B08D0286800F0B7F99BE7022385F85F
:10391000BD34012496E7284600F004F8F2E70124BC
:1039200090E70000034602680121C0F8001500205E
:1039300083F8F404936943F000639361516D024B83
:103940000B435365704700BF0300001082B0002393
:103950000193019B01330193019A0F4B9A4215D8B1
:103960000369002BF5DA00230193036943F0010397
:103970000361019B01330193019A074B9A4208D8D6
:10398000036913F0010FF4D1002000E0032002B01E
:1039900070470320FBE700BF400D030084B010B563
:1039A000044603A880E80E00089B012B1DD1A36BE1
:1039B00023F48033A363E2681D4B1340E360E368A4
:1039C00023F44013E3600F9B012B09D02046FFF73F
:1039D000BDFF059B012B1BD0BDE8104004B0704714
:1039E000E36843F48013E360F0E7E36843F04003E7
:1039F000E3602046FFF7AAFF0C9B23B9A36B43F4B7
:103A00008033A363E5E7A36B23F48033A363E0E78C
:103A1000E36D9BB2E365E26D064B1343E365A36878
:103A200043F00603A360A36843F02003A360D3E739
:103A3000BFFFBDFF0000EE03836823F00103836036
:103A40000020704782B000230193019B0133019352
:103A5000019A0F4B9A4215D80369002BF5DA00231F
:103A60000193890141F020010161019B0133019320
:103A7000019A074B9A4208D8036913F0200FF4D13A
:103A8000002000E0032002B070470320FBE700BFE6
:103A9000400D030082B000230193019B0133019389
:103AA000019A0E4B9A4213D80369002BF5DA0023D2
:103AB000019310230361019B01330193019A074B8A
:103AC0009A4208D8036913F0100FF4D1002000E0E7
:103AD000032002B070470320FBE700BF400D030046
:103AE000D0F800381943C0F80018002070470000D3
:103AF00084B02DE9F041044607A880E80E000023B9
:103B000006E003F1400204EB820200215160013320
:103B10000E2BF6D9119F27BBD4F8043843F00203CB
:103B2000C4F80438A36B23F40013A363236843F0A1
:103B300040032360236843F0800323600023C4F81C
:103B4000003E04F50065D4F80038C4F800380C9B3A
:103B5000012B10D10A9B4BB900212046FFF7C0FF73
:103B60000DE0A36B43F40013A363E7E701212046B4
:103B7000FFF7B6FF03E003212046FFF7B1FF102156
:103B80002046FFF75FFF804608B14FF0010820464E
:103B9000FFF780FF08B14FF0010800232B616B6134
:103BA000EB610AE0C3B94FF00060C2F800090022DF
:103BB0000A614FF67F328A6001330799994210D922
:103BC00004EB431202F51061D2F800090028E9DB8A
:103BD0000020C2F80009EAE74FF09040C2F800095F
:103BE000E5E700230AE0C3B14FF0904CC2F800CBE8
:103BF000002202614FF67F3282600133994211D96F
:103C000004EB431202F53060D2F8006B002EEADBC1
:103C10004FF0000CC2F800CBEAE74FF0006CC2F89E
:103C200000CBE5E72B6923F480732B610023A361AC
:103C30006FF080436361099B1BB9A36943F01003D4
:103C4000A361A2690A4B1343A3610D9B1BB1A36936
:103C500043F00803A361012F04D04046BDE8F041C2
:103C600004B07047A269034B1343A361F5E700BF9B
:103C700000383C8004000040D0F8003E23F00303ED
:103C8000C0F8003ED0F8043843F00203C0F804380E
:103C900000207047406900F00100704738B50546C4
:103CA000C36823F0C043C360012913D019BBC368A4
:103CB00043F08043C36000240120FEF7ABFE0134D3
:103CC0002846FFF7E7FF08B1312CF5D9322C14D084
:103CD000002038BDC36843F00053C36000240120B6
:103CE000FEF798FE01342846FFF7D4FF0128EDD0F7
:103CF000312CF4D9EAE70120EBE70120E9E70000E5
:103D00002D4BD3F8882042F47002C3F888201A693A
:103D100042F010021A61294B1B6803F00F03062BB7
:103D200006D8264A136823F00F0343F007031360F5
:103D3000234B1A6842F001021A6000221A611968C6
:103D4000204A0A401A601D4B1B6813F0080F06D06A
:103D50001A4A136823F00F0343F007031360184B4C
:103D600000229A61DA611A62174999621749D96289
:103D7000174919635A639963DA6319645A641968B5
:103D800021F4802119601A664FF0B042D2F8E43075
:103D900043F48043C2F8E4300E4B1A680E4B1340D4
:103DA000B3F1005F03D20D4B0122C3F808210C4B85
:103DB00043F2D2021A60704700ED00E0002000528A
:103DC000004402587FEDF6EA000202020000FF0103
:103DD000800201010010005C0000FFFF0080005124
:103DE000004000520F2801D90120704710B58AB059
:103DF0000446002201461920FCF7CAFD1920FCF7F1
:103E0000D7FD174B1C60174BD3F8F02042F001028E
:103E1000C3F8F020D3F8F03003F001030093009BC7
:103E200001A902A8FDF7ACFBFDF798FB0E4BA3FB25
:103E300000239B0C013B0D480D4A026040F2E73223
:103E4000C2604360002303618360FEF79BFF10B1F3
:103E500001200AB010BD0548FEF7F8FDF9E700BFE4
:103E6000040000200044025883DE1B43FC050020B0
:103E70000000014038B5044603680A4ADA60FEF7DC
:103E8000C3FD05462368DB6813F0200F07D1FEF75A
:103E9000BBFD401BB0F57A7FF4D9032000E0002081
:103EA00038BD00BF5FFF030070B50368DA6812F029
:103EB000400F02D00025284670BD04464FF0FF3267
:103EC000DA60FEF7A1FD064600252368DB6813F0E3
:103ED000400FF0D1032DEED0FEF796FD831BB3F516
:103EE0007A7FF2D9032584F82150EEE710B5044615
:103EF000104BDA6822F04002DA609B6813F0200F62
:103F000006D1FFF7B7FF98B1032084F821000FE036
:103F1000084A936823F020039360FFF7ABFF10B1CA
:103F2000032084F82100034A936843F02003936040
:103F300010BD00BF0040005800284BD038B50446E3
:103F400090F8213063B1022384F821302368DA68C5
:103F500012F0100F09D00020012384F8213038BD61
:103F600080F82030FCF7F0FBEDE7CA225A622368A4
:103F700053225A622046FFF797FF28B12368FF2299
:103F80005A620028EBD1E7E722689168124B0B4098
:103F9000936021688A68636820690343A0690343CA
:103FA00013438B60A168E368226843EA014313610D
:103FB0002046FFF79BFF0028E0D12268D36C23F056
:103FC0000303D3642168CB6CE26965692A43134318
:103FD000CB64D3E701207047BFFF8FFF002302E0CF
:103FE00001330A38C0B20928FAD81B01DBB21843E2
:103FF0007047000090F82030012B5BD070B504466C
:104000000D461646012380F82030022380F8213027
:104010000368CA225A62036853225A62FFF744FFB8
:1040200058BB002E34D123689B6813F0400F01D198
:104030000023EB702878FFF7D1FF06046878FFF7BC
:10404000CDFF46EA0026A878FFF7C8FF3043EB789B
:1040500040EA83502268184B03401360226893683B
:1040600023F48023936021688B68EA6828690243FF
:1040700013438B602046FFF739FF2368FF225A6203
:1040800010B9012384F82130002384F8203070BD5A
:1040900023689B6813F0400F01D10023EB702B784D
:1040A0006878000240EA0340AB781843EB7840EAB6
:1040B0008350CFE7022070477F7F7F0090F8203049
:1040C000012B49D070B504460E46012380F82030FC
:1040D000022380F82130F2B1CB784D782D0245EAE9
:1040E00003458B781D430B7845EA43352368CA2284
:1040F0005A62236853225A622046FFF7D5FE18B34E
:104100002368FF225A6210B9012384F8213000236A
:1041100084F8203070BD4B7813F0100F03D003F0FB
:10412000EF030A334B70F078FFF758FF05047078FF
:10413000FFF754FF45EA0025B078FFF74FFF05432E
:10414000337845EA4335D1E72268044B2B4053606E
:104150002046FFF7CBFED3E7022070473FFFFF006A
:1041600000F1080343604FF0FF328260C3600361D7
:1041700000230360704700230361704743684B606E
:104180009A688A605160996008610368013303602E
:10419000704730B40D68B5F1FF3F11D000F108034E
:1041A0001C465B681A68AA42FAD963684B6099603A
:1041B0008C606160086103680133036030BC704744
:1041C0000469F2E70369416882688A604168516066
:1041D0005A68824206D0002202611A68013A1A60C7
:1041E0001868704782685A60F5E710B5044601F018
:1041F000C9FCA26BE36B9A4204D0002401F0E4FCFA
:10420000204610BD0124F9E710B5044601F0BAFCC0
:10421000A36B23B9012401F0D7FC204610BD002474
:10422000F9E770B504461546866B026C5AB9036807
:104230001BB100200136A66370BD806800F0DEFF70
:104240000023A360F6E76DB9406801F045FE63689E
:10425000226C13446360A268934219D3236863609D
:104260002846E7E7C06801F037FEE368226C514258
:104270009B1AE3602268934202D2A3680B44E36076
:10428000022D01D00020D5E726B1013E0020D1E764
:104290002846CFE70020CDE70346026C6AB110B58F
:1042A0000846D9681144D9609C68A14201D31968B5
:1042B000D960D96801F010FE10BD704738B50546C9
:1042C00001F060FC95F8454064B201E0013C64B245
:1042D000002C0ADD6B6A43B105F1240000F0E4FE16
:1042E0000028F3D000F074FFF0E7FF2385F8453095
:1042F00001F06AFC01F046FC95F8444064B201E02C
:10430000013C64B2002C0ADD2B6943B105F11000B9
:1043100000F0CAFE0028F3D000F05AFFF0E7FF23B8
:1043200085F8443001F050FC38BD38B5E0B10D4699
:10433000044601F027FC2368E26B216C01FB02308C
:10434000A0600020A0636360013A02FB0133E360D8
:10435000FF2384F8443084F84530FDB9236963B9FC
:1043600001F032FC012038BD4FF0500383F3118877
:10437000BFF36F8FBFF34F8FFEE704F1100000F023
:1043800093FE0028ECD04FF0E0234FF08052C3F8AA
:10439000042DBFF34F8FBFF36F8FE1E704F11000DF
:1043A000FFF7DEFE04F12400FFF7DAFED8E738B5A8
:1043B0001D46049C0B4649B92460E0632364012137
:1043C0002046FFF7B2FF84F84C5038BD2260F4E776
:1043D00040B94FF0500383F31188BFF36F8FBFF3E1
:1043E0004F8FFEE710B584B01C4683B10B1E18BF7B
:1043F0000123002A08BF43F001038BB94FF050039B
:1044000083F31188BFF36F8FBFF34F8FFEE74FF039
:10441000500383F31188BFF36F8FBFF34F8FFEE715
:10442000B1FA81F35B09002A18BF43F0010343B9D5
:104430004FF0500383F31188BFF36F8FBFF34F8F9B
:10444000FEE750230393039B502B08D04FF05003FB
:1044500083F31188BFF36F8FBFF34F8FFEE7039B8A
:10446000012384F8463000949DF81830FFF79FFF31
:10447000204604B010BDF0B585B0019288B10F465A
:104480001D460446B1B1022D20D1E36B012B1DD096
:104490004FF0500383F31188BFF36F8FBFF34F8F3B
:1044A000FEE74FF0500383F31188BFF36F8FBFF324
:1044B0004F8FFEE7036C002BE5D04FF0500383F3E2
:1044C0001188BFF36F8FBFF34F8FFEE700F086FEBA
:1044D000064658B9019B002B48D04FF0500383F398
:1044E0001188BFF36F8FBFF34F8FFEE700263DE0CB
:1044F0002A4639462046FFF794FE636A7BB948B1E5
:104500004FF0E0234FF08052C3F8042DBFF34F8FDC
:10451000BFF36F8F01F058FB012005B0F0BD04F12F
:10452000240000F0C1FD0028F4D04FF0E0234FF04C
:104530008052C3F8042DBFF34F8FBFF36F8FE9E7AD
:1045400001F042FB0020E8E702A800F0F3FD01269D
:1045500019E0002384F8443021E0002384F845303A
:1045600023E02046FFF7AAFE00F07CFC01F00AFBE6
:10457000A26BE36B9A42BBD3022DB9D0019B002BF7
:10458000DED0002EE0D001F01FFB00F0D1FB01F0E7
:10459000F9FA94F8442052B2B2F1FF3FD9D094F81E
:1045A000452052B2B2F1FF3FD7D001F00DFB01A977
:1045B00002A800F0CBFDD8B92046FFF716FE002870
:1045C000CFD0019904F1100000F03AFD2046FFF72A
:1045D00075FE00F047FC0028C8D14FF0E0234FF0F3
:1045E0008052C3F8042DBFF34F8FBFF36F8FBDE729
:1045F0002046FFF763FE00F035FC00208DE72DE933
:10460000F84390B10F4616461C460546B1B1022C40
:1046100020D1EB6B012B1DD04FF0500383F3118899
:10462000BFF36F8FBFF34F8FFEE74FF0500383F35D
:104630001188BFF36F8FBFF34F8FFEE7036C002B22
:10464000E5D04FF0500383F31188BFF36F8FBFF3B2
:104650004F8FFEE701F0BCFBEFF311884FF05003E2
:1046600083F31188BFF36F8FBFF34F8FAA6BEB6B90
:104670009A4206D3022C04D0002088F31188BDE8AA
:10468000F88395F845904FFA89F9AB6B2246394685
:104690002846FFF7C6FDB9F1FF3F06D009F1010337
:1046A0005BB285F845300120E7E76B6A0BB9012062
:1046B000E3E705F1240000F0F7FC18B126B1012072
:1046C0003060DAE70120D8E70120D6E7F0B585B001
:1046D000019290B10F460446C1B100F07FFD06463D
:1046E00000BB019B002B5ED04FF0500383F3118879
:1046F000BFF36F8FBFF34F8FFEE74FF0500383F38D
:104700001188BFF36F8FBFF34F8FFEE7036C002B51
:10471000E3D04FF0500383F31188BFF36F8FBFF3E3
:104720004F8FFEE700263EE039462046FFF7B4FDF6
:10473000013DA563236923B901F046FA012005B0C4
:10474000F0BD04F1100000F0AFFC0028F4D04FF0F1
:10475000E0234FF08052C3F8042DBFF34F8FBFF317
:104760006F8FE9E701F030FA0020E8E702A800F0D7
:10477000E1FC012621E0002384F8443029E00023F5
:1047800084F845302BE02046FFF798FD00F06AFBE7
:1047900009E02046FFF792FD00F064FB2046FFF79A
:1047A00033FD00283FD101F0EDF9A56B002DBBD101
:1047B000019B002BD6D0002ED8D001F005FA00F0D6
:1047C000B7FA01F0DFF994F844305BB2B3F1FF3F80
:1047D000D1D094F845305BB2B3F1FF3FCFD001F0B8
:1047E000F3F901A902A800F0B1FC0028D1D12046BC
:1047F000FFF70AFD0028C6D0019904F1240000F05B
:104800001FFC2046FFF75AFD00F02CFB0028CAD100
:104810004FF0E0234FF08052C3F8042DBFF34F8FC9
:10482000BFF36F8FBFE7002089E700000023072B4D
:104830000CD8074A52F833200AB10133F7E7044A8B
:1048400042F8331002EBC30250607047704700BF5C
:104850004806002070B504460D46164601F092F950
:1048600094F844305BB2B3F1FF3F0DD094F845307B
:104870005BB2B3F1FF3F0BD001F0A6F9A36B5BB1C4
:104880002046FFF71BFD70BD002384F84430EDE7A0
:10489000002384F84530EFE73246294604F124002E
:1048A00000F0E6FBECE70000084B1B681B6823B92F
:1048B000074B4FF0FF321A607047044B1B68DB68F0
:1048C000DB685A68024B1A60704700BFF806002088
:1048D000900600202DE9F04780460D461746994680
:1048E000089EDDF824A00A9C9200A521206B01F00F
:1048F000C6FA236B6FF040423A4403EB820727F07D
:104900000707A5B34FF0000CBCF10F0F09D815F83D
:104910000C3004EB0C0282F8343013B10CF1010CB2
:10492000F2E7002384F84330372E00D93726E662B9
:10493000E66400252565201DFFF71DFC04F1180025
:10494000FFF719FC2461C6F13806A661646265654B
:1049500084F858504A464146384601F0E7F820604E
:10496000BAF1000F01D0CAF80040BDE8F08700237B
:1049700084F83430D8E7000038B5002407E004EBB1
:10498000840293000E481844FFF7EAFB0134372CE9
:10499000F5D90C4D2846FFF7E3FB0B4C2046FFF7FB
:1049A000DFFB0A48FFF7DCFB0948FFF7D9FB0948A2
:1049B000FFF7D6FB084B1D60084B1C6038BD00BFDD
:1049C0002407002010070020FC060020E00600203D
:1049D000CC060020B4060020F8060020F4060020D3
:1049E00010B5044601F0CEF8224A13680133136073
:1049F000214B1B685BB1214B1B686BB91E4B1B68BD
:104A0000DA6AE36A9A4207D81B4B1C6004E01A4B2F
:104A10001C601368012B29D0194A136801331360F5
:104A20006364E06A174B1B68984201D9154B186004
:104A300000EB8000211D144B03EB8000FFF79EFB71
:104A400001F0C2F80D4B1B687BB10B4B1B68DA6A97
:104A5000E36A9A4209D24FF0E0234FF08052C3F844
:104A6000042DBFF34F8FBFF36F8F10BDFFF784FF8F
:104A7000D2E700BFB0060020840B0020A40600206F
:104A800094060020A80600202407002010B5044644
:104A900090F8593063B1012B11D0022B0ED04FF09A
:104AA000500383F31188BFF36F8FBFF34F8FFEE77F
:104AB000006B00F0BFFF204600F0BCFF10BD00F00F
:104AC000B9FFFBE70F4B1B68D3B110B501F05AF8E3
:104AD0000D4BDB68DC68201DFFF774FB0B4A136885
:104AE000013B1360074A1368013B136001F06CF847
:104AF0002046FFF7CBFF034B1B68002BE6D110BD10
:104B0000704700BFC8060020CC060020B006002079
:104B100008B5FFF7D7FF074B1B68012BF9D94FF0FA
:104B2000E0234FF08052C3F8042DBFF34F8FBFF343
:104B30006F8FEEE72407002070B504460D46194B31
:104B40001E68194B18680430FFF73CFBB4F1FF3FB7
:104B500014BF00230123002D08BF00236BB9344488
:104B6000114B1B685C60A6420ED9104B18680E4BA7
:104B700019680431FFF70DFB70BD0B4B1968043148
:104B80000B48FFF7FBFAF7E70A4B1868064B196862
:104B90000431FFF7FEFA084B1B68A342ECD9064B21
:104BA0001C60E9E7AC060020840B0020F40600201E
:104BB000B4060020F80600209006002030B587B02B
:104BC0000B9C7CB10C9DB5B15C250495049D5C2DBE
:104BD0001AD04FF0500383F31188BFF36F8FBFF3E8
:104BE0004F8FFEE74FF0500383F31188BFF36F8FB1
:104BF000BFF34F8FFEE74FF0500383F31188BFF3ED
:104C00006F8FBFF34F8FFEE7049D0C9D2C63022432
:104C100085F8594000240394029505AC01940A9C40
:104C20000094FFF757FE0C98FFF7DAFE059807B0DF
:104C300030BD2DE9F04385B00746884614461E4630
:104C4000900000F075FE08B381465C2000F070FE15
:104C50000546A8B1C0F83090002380F8593003937E
:104C600002900D9B01930C9B0093334622464146D4
:104C70003846FFF72FFE2846FFF7B2FE012007E077
:104C8000484600F0D7FE4FF0FF3001E04FF0FF3014
:104C900005B0BDE8F083000010B588B0002405948D
:104CA000069407AA06A905A800F0C6FD059B029375
:104CB000069B019300942346079A17491748FFF76C
:104CC0007DFF174B1860C0B100F050FB012815D1D3
:104CD0004FF0500383F31188BFF36F8FBFF34F8FF3
:104CE000104B4FF0FF321A600F4B01221A600F4B2E
:104CF00000221A6000F0E0FF03E00020B0F1FF3F67
:104D000001D008B010BD4FF0500383F31188BFF3FA
:104D10006F8FBFF34F8FFEE730620008114B000822
:104D20008C06002090060020A4060020AC0600207F
:104D3000024A136801331360704700BF88060020E1
:104D4000014B1868704700BFAC060020F8B53A4B1D
:104D50001B68002B69D1394B1D6801351D60C5B931
:104D6000374B1B681B6843B14FF0500383F3118826
:104D7000BFF36F8FBFF34F8FFEE7314A1168314B9E
:104D8000186810601960304A136801331360FFF728
:104D90008BFD2E4B1B68AB423DD900272C4B1B686B
:104DA000DB6A03EB83039A002A4B9B58012B00D943
:104DB0000127294B1B68002B3CD001273AE0012733
:104DC0001F4B1B681B6843B31D4B1B68DB68DC680B
:104DD00063689D4226D3261D3046FFF7F3F9A36A88
:104DE0001BB104F11800FFF7EDF9E36A1B4A1268E2
:104DF000934201D9194A136003EB83039A003146A9
:104E000014481044FFF7BAF9E26A114B1B68DB6AD9
:104E10009A42D4D2D4E70027D2E70C4B4FF0FF32AE
:104E20001A60BBE7094A1360B8E70D4A13680133FB
:104E3000136000273846F8BD88060020AC06002025
:104E4000F8060020F40600209806002090060020B6
:104E5000840B0020240700209C060020A8060020C8
:104E6000A006002038B5354B1B6843B94FF05003FE
:104E700083F31188BFF36F8FBFF34F8FFEE700F00E
:104E800081FE2E4B1A68013A1A601B68002B4FD125
:104E90002B4B1B680BB900244BE00024294B1B68EB
:104EA0001BB3284BDB68DC6804F11800FFF78AF9B4
:104EB000251D2846FFF786F9E06A234B1B689842B8
:104EC00001D9214B186000EB800029461F4B03EBF2
:104ED0008000FFF753F9E26A1D4B1B68DB6A9A42B8
:104EE000DCD31C4B01221A60D8E70CB1FFF7DCFCC5
:104EF000194B1C6884B9174B1C68D4B14FF0E023E0
:104F00004FF08052C3F8042DBFF34F8FBFF36F8F64
:104F100001240EE0013C07D0FFF718FF0028F9D06C
:104F20000C4B01221A60F5E70B4B00221A60E2E7F6
:104F3000002400F049FE204638BD00BF880600204E
:104F4000B0060020E0060020A8060020240700206C
:104F5000840B00209C060020A006002010B5A8B1FC
:104F60000446104B1B6843B14FF0500383F3118884
:104F7000BFF36F8FBFF34F8FFEE7FFF7D9FE00211E
:104F80002046FFF7D9FDFFF76DFF48B94FF0E0234A
:104F90004FF08052C3F8042DBFF34F8FBFF36F8FD4
:104FA00010BD00BF88060020204B1B681BB1204BA2
:104FB00001221A6070471E4B00221A601D4B1B68AD
:104FC00003EB83018A001C498A585AB90BB1013B93
:104FD000F6E74FF0500383F31188BFF36F8FBFF3F1
:104FE0004F8FFEE7084603EB83018A0002445168B5
:104FF0004968516003EB830C4FEA8C02083202448B
:1050000091420BD003EB830291000B4A0A44526891
:10501000D1680A4A1160074A1360704748686246BF
:105020009100054A0A445060ECE700BF8806002062
:105030009C060020A806002024070020840B0020E6
:1050400058B110B50C46094A11681831FFF7A1F89C
:1050500001212046FFF770FD10BD4FF0500383F390
:105060001188BFF36F8FBFF34F8FFEE7840B0020D3
:1050700038B570B10D4614460A4A11681831FFF769
:105080007DF80CB14FF0FF3521462846FFF754FD5F
:1050900038BD4FF0500383F31188BFF36F8FBFF318
:1050A0004F8FFEE7840B002038B5C368DC6824B35B
:1050B00004F118052846FFF785F8184B1B682BBB31
:1050C000251D2846FFF77EF8E06A154B1B689842BD
:1050D00001D9134B186000EB80002946114B03EBFC
:1050E0008000FFF74BF8E26A0F4B1B68DB6A9A42BD
:1050F00011D901200D4B186038BD4FF0500383F3D8
:105100001188BFF36F8FBFF34F8FFEE72946084822
:10511000FFF734F8E7E70020EEE700BF880600203D
:10512000A806002024070020840B00209C060020F5
:10513000E0060020034B1B680360034B1B684360C1
:10514000704700BF98060020AC060020F8B5C8B133
:105150000C460546F9B100F015FD1B4B19686B684C
:10516000C81A2268B2F1FF3F26D0184E36682F6861
:10517000B74201D08B4224D9824215D80023236044
:1051800001241AE04FF0500383F31188BFF36F8FAF
:10519000BFF34F8FFEE74FF0500383F31188BFF347
:1051A0006F8FBFF34F8FFEE75B1A134423602846CF
:1051B000FFF7C0FF002400E0002400F005FD2046BA
:1051C000F8BD0124F9E700BFAC06002098060020D6
:1051D000014B01221A6070479C060020054B1B689A
:1051E00033B1054B1B680BB100207047022070479C
:1051F00001207047A40600208806002000283BD02C
:1052000038B504461E4B1B68834208D04FF050034C
:1052100083F31188BFF36F8FBFF34F8FFEE7036DEA
:1052200043B94FF0500383F31188BFF36F8FBFF37F
:105230004F8FFEE7013B0365C16AC26C91421DD0EE
:105240000BB1002038BD051D2846FEF7BBFFE06C02
:10525000E062C0F13803A3610A4B1B68984201D990
:10526000084B186000EB80002946074B03EB8000D9
:10527000FEF784FF0120E5E7002070470020E1E70A
:10528000840B0020A806002024070020064B1A6883
:1052900013682BB90123036023B9D36818687047DA
:1052A0000023F8E700207047880C002008B5416013
:1052B000006191420CD8D21A83699A4201D301202D
:1052C00008BD011D0B4B1868FEF763FF0020F7E7D0
:1052D0009A422CBF00220122994238BF00220AB113
:1052E0000120EDE7011D044B1868FEF752FF002076
:1052F000E6E700BF840C0020880C002030B583B0A6
:1053000000F040FC114B1B681BB100F05DFC03B0CA
:1053100030BD0F4D2846FEF723FF0E4C2046FEF70A
:105320001FFF0D4B1D600D4B1C60002300930C4BA9
:105330000C4A10210A20FFF74BF8044B1860002894
:10534000E3D00949FFF772FADFE700BF800C0020C5
:10535000A00C00208C0C0020880C0020840C002065
:10536000880B0020D80B00203862000810B588B0E8
:10537000FFF7C4FF124B1B68CBB1002405940694C1
:1053800007AA06A905A800F063FA059B0293069BED
:105390000193022300932346079A0A490A48FFF71C
:1053A0000DFC0A4B186010B1012008B010BD4FF081
:1053B000500383F31188BFF36F8FBFF34F8FFEE766
:1053C000800C002040620008D55600087C0C0020AC
:1053D000B8B19C4603461848006858B300B585B07C
:1053E00000910192029305291CDCFFF7F7FE0228C9
:1053F00010D000231A4669460F480068FFF73BF8B3
:1054000015E04FF0500383F31188BFF36F8FBFF3A4
:105410004F8FFEE70023069A694607480068FFF7AA
:105420002AF804E0002362466946FFF7E8F805B071
:105430005DF804FB00207047800C002070B582B03E
:105440001B4B1B681A6862B3DB681E68DC68251D8D
:105450002846FEF7B7FE236A2046984794F828307E
:1054600013F0040FECD0A36933449E4207D263606B
:10547000246129460E4B1868FEF78BFEE0E70021F9
:1054800000910B4632462046FFF7A2FF0028D7D1F5
:105490004FF0500383F31188BFF36F8FBFF34F8F2B
:1054A000FEE7044A106802490860136002B070BD4C
:1054B000880C0020840C002038B50546FFF740FC1E
:1054C0000446074B1B68834205D800232B60044B1E
:1054D0001C60204638BDFFF7B1FF01232B60F6E7C3
:1054E000780C002070B582B006460D461749096851
:1054F000C968CC68201DFEF765FE94F828C01CF032
:10550000040F08D12CF0010C84F828C0236A20462F
:10551000984702B070BDA16933462A4631442046FF
:10552000FFF7C4FE0028F1D0002100910B4632465F
:105530002046FFF74DFF0028E8D14FF0500383F3DA
:105540001188BFF36F8FBFF34F8FFEE7880C0020E9
:1055500070B582B006460C46FFF7EAFB01A8FFF7DC
:10556000ABFF019B3BBB0546B04228BF002C19D0C6
:1055700024B1134A12681268DAB901242246711B59
:10558000104B1868FFF766F9FFF76CFCA8B94FF0ED
:10559000E0234FF08052C3F8042DBFF34F8FBFF3C9
:1055A0006F8F0AE0FFF75EFC29463046FFF79AFF4F
:1055B00003E01C46E2E7FFF755FC02B070BD00BFF8
:1055C000840C0020800C002010B588B002E0049B01
:1055D000002B0FDA002204A93D4B1868FFF776F87C
:1055E000002873D0049B002BF1DA07990698059BDD
:1055F0009847ECE7069C636913B1201DFEF7E2FDB6
:1056000003A8FFF759FF049B092BE3D8DFE803F059
:105610000505053037500505303794F8283043F03C
:10562000010384F82830059BA169024619442046ED
:10563000FFF73CFE0028CDD0236A2046984794F817
:10564000283013F0040FC5D0A269002100910B4649
:10565000059802442046FFF7BBFE0028BAD14FF060
:10566000500383F31188BFF36F8FBFF34F8FFEE7B3
:1056700094F8283023F0010384F82830AAE794F83E
:10568000283043F0010384F828300599A16131B135
:105690000346024601442046FFF708FE9AE74FF012
:1056A000500383F31188BFF36F8FBFF34F8FFEE773
:1056B00094F8283013F0020F04D023F0010384F88B
:1056C000283087E7204600F0B5F983E708B010BD21
:1056D000800C002000B583B001A8FFF7D7FD019929
:1056E000FFF736FFFFF770FFF6E708B54FF0E0234E
:1056F0001B69FFF773FD012800D108BD00F0B2FA65
:10570000FBE70000EFF305832BB9064B186828B9B7
:1057100001221A6070476FF0050070474FF0FF30AC
:10572000704700BF6C130020EFF3058373B90A4B79
:105730001B68012B0DD110B50024084BDC77064BFC
:1057400002221A60FFF7A8FA204610BD6FF005008C
:1057500070474FF0FF3070476C13002000ED00E001
:10576000F0B587B000240594EFF3058474BB68B3EB
:1057700022B31568936903B918235C1E372C49D8E6
:10578000546814F0010F47D156696EB14FEA960C78
:1057900094682CB1D7685B2F02D9176907B1C6B9D5
:1057A0002CB14FF0FF340EE04FF0800CF0E7D468DE
:1057B0008CB9146994B14FF0FF3404E0154600240D
:1057C00018234FF0800C012C0AD0ACB1059807B01B
:1057D000F0BD0124F7E74FF0FF34F4E70024F2E7CF
:1057E000146992680292019400930B46624629461E
:1057F000FFF7E4F90590E9E705AA019200930B464B
:105800001FFA8CF22946FFF714FA0128DED0002394
:105810000593DBE70020DAE70020D8E708B5EFF3CF
:10582000058333B908B9002008BDFFF797FB0020B6
:10583000FAE76FF00500F7E7034B0360034B0B60DB
:1058400080231360704700BF101300201011002048
:10585000034B0360034B0B604FF48073136070477E
:10586000B4100020B40C0020124A12F0070F1ED012
:10587000D11D21F00701C1F5705313440A460E48AB
:105880000260002141601344083B23F007030B48EA
:10589000036059601960991A51601360084B1960D0
:1058A000084B1960084B4FF000421A6070474FF4E4
:1058B0007053E4E790130020881300208413002025
:1058C0007C1300208013002070130020164B1A4612
:1058D0001B688342FBD3516802EB010C844509D05D
:1058E000416800EB010C634509D00360904219D078
:1058F000106070474068014451601046F0E710B4F2
:105900000A4C2468A3420BD05B68194441601368B9
:105910001B680360904200D010605DF8044B704734
:105920000460F7E7704700BF88130020841300204D
:1059300038B50446FFF7FCF9384B1B68B3B1384B58
:105940001B681C4250D1002C50D004F1080214F006
:10595000070F02D022F007020832002A55D0314B3F
:105960001B68934253D330490C6804E0FFF77CFF77
:10597000E5E721461C466368934202D22368002B68
:10598000F7D1264B1B68A34243D00D680835236826
:105990000B6063689B1A102B10D9A01810F0070F2A
:1059A00008D04FF0500383F31188BFF36F8FBFF31C
:1059B0004F8FFEE743606260FFF788FF6268194916
:1059C0000B689B1A0B60194909688B4201D2174971
:1059D0000B60134B1B681343636000232360144A5E
:1059E00013680133136002E0002500E00025FFF793
:1059F00039FA15F0070F0ED04FF0500383F31188DA
:105A0000BFF36F8FBFF34F8FFEE70025EFE7002551
:105A1000EDE70025EBE7284638BD00BF84130020E2
:105A20007013002080130020881300207C130020B6
:105A300078130020002834D038B50446A0F10805BA
:105A400050F8043C174A1268134208D14FF0500333
:105A500083F31188BFF36F8FBFF34F8FFEE750F8CA
:105A6000081C41B14FF0500383F31188BFF36F8FCF
:105A7000BFF34F8FFEE723EA020340F8043CFFF731
:105A800057F954F8041C084A13680B44136028465D
:105A9000FFF71CFF054A136801331360FFF7E2F9B3
:105AA00038BD70477013002080130020741300204D
:105AB00082B0002301930D4B1B68B3F1FF3F08D068
:105AC0004FF0500383F31188BFF36F8FBFF34F8FF5
:105AD000FEE74FF0500383F31188BFF36F8FBFF3DE
