:020000040800F2
:10000000000002200D780008690900086B0900084B
:100010006D0900086F090008710900080000000060
:100020000000000000000000000000004175000812
:100030007309000800000000E1750008D370000893
:100040005D7800085D7800085D7800085D7800083C
:100050005D7800085D7800085D7800085D7800082C
:100060005D7800085D7800085D7800087509000873
:10007000850900085D7800085D7800085D78000853
:100080005D7800085D7800085D7800085D780008FC
:100090005D7800085D7800085D7800085D780008EC
:1000A0005D780008950900085D7800085D78000813
:1000B0005D7800085D7800085D7800085D780008CC
:1000C0005D7800085D7800085D7800085D780008BC
:1000D0005D7800085D7800085D780008A5090008D3
:1000E0005D7800085D780008000000005D78000879
:1000F0005D7800085D7800085D7800085D7800088C
:100100005D7800085D7800085D7800085D7800087B
:100110005D7800085D7800085D7800085D7800086B
:100120005D7800085D7800085D7800085D7800085B
:100130005D7800085D7800085D7800085D7800084B
:100140005D7800085D7800080000000000000000F5
:100150005D7800085D7800085D7800085D7800082B
:100160005D7800085D7800085D7800085D7800081B
:100170005D7800085D7800085D7800085D7800080B
:100180005D7800085D7800085D7800085D780008FB
:100190005D7800085D7800085D7800085D780008EB
:1001A0005D7800085D7800085D7800085D780008DB
:1001B0005D7800085D7800085D7800085D780008CB
:1001C0005D7800085D7800085D7800085D780008BB
:1001D0005D7800085D7800085D7800085D780008AB
:1001E0005D7800085D7800085D7800085D7800089B
:1001F0005D7800085D7800085D7800085D7800088B
:100200005D7800085D7800085D7800085D7800087A
:100210005D7800085D7800085D7800085D7800086A
:100220005D7800085D7800085D7800080000000037
:100230005D7800085D7800085D7800085D7800084A
:100240005D7800085D7800085D7800085D7800083A
:100250005D7800085D7800085D7800085D7800082A
:100260005D7800085D7800085D7800085D7800081A
:100270005D7800085D7800085D7800085D7800080A
:100280005D7800085D7800085D78000800000000D7
:080290005D7800085D780008AC
:1002A00010B5054C237833B9044B13B10448AFF3B0
:1002B00000800123237010BD140000200000000006
:1002C000D478000808B5034B1BB103490348AFF3CA
:1002D000008008BD0000000018000020D47800084D
:1002E00053B94AB9002908BF00281CBF4FF0FF319D
:1002F0004FF0FF3000F074B9ADF1080C6DE904CE99
:1003000000F006F8DDF804E0DDE9022304B07047F0
:100310002DE9F047089D04468E46002B4DD18A42B8
:10032000944669D9B2FA82F252B101FA02F3C2F1EB
:10033000200120FA01F10CFA02FC41EA030E94407C
:100340004FEA1C48210CBEFBF8F61FFA8CF708FB9D
:1003500016E341EA034306FB07F199420AD91CEB75
:10036000030306F1FF3080F01F81994240F21C81A7
:10037000023E63445B1AA4B2B3FBF8F008FB1033EF
:1003800044EA034400FB07F7A7420AD91CEB040424
:1003900000F1FF3380F00A81A74240F207816444F4
:1003A000023840EA0640E41B00261DB1D440002379
:1003B000C5E900433146BDE8F0878B4209D9002DDD
:1003C00000F0EF800026C5E9000130463146BDE867
:1003D000F087B3FA83F6002E4AD18B4202D38242D1
:1003E00000F2F980841A61EB030301209E46002D80
:1003F000E0D0C5E9004EDDE702B9FFDEB2FA82F2D5
:10040000002A40F09280A1EB0C014FEA1C471FFA32
:100410008CFE0126200CB1FBF7F307FB131140EA19
:1004200001410EFB03F0884208D91CEB010103F1E6
:10043000FF3802D2884200F2CB804346091AA4B2A8
:10044000B1FBF7F007FB101144EA01440EFB00FE7C
:10045000A64508D91CEB040400F1FF3102D2A645E1
:1004600000F2BB800846A4EB0E0440EA03409CE780
:10047000C6F12007B34022FA07FC4CEA030C20FA2D
:1004800007F401FA06F31C43F9404FEA1C4900FA4D
:1004900006F3B1FBF9F8200C1FFA8CFE09FB1811CA
:1004A00040EA014108FB0EF0884202FA06F20BD93D
:1004B0001CEB010108F1FF3A80F08880884240F28D
:1004C0008580A8F102086144091AA4B2B1FBF9F0D1
:1004D00009FB101144EA014100FB0EFE8E4508D9CC
:1004E0001CEB010100F1FF346CD28E456AD9023851
:1004F000614440EA0840A0FB0294A1EB0E01A14236
:10050000C846A64656D353D05DB1B3EB080261EBA3
:100510000E0101FA07F722FA06F3F1401F43C5E97D
:10052000007100263146BDE8F087C2F12003D840B3
:100530000CFA02FC21FA03F3914001434FEA1C47F5
:100540001FFA8CFEB3FBF7F007FB10360B0C43EAE7
:10055000064300FB0EF69E4204FA02F408D91CEB97
:10056000030300F1FF382FD29E422DD90238634495
:100570009B1B89B2B3FBF7F607FB163341EA034135
:1005800006FB0EF38B4208D91CEB010106F1FF3884
:1005900016D28B4214D9023E6144C91A46EA00467B
:1005A00038E72E46284605E70646E3E61846F8E60D
:1005B0004B45A9D2B9EB020864EB0C0E0138A3E756
:1005C0004646EAE7204694E74046D1E7D0467BE737
:1005D000023B614432E7304609E76444023842E7AF
:1005E000704700BF30B58BB0002405940694079483
:1005F00008940994204BD3F8E02042F00402C3F899
:10060000E020D3F8E02002F004020192019AD3F82E
:10061000E02042F08002C3F8E020D3F8E02002F0AE
:1006200080020292029AD3F8E02042F00202C3F85C
:10063000E020D3F8E02002F002020392039AD3F8FC
:10064000E02042F00802C3F8E020D3F8E03003F0E5
:1006500008030493049B094D22460121284602F019
:100660004DFA0123059306930794089405A928469B
:1006700002F034F90BB030BD0044025800040258B7
:1006800000B583B00F4BD3F8D82042F00102C3F875
:10069000D820D3F8D83003F001030193019B002246
:1006A00005210B2000F06CFA0B2000F09FFA0022CD
:1006B00005210C2000F064FA0C2000F097FA03B03A
:1006C0005DF804FB0044025808B50121064802F019
:1006D0001BFA06220549064804F084F84FF47A70A4
:1006E00006F090FDF1E700BF00040258EC78000826
:1006F0004801002008B50268034B9A4200D008BDAB
:1007000003F042FEFBE700BF0000014072B6FEE7C7
:1007100008B51648164B03604FF4E13343600023DD
:100720008360C36003610C2242618361C361036221
:100730004362836204F005FF80B94FF000410B482B
:1007400004F07FFF60B94FF00061084804F09EFF9D
:1007500040B9064804F051FF30B908BDFFF7D6FF95
:10076000FFF7D4FFFFF7D2FFFFF7D0FF48010020CB
:100770000048004000B587B0002301930293039323
:100780000493059300931C481C4A026043607F2237
:100790008260FF22C26003618361C361436105F02F
:1007A000B9F810BB00238DF804308DF805308DF8B2
:1007B000063004930593012201A90F4805F008F9BA
:1007C000A8B901228DF8002003238DF801301323EE
:1007D0008DF8023024238DF803306946064805F071
:1007E0005BF930B907B05DF804FBFFF78FFFFFF747
:1007F0008DFFFFF78BFF00BF240100200040005851
:1008000000B59DB04C22002109A807F05BF820221A
:10081000002101A807F056F8042003F03DFD002355
:1008200000931E4BDA6A22F00102DA62DB6A03F0FF
:10083000010300931A4A936923F4404343F40043AD
:100840009361936903F440430093009B144B9B69AD
:1008500013F4005FFAD00A23099301230C9340227A
:100860000D920E930023129309A800F0CDF988B9D8
:100870003F2301930023029303930493059306936C
:1008800007930893012101A800F012FE20B91DB0C2
:100890005DF804FBFFF73AFFFFF738FF000400584C
:1008A0000048025800B583B04FF6FF7300E01346CE
:1008B000274A126812F4004F03D05A1E002BF6DCB0
:1008C0001346002B1ADB03F031FDFFF799FF204B95
:1008D000D3F8E02042F00072C3F8E020D3F8E03013
:1008E00003F000730193019B002002F017F900212F
:1008F000084602F023F94FF6FF7302E0FFF706FF08
:100900001346134A126812F4004F03D15A1E002BEB
:10091000F6DC1346002B18DBFFF764FEFFF7B0FE92
:10092000FFF7F6FEFFF726FF26220A490A4803F0E2
:1009300059FF06F0DBFB094A0021094806F004FCD8
:10094000084B186006F0E4FBFEE7FFF7DFFE00BF90
:1009500000440258F4780008480100202879000873
:10096000C906000830000020FEE7FEE7FEE7FEE7CC
:10097000FEE7704708B5024803F0F2F808BD00BF73
:100980003400002008B5024803F0EAF808BD00BFB3
:10099000AC00002008B5024803F05CFD08BD00BFB4
:1009A000E001002008B5024803F0DEFF08BD00BFEB
:1009B0004801002000B583B00A4BD3F8F42042F080
:1009C0000202C3F8F420D3F8F43003F002030193D9
:1009D000019B00220F216FF0010000F0D1F803B05D
:1009E0005DF804FB0044025810B5B0B00446C022C4
:1009F0000021684606F066FF22680D4B9A4201D03E
:100A000030B010BD4FF480020023CDE900234FF435
:100A100000732D93684601F011F828B9054A136F49
:100A200043F400431367EBE7FFF770FEF6E700BF00
:100A3000004000580044025830B5B9B004460021C7
:100A400033913491359136913791C02202A806F046
:100A500039FF22683A4B9A4201D039B030BD0222A8
:100A60000023CDE9022302A800F0E8FF00285ED1B0
:100A7000344BD3F8E82042F48022C3F8E820D3F8BE
:100A8000E82002F480220092009AD3F8E02042F09D
:100A90000802C3F8E020D3F8E03003F00803019324
:100AA000019B4FF440733393022334930025359513
:100AB00036950723379333A9234801F00FFF2348C6
:100AC000234B03602D2343608560C5604FF4806332
:100AD000036145618561C5614FF4803303624562FE
:100AE00002F048FA30BB194BC4F880309C631948B7
:100AF000194B03602E234360402383600023C360AF
:100B00004FF48062026143618361C36103624362A7
:100B100002F030FA88B90F4BE3679C63002205218D
:100B2000272000F02DF8272000F060F895E7FFF768
:100B3000EDFD9DE7FFF7EAFDD5E7FFF7E7FDEAE703
:100B40000048004000440258000C025834000020C5
:100B500010000240AC000020280002400649CB688B
:100B600023F4E0631B041B0C000200F4E060034369
:100B7000024A1A43CA60704700ED00E00000FA051F
:100B800000B5174BDB68C3F30223C3F1070CBCF1BC
:100B9000040F28BF4FF0040C03F1040EBEF1060F42
:100BA00014D9033B4FF0FF3E0EFA0CFC21EA0C0176
:100BB00099400EFA03F322EA03031943002807DBE6
:100BC0000901C9B2074B19545DF804FB0023E9E79A
:100BD00000F00F000901C9B2034B1954F4E700BF3C
:100BE00000ED00E000E400E014ED00E0002807DB89
:100BF00000F01F02400901239340024A42F82030CE
:100C0000704700BF00E100E0002800F0398338B5EC
:100C10000446036813F0010F25D0944A136903F0CA
:100C20003803926A102B15D0182B0FD06368B3F5D8
:100C3000803F3FD0002B53D18C4B1A6822F4803276
:100C40001A601A6822F480221A6038E002F0030267
:100C5000022AEBD1854B1B6813F4003F03D0636875
:100C6000002B00F00F83236813F0020F00F0A18027
:100C70007E4A1369926A13F038035AD0182B55D064
:100C8000E368002B00F0DE8078490A6822F0190240
:100C900013430B6003F084FB0546744B1B6813F091
:100CA000040F40F0AD8003F07BFB401B0228F4D919
:100CB0000320EEE26D4A136843F4803313606368E7
:100CC0002BB303F06DFB0546684B1B6813F4003F24
:100CD000C9D103F065FB401B6428F5D90320D8E295
:100CE000B3F5A02F09D0614B1A6822F480321A6044
:100CF0001A6822F480221A60E1E75C4B1A6842F419
:100D000080221A601A6842F480321A60D7E703F032
:100D100047FB0546554B1B6813F4003FA3D003F077
:100D20003FFB401B6428F5D90320B2E212F0030F09
:100D3000A6D14E4B1B6813F0040F03D0E368002BC1
:100D400000F0A282494A136823F01903E1680B43BB
:100D5000136003F025FB0546444B1B6813F0040F9A
:100D600006D103F01DFB401B0228F5D9032090E2B9
:100D700003F01CFB41F20303984212D82269402A77
:100D800007D03A494B6823F47C3343EA02334B6083
:100D90000FE0364A536823F47C3343F40033536046
:100DA00007E0324A536823F0FE43216943EA0163B6
:100DB0005360236813F0100F00F088802B4A1369EA
:100DC00003F03803926A082B56D0182B50D0E369F1
:100DD000002B00F0B880254A136843F080031360AD
:100DE00003F0DEFA0546214B1B6813F4807F40F0C8
:100DF000888003F0D5FA401B0228F4D9032048E28A
:100E000003F0D4FA41F20303984212D82269402A2F
:100E100007D016494B6823F47C3343EA02334B6016
:100E2000C7E7124A536823F47C3343F4003353601A
:100E3000BFE70E4A536823F0FE43216943EA01638A
:100E40005360B6E7094A136823F00103136003F007
:100E5000A7FA0546054B1B6813F0040FA9D003F051
:100E60009FFA401B0228F5D9032012E200440258E1
:100E700002F00302012AAAD1A14B1B6813F4807F60
:100E800003D0E369802B40F0018203F08FFA41F236
:100E90000303984212D8226A202A07D098494B6847
:100EA00023F0F84343EA82634B600FE0944A5368AF
:100EB00023F0F84343F08043536007E0904AD3683F
:100EC00023F07C53216A43EA0163D360236813F063
:100ED000080F60D06369002B49D0894A536F43F0F3
:100EE0000103536703F05CFA0546854B5B6F13F013
:100EF000020F50D103F054FA401B0228F5D9032009
:100F0000C7E103F053FA41F20303984212D8226A70
:100F1000202A07D07A494B6823F0F84343EA8263DA
:100F20004B60D3E7764A536823F0F84343F080439D
:100F30005360CBE7724AD36823F07C53216A43EABB
:100F40000163D360C2E76E4A136823F08003136025
:100F500003F026FA05466A4B1B6813F4807FB5D070
:100F600003F01EFA401B0228F5D9032091E1644AE0
:100F7000536F23F00103536703F012FA0546604BE9
:100F80005B6F13F0020F06D003F00AFA401B022831
:100F9000F5D903207DE1236813F0200F29D0A36940
:100FA0009BB1574A136843F48053136003F0F8F978
:100FB0000546534B1B6813F4005F1AD103F0F0F998
:100FC000401B0228F5D9032063E14D4A136823F43E
:100FD0008053136003F0E4F90546494B1B6813F492
:100FE000005F06D003F0DCF9401B0228F5D903208E
:100FF0004FE1236813F0040F21D1636A002B00F046
:1010000047813F4A126902F03802182A00F0EE8048
:10101000022B79D03A4A136823F08073136003F0EF
:10102000BFF90446364B1B6813F0007F00F0DC80EC
:1010300003F0B6F9001B0228F4D9032029E1314A54
:10104000136843F48073136003F0AAF905462D4B2F
:101050001B6813F4807F06D103F0A2F9401B6428BB
:10106000F5D9032015E1A368012B0AD00BBB244B53
:101070001A6F22F001021A671A6F22F004021A672F
:1010800004E01F4A136F43F001031367A36833B3EF
:1010900003F086F905461A4B1B6F13F0020FACD113
:1010A00003F07EF9401B41F288339842F3D90320C4
:1010B000EFE0052B09D0124B1A6F22F001021A67DC
:1010C0001A6F22F004021A67E0E70D4B1A6F42F024
:1010D00004021A671A6F42F001021A67D6E703F09A
:1010E0005FF90546064B1B6F13F0020F85D003F026
:1010F00057F9401B41F288339842F3D90320C8E0E6
:101100000044025800480258694A136823F080736B
:10111000136003F045F90546654B1B6813F0007F2B
:1011200006D003F03DF9401B0228F5D90320B0E0BA
:101130005F4B996A5F4A0A40A16AE06A41EA00117E
:101140000A439A62226B013AC2F30802616B0139C9
:10115000490289B20A43A16B0139090401F4FE0175
:101160000A43E16B0139090601F0FE410A431A63A3
:10117000DA6A22F00102DA62596B4F4A0A40A16C26
:1011800042EAC1025A63DA6A22F00C02216C0A4375
:10119000DA62DA6A22F00202616C0A43DA62DA6A1F
:1011A00042F48032DA62DA6A42F40032DA62DA6AEF
:1011B00042F48022DA62DA6A42F00102DA621A68E4
:1011C00042F080721A6003F0EBF80446384B1B685B
:1011D00013F0007F06D103F0E3F8001B0228F5D9D5
:1011E000032056E0002054E0002052E0304A916A8B
:1011F000106B012B4ED001F00303A26A93424BD136
:10120000C1F30511E36A994248D1C0F30802236B88
:10121000013B9A4244D1C0F34622636B013B9A42A0
:1012200040D1C0F30642A36B013B9A423CD1C0F3CC
:101230000660E36B013B984238D11D4B5B6BC3F3F7
:10124000CC03A26C9A4201D1002022E0184AD36A52
:1012500023F00103D36203F0A3F8054603F0A0F8DE
:10126000A842FBD0124A516B134B0B40A16C43EACE
:10127000C1035363D36A43F00103D362002008E043
:1012800001207047012004E0012002E0012000E07D
:10129000002038BD0120FCE70120FAE70120F8E733
:1012A0000120F6E70120F4E70120F2E70120F0E752
:1012B000004402580CFCFFFF0700FFFF744B1B6942
:1012C00003F03803102B00F0DE80182B10D00BB188
:1012D000704870476E4B1B6813F0200F00F0D580EC
:1012E0006B4B1868C0F3C1006B4B23FA00F07047DA
:1012F00010B4674A916A01F00301946AC4F30510BF
:10130000D36A03F0010C536BC3F3CC030CFB03F360
:1013100007EE903AF8EE677A14F47C7F00F0938041
:10132000012965D0022900F09180E1B107EE100A91
:10133000F8EE476A9FED596A86EE267A544B1B6B8E
:10134000C3F3080306EE903AF8EE666A9FED546A1E
:1013500067EE867A76EEA77AF7EE006A77EEA67ADF
:1013600027EE277A60E0136813F0200F23D0114690
:101370001268C2F3C102484BD34007EE103AF8EEB0
:10138000476A07EE100AB8EE476A86EE867A0B6B5C
:10139000C3F3080306EE903AF8EE666A9FED406AE2
:1013A00067EE867A76EEA77AF7EE006A77EEA67A8F
:1013B00027EE277A38E007EE100AF8EE476A9FED2D
:1013C000396A86EE267A324B1B6BC3F3080306EEAE
:1013D000903AF8EE666A9FED326A67EE867A76EEAC
:1013E000A77AF7EE006A77EEA67A27EE277A1BE057
:1013F00007EE100AF8EE476A9FED286A86EE267A15
:10140000234B1B6BC3F3080306EE903AF8EE666AB3
:101410009FED236A67EE867A76EEA77AF7EE006A8A
:1014200077EEA67A27EE277A194B1B6BC3F3462378
:10143000013307EE903AF8EE677AC7EE276AFCEEC2
:10144000E67A17EE900A5DF8044B704707EE100A33
:10145000F8EE476A9FED146A86EE267A0C4B1B6BFA
:10146000C3F3080306EE903AF8EE666A9FED0C6A45
:1014700067EE867A76EEA77AF7EE006A77EEA67ABE
:1014800027EE277AD0E7094870470348704700BF26
:101490000044025800093D000090D0030024744A23
:1014A000000000390024744C0024F44A00127A0031
:1014B000002800F0328170B50D4604469B4B1B6836
:1014C00003F00F038B420BD2984A136823F00F03EB
:1014D0000B431360136803F00F038B4240F01F812E
:1014E000236813F0040F0CD02269914B9B6903F021
:1014F00070039A4205D98E498B6923F070031A4311
:101500008A61236813F0080F0CD06269884BDB698D
:1015100003F070039A4205D98549CB6923F0700323
:101520001A43CA61236813F0100F0CD0A269804BD4
:10153000DB6903F4E0639A4205D97D49CB6923F462
:10154000E0631A43CA61236813F0200F0CD0E269EC
:10155000774B1B6A03F070039A4205D974490B6AF2
:1015600023F070031A430A62236813F0020F0CD0B1
:10157000E2686F4B9B6903F00F039A4205D96C49EF
:101580008B6923F00F031A438A61236813F0010F5C
:1015900041D0674A936923F47063A1680B43936158
:1015A0006368022B0AD0032B27D0012B2CD0604A72
:1015B000126812F0040F06D10120ADE0126812F497
:1015C000003F00F0AE805A490A6922F00702134337
:1015D0000B6102F0E5FE0646554B1B6903F038032C
:1015E0006268B3EBC20F16D002F0DAFE801B41F244
:1015F00088339842F0D903208EE04D4A126812F0E9
:10160000007FE0D1012087E0494A126812F4807F10
:10161000D9D1012080E0236813F0020F0CD0E268DA
:10162000434B9B6903F00F039A4205D240498B69F3
:1016300023F00F031A438A613C4B1B6803F00F032E
:10164000AB420AD9394A136823F00F032B431360C6
:10165000136803F00F03AB4265D1236813F0040F46
:101660000CD02269324B9B6903F070039A4205D279
:101670002F498B6923F070031A438A61236813F0A2
:10168000080F0CD062692A4BDB6903F070039A42A1
:1016900005D22749CB6923F070031A43CA61236836
:1016A00013F0100F0CD0A269214BDB6903F4E06347
:1016B0009A4205D21E49CB6923F4E0631A43CA61FA
:1016C000236813F0200F0CD0E269194B1B6A03F05A
:1016D00070039A4205D216490B6A23F070031A432D
:1016E0000A62FFF7EBFD12498B69C3F30323114A2A
:1016F000D35C03F01F03D8408B6903F00F03D35C66
:1017000003F01F0320FA03F30B4A13600B4B18601E
:101710000B4B186804F052F870BD0120704701208F
:10172000FAE70120F8E70120F6E700BF00200052A9
:10173000004402587C7900080C00002008000020BA
:101740000400002008B5FFF7B9FD0B4A9369C3F305
:1017500003230A49CB5C03F01F0320FA03F39269C9
:1017600002F00F02885C00F01F0023FA00F0044A28
:101770001060044A136008BD004402587C790008D8
:101780000C0000200800002008B5FFF7DBFF054B28
:10179000DB69C3F30213044AD35C03F01F03D84090
:1017A00008BD00BF004402587C79000808B5FFF767
:1017B000C9FF054BDB69C3F30223044AD35C03F082
:1017C0001F03D84008BD00BF004402587C790008C0
:1017D0003F230360114B1A6902F0070242609A69C5
:1017E00002F4706282609A6902F00F02C2609A6924
:1017F00002F070020261DA6902F070024261DA6995
:1018000002F4E06282611B6A03F07003C361044B5F
:101810001B6803F00F030B60704700BF00440258C1
:1018200000200052404B9B6A03F00303032B79D046
:1018300070B505460E463C4A136823F0806313607A
:1018400002F0AEFD0446384B1B6813F0006F06D063
:1018500002F0A6FD031B022BF5D9032070BD324B0D
:101860009A6A22F47C32296842EA01329A626A68F2
:10187000013AC2F30802A9680139490289B20A4350
:10188000E9680139090401F4FE010A4329690139B3
:10189000090601F0FE410A439A63DA6A22F0C002A7
:1018A00069690A43DA62DA6A22F02002A9690A4306
:1018B000DA62DA6A22F01002DA62D96B1B4A0A4055
:1018C000E96942EAC102DA63DA6A42F01002DA62D6
:1018D000C6B91A46DB6A43F40023D362124A13687E
:1018E00043F08063136002F05BFD04460E4B1B68FF
:1018F00013F0006F14D102F053FD001B0228F5D93C
:101900000320ABE7012E05D0074AD36A43F4001346
:10191000D362E3E7044AD36A43F48013D362DDE77A
:1019200000209BE701207047004402580700FFFF9A
:10193000404B9B6A03F00303032B79D070B5054637
:101940000E463C4A136823F08053136002F028FDD2
:101950000446384B1B6813F0005F06D002F020FDF0
:10196000031B022BF5D9032070BD324B9A6A22F07B
:101970007C72296842EA01529A626A68013AC2F3AB
:101980000802A9680139490289B20A43E9680139A4
:10199000090401F4FE010A4329690139090601F02D
:1019A000FE410A431A64DA6A22F4406269690A4312
:1019B000DA62DA6A22F40072A9690A43DA62DA6A40
:1019C00022F48072DA62596C1B4A0A40E96942EAE1
:1019D000C1025A64DA6A42F48072DA62C6B91A46FF
:1019E000DB6A43F48003D362124A136843F08053E6
:1019F000136002F0D5FC04460E4B1B6813F0005F29
:101A000014D102F0CDFC001B0228F5D90320ABE76E
:101A1000012E05D0074AD36A43F08073D362E3E70F
:101A2000044AD36A43F40003D362DDE700209BE756
:101A300001207047004402580700FFFFF8B5044634
:101A4000036813F0006F30D0836EB3F5001F26D00B
:101A50000ED8EBB1B3F5801F07D102210830FFF794
:101A6000E1FE054645B12E4621E0012635461EE041
:101A7000B3F5401F09D10025984A136D23F4401394
:101A8000A16E0B431365002611E0012635460EE0DA
:101A9000924AD36A43F40033D3620025ECE7022173
:101AA0002830FFF745FF0546DCE70026354623686A
:101AB00013F4807F14D0A36D042B32D8DFE803F039
:101AC00003232A080800854AD36A43F40033D3620B
:101AD00055BB824A136D23F00703A16D0B431365B9
:101AE000236813F4007F31D0E36D802B4CD020D8D5
:101AF000002B43D0402B19D1002104F10800FFF73F
:101B000091FE05461AE0002104F10800FFF78AFE65
:101B10000546DDE7002104F12800FFF709FF05462F
:101B2000D6E701263546DBE72E46D9E701263546BE
:101B30000CE0C02B02D0B3F5807F1CD15DBB674A9F
:101B4000136D23F4E073E16D0B431365236813F405
:101B5000806F46D0D4F8A830B3F5800F39D01FD8A5
:101B60008BB3B3F5001F18D1002104F10800FFF773
:101B700059FE05461AE001263546E7E7574AD36A7B
:101B800043F40033D362D9E7002104F12800FFF7C2
:101B9000CFFE0546D2E72E46D8E70126354620E09F
:101BA000B3F5C00F02D0B3F5000F09D1C5B94B4A48
:101BB000936D23F46003D4F8A8100B43936510E0F1
:101BC000012635460DE0454AD36A43F40033D3621B
:101BD000ECE7002104F12800FFF7AAFE0546E5E73F
:101BE0002E46236813F4006F24D0D4F8AC30B3F140
:101BF000007F42D00ED8002B39D0B3F1807F06D1C0
:101C0000002104F10800FFF70DFE054608E001265B
:101C100035460FE0B3F1407F02D0B3F1806F23D19E
:101C2000002D31D12D4A936D23F0E063D4F8AC1030
:101C30000B439365236813F0007F2ED0E36C202BB9
:101C400040D026D833B1102B20D1244AD36A43F494
:101C50000033D362002D3CD1204AD36C23F03003F3
:101C6000E16C0B43D36418E001263546E2E71B4ADA
:101C7000D36A43F40033D362D2E7002104F1280091
:101C8000FFF756FE0546CBE72E46D3E7012635463D
:101C900003E0302BDED001263546236813F4805F45
:101CA0002DD0236EB3F5005F4FD019D8002B46D04E
:101CB000B3F5805F0FD1002104F10800FFF7B2FDFA
:101CC000054613E0022104F10800FFF7ABFD0546CD
:101CD000C0E72E46E1E70126354610E000440258F1
:101CE000B3F5405F02D0B3F5804F25D1002D33D13D
:101CF000774A136D23F4E043216E0B431365236889
:101D000013F4005F38D0636EB3F5003F53D028D88A
:101D100043B1B3F5803F21D1012104F10800FFF761
:101D200081FD0546002D4DD1694A136D23F4E02352
:101D3000616E0B4313651FE001263546DFE7644AF9
:101D4000D36A43F40033D362D0E7002104F12800C2
:101D5000FFF7EEFD0546C9E72E46D0E701263546DA
:101D60000AE0B3F5802FDDD0B3F5A02FDAD0B3F5BC
:101D7000403FD7D001263546236813F4804F31D039
:101D8000D4F8B030B3F1005F45D020D843B1B3F1FF
:101D9000805F19D1012104F10800FFF743FD0546DA
:101DA000002D3FD14A4A936D23F0E043D4F8B010A0
:101DB0000B43936516E0012104F12800FFF7B8FDFD
:101DC0000546AFE72E46D7E7012635460AE0B3F1D0
:101DD000804FE5D0B3F1A04FE2D0B3F1405FDFD048
:101DE00001263546236813F4004F09D0236FB3F161
:101DF000805F19D0B3F1005F24D0D3B101263546FE
:101E0000236813F0807F33D0A36C032B5BD8DFE80B
:101E100003F027225327012104F12800FFF788FD52
:101E20000546BDE72E46DDE7294AD36A43F4003371
:101E3000D36275B9264A136D23F04053216F0B43CB
:101E40001365DDE7012104F10800FFF7EBFC05460F
:101E5000EFE72E46D4E71E4AD36A43F40033D36239
:101E6000A5BB1B4AD36C23F00303A16C0B43D364C3
:101E7000236813F4800F2DD1236813F0010F00F0B5
:101E8000A580E36F282B00F29F80DFE803F08D9D93
:101E90009D9D9D9D9D9D879D9D9D9D9D9D9D969D8F
:101EA0009D9D9D9D9D9D8D9D9D9D9D9D9D9D8D9D82
:101EB0009D9D9D9D9D9D8D00022104F10800FFF7D1
:101EC000B1FC0546CCE701263546D1E72E46CFE7E3
:101ED00000440258914A136843F48073136002F07F
:101EE0005FFA07468D4B1B6813F4807F05D102F023
:101EF00057FAC01B6428F5D90325002D4AD1884B19
:101F00001B6FD4F8B420534013F4407F0CD0844BA3
:101F10001A6F22F44072196F41F480311967196FFA
:101F200021F4803119671A67D4F8B430B3F5807F93
:101F300015D08DBBD4F8B43003F44072B2F5407FB5
:101F40001ED0774A136923F47C53136174490B6FD5
:101F5000D4F8B420C2F30B0213430B678CE702F0F2
:101F60001FFA07466E4B1B6F13F0020FE1D102F010
:101F700017FAC01B41F288339842F3D90325D8E7FA
:101F80006748026922F47C52664901EA131313433D
:101F90000361DBE72E466FE72E466DE7012104F172
:101FA0000800FFF73FFC0546E5B95D4A536D23F095
:101FB0003803E16F0B43536508E0012104F1280069
:101FC000FFF7B6FC0546EFE701263546236813F018
:101FD000020F17D0A36F052B28D8DFE803F00B05FD
:101FE000200B0B0B2E46F1E7012104F10800FFF74F
:101FF00019FC0546EDB94A4A536D23F00703A16F5A
:102000000B435365236813F0040F23D0D4F89430A6
:10201000052B45D8DFE803F0150F3D1515150121F7
:1020200004F12800FFF784FC0546E3E70126354666
:10203000E8E72E46E6E7012104F10800FFF7F2FB8E
:10204000054685BB364A936D23F00703D4F89410F8
:102050000B439365236813F0200F34D0D4F89030ED
:10206000B3F1005F4ED023D843B1B3F1805F1CD1F0
:10207000002104F10800FFF7D5FB0546002D48D1EB
:10208000274A536D23F0E043D4F890100B43536577
:1020900019E0012104F12800FFF74AFC0546D0E7CA
:1020A00001263546D6E72E46D4E7012635460AE016
:1020B000B3F1804FE2D0B3F1A04FDFD0B3F1405F76
:1020C000DCD001263546236813F0400F37D0D4F812
:1020D0009C30B3F5006F53D026D843B1B3F5806F71
:1020E00019D1002104F10800FFF79CFB0546002DE3
:1020F0004DD10B4A936D23F4E053D4F89C100B435D
:1021000093651CE0022104F12800FFF711FC05464D
:10211000B4E72E46D7E70126354610E000480258BE
:1021200000440258CFFFFF00B3F5805FDFD0B3F566
:10213000A05FDCD0B3F5406FD9D0012635462368C7
:1021400013F0800F33D0D4F8A030B3F5804F00F0F7
:10215000A38021D843B1B3F5005F1AD1002104F167
:102160000800FFF75FFB0546002D40F09C80814A88
:10217000936D23F46043D4F8A0100B43936516E0ED
:10218000022104F12800FFF7D3FB0546AFE72E46F6
:10219000D5E7012635460AE0B3F5004FE4D0B3F5A4
:1021A000204FE1D0B3F5C04FDED00126354623687D
:1021B00013F0080F0CD0D4F88430B3F5805F74D0DE
:1021C0006C4A536D23F44053D4F884100B43536589
:1021D000236813F0100F0CD0D4F89830B3F5807F3B
:1021E0006CD0644A936D23F44073D4F898100B4379
:1021F0009365236813F4002F0BD0D4F8A430B3F503
:10220000803F74D0B3F5003F67D0002B5FD001262C
:102210003546236813F4802F0CD0D4F88830B3F5FA
:10222000001F7CD0B3F5401F6FD0B3F5801F67D07F
:1022300001263546236813F4803F08D0236D002B18
:1022400076D0B3F5803F00F08180012635462368C3
:1022500013F0005F40F08380236813F4003F00F028
:102260008E80D4F88030B3F5807F00F0EC8040F2AF
:102270008380B3F5007F03D0B3F5407F40F0E18069
:10228000002D40F0E6803B4A536D23F44073D4F8B0
:1022900080100B43536572E0022104F12800FFF720
:1022A00047FB054660E72E4681E7022104F128003E
:1022B000FFF73EFB002883D0012681E7022104F1CD
:1022C0002800FFF735FB00288BD0012689E7002185
:1022D00004F10800FFF7A6FA05467DB9254A936D7B
:1022E00023F44033D4F8A4100B43936591E7022103
:1022F00004F12800FFF71CFB0546EEE72E4688E7B1
:102300001C4AD36A43F40033D3627DB9194A536D32
:1023100023F44013D4F888100B4353658AE7012156
:1023200004F12800FFF704FB0546EEE72E4681E79F
:10233000104AD36A43F40033D36275B90D4AD36CA3
:1023400023F48033216D0B43D36480E7022104F131
:102350000800FFF767FA0546EFE72E4677E7022108
:1023600004F12800FFF7E4FA00283FF475AF0126D6
:1023700072E700BF00440258002B81D00126236879
:1023800013F4801F06D04F4A136D23F00043616F92
:102390000B431365236813F0805F07D0494A136924
:1023A00023F48043D4F8B8100B431361236813F46B
:1023B000001F06D0434A136D23F08073E16E0B4378
:1023C0001365236813F0804F09D03E4B1A6922F43D
:1023D00000421A611A69D4F8BC100A431A612368D2
:1023E000002B06DA374AD36C23F04053616D0B4360
:1023F000D364236813F4000F07D0324A536D23F4DB
:102400004003D4F88C100B435365636813F0010F3D
:1024100021D1636813F0020F26D1636813F0040F13
:102420002BD1636813F0080F30D1636813F0100FDD
:1024300035D1636813F0200F3AD106B1012630463A
:10244000F8BD01269BE71F4AD36A43F40033D362E9
:1024500016E72E4693E7002104F10800FFF7E2F9A2
:102460000028D6D00646D4E7012104F10800FFF782
:10247000D9F90028D1D00646CFE7022104F108009F
:10248000FFF7D0F90028CCD00646CAE7002104F1B6
:102490002800FFF74DFA0028C7D00646C5E70121FE
:1024A00004F12800FFF744FA0028C2D00646C0E72E
:1024B000022104F12800FFF73BFA0028BDD00646B0
:1024C000BBE700BF0044025808B5FFF73BF9054BD6
:1024D0001B6AC3F30213044AD35C03F01F03D84002
:1024E00008BD00BF004402587C79000810B5774A47
:1024F000916A946AC4F3053ED36AC3F3001CD36B9C
:10250000C3F3CC030CFB03F314F47C3F00F0D8803E
:1025100001F0030107EE903AF8EE677A012965D0E1
:10252000022900F0B080E1B107EE10EAB8EE477A78
:102530009FED676AC6EE076A644B9B6BC3F30803A3
:1025400007EE103AB8EE477A9FED626A67EE867A38
:1025500077EE277AB7EE007A77EE877A66EEA76A8B
:1025600060E0136813F0200F23D011461268C2F305
:10257000C102594BD34007EE103AB8EE477A06EE47
:1025800090EAB8EE666AC7EE066A8B6BC3F308037F
:1025900007EE103AB8EE477A9FED4E6A67EE867AFC
:1025A00077EE277AB7EE007A77EE877A66EEA76A3B
:1025B00038E007EE10EAB8EE477A9FED486AC6EEBB
:1025C000076A424B9B6BC3F3080307EE103AB8EE61
:1025D000477A9FED406A67EE867A77EE277AB7EE04
:1025E000007A77EE877A66EEA76A1BE007EE10EABC
:1025F000B8EE477A9FED366AC6EE076A334B9B6B9F
:10260000C3F3080307EE103AB8EE477A9FED316A3C
:1026100067EE867A77EE277AB7EE007A77EE877ADA
:1026200066EEA76A294A936BC3F3462307EE103A76
:10263000B8EE477AB7EE006A37EE067AC6EE877ACA
:10264000FCEEE77AC0ED007A936BC3F3064307EE26
:10265000103AB8EE477A37EE067AC6EE877AFCEE85
:10266000E77AC0ED017A936BC3F3066307EE903A05
:10267000F8EE677A77EE867A86EEA77ABCEEC77AAE
:1026800080ED027A10BD07EE10EAB8EE477A9FEDB2
:10269000146AC6EE076A0D4B9B6BC3F3080307EE83
:1026A000103AB8EE477A9FED0B6A67EE867A77EEBE
:1026B000277AB7EE007A77EE877A66EEA76AB1E7F7
:1026C0000023036043608360DCE700BF00440258DE
:1026D0000024744A000000390090D0030024744C98
:1026E0000024F44A10B5774A916A946AC4F3055EEF
:1026F000D36AC3F3002C536CC3F3CC030CFB03F37A
:1027000014F07C7F00F0D88001F0030107EE903ACE
:10271000F8EE677A012965D0022900F0B080E1B1B6
:1027200007EE10EAB8EE477A9FED676AC6EE076AD1
:10273000644B1B6CC3F3080307EE103AB8EE477AFC
:102740009FED626A67EE867A77EE277AB7EE007AB7
:1027500077EE877A66EEA76A60E0136813F0200FC1
:1027600023D011461268C2F3C102594BD34007EE81
:10277000103AB8EE477A06EE90EAB8EE666AC7EE0F
:10278000066A0B6CC3F3080307EE103AB8EE477AFB
:102790009FED4E6A67EE867A77EE277AB7EE007A7B
:1027A00077EE877A66EEA76A38E007EE10EAB8EEB1
:1027B000477A9FED486AC6EE076A424B1B6CC3F32B
:1027C000080307EE103AB8EE477A9FED406A67EECD
:1027D000867A77EE277AB7EE007A77EE877A66EE1A
:1027E000A76A1BE007EE10EAB8EE477A9FED366A5B
:1027F000C6EE076A334B1B6CC3F3080307EE103AAF
:10280000B8EE477A9FED316A67EE867A77EE277ADF
:10281000B7EE007A77EE877A66EEA76A294A136CDC
:10282000C3F3462307EE103AB8EE477AB7EE006AD4
:1028300037EE067AC6EE877AFCEEE77AC0ED007ACC
:10284000136CC3F3064307EE103AB8EE477A37EE3F
:10285000067AC6EE877AFCEEE77AC0ED017A136C51
:10286000C3F3066307EE903AF8EE677A77EE867A5E
:1028700086EEA77ABCEEC77A80ED027A10BD07EE2D
:1028800010EAB8EE477A9FED146AC6EE076A0D4B60
:102890001B6CC3F3080307EE103AB8EE477A9FEDBE
:1028A0000B6A67EE867A77EE277AB7EE007A77EED4
:1028B000877A66EEA76AB1E700230360436083600E
:1028C000DCE700BF004402580024744A00000039CD
:1028D0000090D0030024744C0024F44AF0B583B077
:1028E00000236BE085685E000324B44025EA0405FC
:1028F000CC68B4402C438460446824EA0C0C4C68D7
:10290000C4F300149C4044EA0C04446068E0DD0811
:10291000083550F8256003F007044FEA840C0F24B3
:1029200004FA0CF426EA040E0C6904FA0CF444EAE6
:102930000E0440F825406BE0092400E0002404FA6E
:102940000EF42C430CF1020C694D45F82C404FF06D
:10295000B0442568D44325EA02064F6817F4801F67
:1029600001D042EA05064FF0B0452E606D6804EADA
:1029700005064F6817F4001F01D042EA05064FF024
:10298000B0456E60D5F8845004EA05064F6817F428
:10299000003F01D042EA05064FF0B045C5F884601B
:1029A000D5F880502C404E6816F4803F01D042EAA2
:1029B00005044FF0B042C2F8804001330A6832FA91
:1029C00003F400F092804FF0010C0CFA03FC1CEAB7
:1029D0000202F2D04C6804F00304013C012C81D9BE
:1029E0004C6804F00304032C0CD0C4685D004FF065
:1029F000030C0CFA05FC24EA0C0C8C68AC4044EA8D
:102A00000C04C4604C6804F00304022C3FF47FAF54
:102A100004684FEA430E4FF0030C0CFA0EFC24EA54
:102A20000C0C4C6804F0030404FA0EF444EA0C04A1
:102A300004604C6814F4403FBFD02E4CD4F8F450DE
:102A400045F00205C4F8F450D4F8F44004F0020450
:102A50000194019C4FEA930C0CF10205244C54F8AC
:102A6000255003F003044FEA840E0F2404FA0EF4F9
:102A700025EA0405204CA0423FF460AF04F58064D1
:102A8000A04222D004F58064A04220D004F58064E6
:102A9000A0421ED004F58064A0421CD004F58064DE
:102AA000A0421AD004F58064A04218D004F58064D6
:102AB000A04216D004F58064A04214D004F58064CE
:102AC000A0423FF439AF0A2439E7012437E7022452
:102AD00035E7032433E7042431E705242FE70624F0
:102AE0002DE707242BE7082429E703B0F0BD00BF3A
:102AF0000004005800440258000002580AB18161E5
:102B00007047090481617047436901EA030221EAC1
:102B1000030141EA02418161704700002030054B0A
:102B200053F82020044B9A4201D001207047002026
:102B3000704700BF006402580003008041F44071F8
:102B4000014B43F82010704700640258F0B4876DC1
:102B50000468664E664DAC4218BFB44242D0183588
:102B6000AC423FD01835AC423CD01835AC4239D0DD
:102B70001835AC4236D01835AC4233D01835AC429B
:102B800030D005F55675AC422CD01835AC4229D062
:102B90001835AC4226D01835AC4223D01835AC429B
:102BA00020D01835AC421DD01835AC421AD018359B
:102BB000AC4217D04F4DAC4214D01435AC4211D0BA
:102BC0001435AC420ED01435AC420BD01435AC42A7
:102BD00008D01435AC4205D01435AC4202D01435BF
:102BE000AC4207D1446E856E6560C46E14B1046F4B
:102BF000456F656004683D4E3D4DAC4218BFB44220
:102C000052D01835AC424FD01835AC424CD01835A4
:102C1000AC4249D01835AC4246D01835AC4243D00E
:102C20001835AC4240D005F55675AC423CD018354D
:102C3000AC4239D01835AC4236D01835AC4233D01E
:102C40001835AC4230D01835AC422DD01835AC42D6
:102C50002AD01835AC4227D0264E274DAC4218BF9B
:102C6000B44211D0254DAC420ED01435AC420BD03D
:102C70001435AC4208D01435AC4205D01435AC4202
:102C800002D01435AC4224D1C46D04F01F050124D8
:102C9000AC407C60046863608368402B20D003688C
:102CA00099600368DA6014E0C46D04F01F0C3F24DF
:102CB00004FA0CF4BC6005682C6824F480242C60B1
:102CC000046863608368402B05D0036899600368DB
:102CD000DA60F0BC704703689A600368D960F8E76F
:102CE00003689A600368D960F3E700BF10000240F0
:102CF00028000240085402581C540258305402580C
:102D000003682749274A934218BF8B422FD01832B5
:102D100093422CD01832934229D01832934226D0B5
:102D20001832934223D01832934220D01832934263
:102D30001DD002F55672934219D01832934216D024
:102D40001832934213D01832934210D01832934263
:102D50000DD0183293420AD01832934207D018325D
:102D6000934204D023F0FF038365806D704710B455
:102D7000D9B210390C4AA2FB0142C2F302120B4C29
:102D8000A25CC2655F2907D9094A1A4004328265EC
:102D9000806D5DF8044B7047054A1A408265F7E77D
:102DA0001000024028000240ABAAAAAA4C790008F1
:102DB00000FCFFFF83699BB9836A012B0AD0022BB9
:102DC00002D00BB100207047C36A13F0807F2AD174
:102DD00000207047C36AB3F1C07F26D0002070473F
:102DE000B3F5005F0AD0836A022B26D9032B26D1C4
:102DF000C36A13F0807F24D100207047836A032BBD
:102E000003D8DFE803F01404140A00207047C36AF3
:102E100013F0807F0DD100207047C36AB3F1C07FEB
:102E200009D0002070470120704701207047012021
:102E30007047012070470120704701207047002033
:102E4000704701207047000003682249224A9342DC
:102E500018BF8B4228D01432934225D014329342AB
:102E600022D0143293421FD0143293421CD0143219
:102E7000934219D01432934216D0DAB2103A17495D
:102E8000A1FB0212120916491944A8291FD9154B92
:102E900013449B000366144B436602F01F02012398
:102EA00003FA02F282667047DBB2083B0F4AA2FBCC
:102EB00003230F4A02EB1312920002660D4A426688
:102EC000C3F30413012202FA03F383667047083246
:102ED000DDE700BF085402581C540258ABAAAAAA46
:102EE000F0FBFDBF0082001080080240CDCCCCCCAE
:102EF000009600168058025801794A1E072A2CD8DD
:102F000030B40368154D164CA34218BFAB4218D01D
:102F10001434A34215D01434A34212D01434A34263
:102F20000FD01434A3420CD01434A34209D014346B
:102F3000A34206D00B4B0B449B00C3660A4B0367AE
:102F400005E00A4B0B449B00C366094B0367012352
:102F500003FA02F2426730BC7047704708540258C7
:102F60001C5402583F820010400902403F96001650
:102F70004059025870B5044601F012FA002C00F0D6
:102F8000B681054623685349534A934218BF8B4282
:102F90000CBF0122002250D030318B424DD018316D
:102FA0008B424AD018318B4247D018318B4244D0E3
:102FB00018318B4241D018318B423ED001F5567109
:102FC0008B423AD018318B4237D018318B4234D0F3
:102FD00018318B4231D018318B422ED018318B42B0
:102FE0002BD018318B4228D018318B4225D03B4949
:102FF0003B4A934218BF8B4200F03181394A9342D9
:1030000000F02D811432934200F029811432934252
:1030100000F025811432934200F021811432934252
:1030200000F01D811432934200F019814023636542
:10303000032384F8353001204AE0022184F835105A
:10304000002184F834107ABB274A93422CD01832DE
:10305000934229D01832934226D01832934223D07B
:103060001832934220D0183293421DD002F5567286
:10307000934219D01832934216D01832934213D08B
:103080001832934210D0183293420DD01832934226
:103090000AD01832934207D01832934204D01A68EB
:1030A00022F001021A6003E01A6822F001021A609D
:1030B00023681A6812F0010F18D001F071F9431B50
:1030C000052BF5D920236365032384F835300120CF
:1030D00070BD00BF10000240280002400854025892
:1030E0001C54025830540258400002401A6881486B
:1030F0001040A168E2680A4321690A4361690A43F2
:10310000A1690A43E1690A43216A0A430243616AE9
:10311000042900F099807849086878490140B1F1A4
:10312000005F11D36168A1F12905A1F13F000328D7
:1031300088BF052D06D9A1F14700012802D94F39D2
:10314000032901D842F480121A602668756925F0B7
:103150000705636A1D43042B08D1A36A1D43E36A74
:1031600023B12046FFF726FE002872D17561204664
:10317000FFF7C6FDE36D03F01F023F23934083601A
:1031800023685F495F4A934218BF8B4242D018328E
:1031900093423FD0183293423CD01832934239D0F8
:1031A0001832934236D01832934233D018329342B9
:1031B00030D002F5567293422CD01832934229D067
:1031C0001832934226D01832934223D018329342B9
:1031D00020D0183293421DD0183293421AD01832A0
:1031E000934217D0484A934214D01432934211D0DC
:1031F000143293420ED0143293420BD014329342C5
:1032000008D01432934205D01432934202D01432C3
:10321000934213D12046FFF717FEA368802B59D0A5
:10322000236E22791A60636EA26E5A606368013B56
:10323000072B52D90023E36623676367002060658C
:10324000012384F8353043E7E16A206B01430A43E8
:1032500061E740236365012084F8350038E70222E6
:1032600084F83520002284F834201A682749114058
:10327000A268402A2CD0802A27D00022E06842EAA7
:10328000D002206942EAD002606942EAD002A06915
:1032900042EAD002E06942EAD002206A42EA101211
:1032A0000A431A6022681A4B13441A4AA2FB0323EA
:1032B0001B099B00E3652046FFF722FDE26D02F04B
:1032C0001F0101228A4042605AE74FF48042D5E74D
:1032D0001022D3E700236360A2E72046FFF70CFE2D
:1032E000E36E00221A60236F626F5A60A6E7012026
:1032F000EEE600BF3F8010FE0010005C0000FFFF04
:103300001000024028000240085402580F00FEFF3F
:10331000F8ABFDA7CDCCCCCC002800F03E8170B539
:10332000044690F83400012800F03981012084F827
:10333000340094F83500C0B2012807D04FF4006380
:103340006365002384F83430012070BD022084F8C6
:103350003500002060652068924E934DA84218BF4A
:10336000B0422FD01835A8422CD01835A84229D009
:103370001835A84226D01835A84223D01835A842BF
:1033800020D01835A8421DD005F55675A84219D091
:103390001835A84216D01835A84213D01835A842BF
:1033A00010D01835A8420DD01835A8420AD01835CB
:1033B000A84207D01835A84204D0056825F00105B9
:1033C000056003E0056825F0010505602046FFF76C
:1033D000BDFB23687349744A934218BF8B4238D0AF
:1033E0001832934235D01832934232D01832934279
:1033F0002FD0183293422CD01832934229D0183251
:10340000934226D002F55672934222D0183293424C
:103410001FD0183293421CD01832934219D0183260
:10342000934216D01832934213D01832934210D0E0
:10343000183293420DD01A6822F00E0242F00A02AE
:103440001A60236C93B12268136843F0040313607D
:103450000CE01A6822F01E0242F016021A60236C79
:1034600023B12268136843F00803136023684D49B1
:103470004D4A934218BF8B4242D0183293423FD0FC
:10348000183293423CD01832934239D018329342CA
:1034900036D01832934233D01832934230D002F5EE
:1034A000567293422CD01832934229D0183293424C
:1034B00026D01832934223D01832934220D01832AB
:1034C00093421DD0183293421AD01832934217D02B
:1034D000364A934214D01432934211D0143293429C
:1034E0000ED0143293420BD01432934208D01432CF
:1034F000934205D01432934202D0143293420ED13B
:10350000236E1A6812F4803F03D01A6842F4807266
:103510001A60E36E1BB11A6842F480721A60236865
:103520002049214A934218BF8B4230D0183293422F
:103530002DD0183293422AD01832934227D0183215
:10354000934224D01832934221D0183293421ED095
:1035500002F5567293421AD01832934217D018329D
:10356000934214D01832934211D0183293420ED0A5
:10357000183293420BD01832934208D0183293423B
:1035800005D01A6842F001021A600020DDE61A68D0
:1035900042F001021A600020D7E6012070470220A5
:1035A000D3E600BF10000240280002400854025831
:1035B00070B5044600F0F4FE002C00F09181054641
:1035C00094F83530DBB2022B06D0802363650023EC
:1035D00084F83430012070BD23688C498C4A9342B2
:1035E00018BF8B4230D0183293422DD018329342FC
:1035F0002AD01832934227D01832934224D018325E
:10360000934221D0183293421ED002F55672934253
:103610001AD01832934217D01832934214D018326D
:10362000934211D0183293420ED0183293420BD0ED
:103630001832934208D01832934205D01A6822F00B
:103640000E021A60266809E01A6822F01E021A604B
:103650002268536923F080035361266823686B490D
:103660006B4A934218BF8B4242D0183293423FD0EC
:10367000183293423CD01832934239D018329342D8
:1036800036D01832934233D01832934230D002F5FC
:10369000567293422CD01832934229D0183293425A
:1036A00026D01832934223D01832934220D01832B9
:1036B00093421DD0183293421AD01832934217D039
:1036C000544A934214D01432934211D0143293428C
:1036D0000ED0143293420BD01432934208D01432DD
:1036E000934205D01432934202D01432934204D153
:1036F000226E136823F48073136023684349444A9D
:10370000934218BF8B422FD0183293422CD01832DC
:10371000934229D01832934226D01832934223D0B4
:103720001832934220D0183293421DD002F55672BF
:10373000934219D01832934216D01832934213D0C4
:103740001832934210D0183293420DD0183293425F
:103750000AD01832934207D01832934204D01A6824
:1037600022F001021A6003E01A6822F001021A60D6
:10377000336813F0010F0ED000F012FE431B052B2F
:10378000F6D920236365032384F83530002384F8B9
:10379000343001201FE723681C491D4A934218BF9B
:1037A0008B4239D01832934236D01832934233D0FC
:1037B0001832934230D0183293422DD018329342AF
:1037C0002AD01832934227D002F55672934223D062
:1037D0001832934220D0183293421DD018329342AF
:1037E0001AD01832934217D01832934214D018329C
:1037F000934211D0183293420ED0A16DE36D03F0C5
:103800001F02012393404B600DE000BF10000240F7
:103810002800024008540258A16DE36D03F01F0216
:103820003F2393408B6023682E492F4A934218BF51
:103830008B4242D0183293423FD0183293423CD050
:103840001832934239D01832934236D0183293420C
:1038500033D01832934230D002F5567293422CD0B6
:103860001832934229D01832934226D0183293420C
:1038700023D01832934220D0183293421DD01832F0
:1038800093421AD01832934217D0184A934214D058
:103890001432934211D0143293420ED01432934218
:1038A0000BD01432934208D01432934205D0143214
:1038B000934202D0143293420BD1636EA26E5A60CF
:1038C000E36E33B11A6822F480721A60236F626F5C
:1038D0005A60012384F83530002084F834007AE6F9
:1038E000012078E6100002402800024008540258E7
:1038F000002800F0298108B5024690F83530DBB287
:10390000022B03D080234365012008BD0368904843
:1039100090498B4218BF83420CBF0121002166D021
:103920003030834263D01830834260D018308342F5
:103930005DD0183083425AD01830834257D01830A7
:10394000834254D000F55670834250D018308342E1
:103950004DD0183083424AD01830834247D01830B7
:10396000834244D01830834241D0183083423ED045
:10397000183083423BD0196821F00E01196013689A
:10398000A0F5956073498B4218BF83426AD0724993
:103990008B4267D018318B4264D018318B4261D092
:1039A00018318B425ED018318B425BD018318B427C
:1039B00058D001F556718B4254D018318B4251D0FA
:1039C00018318B424ED018318B424BD018318B427C
:1039D00048D018318B4245D018318B4242D0183133
:1039E0008B423FD0196821F0010119603EE00420AC
:1039F00082F8350081BB584A93422DD01832934249
:103A00002AD01832934227D01832934224D0183249
:103A1000934221D0183293421ED002F5567293423F
:103A20001AD01832934217D01832934214D0183259
:103A3000934211D0183293420ED0183293420BD0D9
:103A40001832934208D01832934205D01A6822F0F7
:103A500001021A60002058E71A6822F001021A6079
:103A6000002052E7196821F00101196013683848F5
:103A700038498B4218BF834242D018318B423FD025
:103A800018318B423CD018318B4239D018318B42DF
:103A900036D018318B4233D018318B4230D001F5FB
:103AA00056718B422CD018318B4229D018318B4261
:103AB00026D018318B4223D018318B4220D01831B8
:103AC0008B421DD018318B421AD018318B4217D03F
:103AD00022498B4214D014318B4211D014318B42C5
:103AE0000ED014318B420BD014318B4208D01431DC
:103AF0008B4205D014318B4202D014318B4217D146
:103B0000116E0B6823F480730B60906DD36D03F01E
:103B10001F0101238B404360536E916E5960D36E39
:103B200033B1196821F480711960136F516F5960B6
:103B3000012382F83530002382F83430136D2BB125
:103B4000104698470020E0E6012070470020DCE6A0
:103B50001000024028000240400002400854025871
:103B6000F0B583B00446002301937D4B1D687D4B67
:103B7000A3FB0535AD0A876D3E68D7F800C0036822
:103B800079497A48834218BF8B420CBF012000203C
:103B900061D0774A93425ED0183293425BD018329C
:103BA000934258D01832934255D01832934252D093
:103BB000183293424FD002F5567293424BD01832CE
:103BC000934248D01832934245D01832934242D0A3
:103BD000183293423FD0183293423CD0183293426D
:103BE00039D01832934236D06249634A934218BFA3
:103BF0008B4212D0614A93420FD0143293420CD0C0
:103C00001432934209D01432934206D014329342B4
:103C100003D01432934240F061821A68E16D01F0E2
:103C20001F010420884010EA0C0F00F0A78212F058
:103C3000040F00F0A382786012F4004F00F05A8263
:103C400012F4803F40F05082A36C002B00F04682BB
:103C50002046984742E2E26D02F01F0108228A40A6
:103C6000324241D070BB424A93422BD01832934229
:103C700028D01832934225D01832934222D01832DD
:103C800093421FD0183293421CD002F556729342D1
:103C900018D01832934215D01832934212D01832ED
:103CA00093420FD0183293420CD01832934209D06D
:103CB0001832934206D01832934203D01A68C2F3E6
:103CC000C00202E01A68C2F380026AB11A6822F0E8
:103CD00004021A60E36D03F01F0208239340BB60E7
:103CE000636D43F001036365E26D02F01F0226FA83
:103CF00002F313F0010F47D023681B481B498B4286
:103D000018BF83423CD018318B4239D018318B42D6
:103D100036D018318B4233D018318B4230D0183125
:103D20008B422DD018318B422AD001F556718B422F
:103D300026D018318B4223D018318B4220D0183135
:103D40008B421DD018318B421AD018318B4217D0BC
:103D500018318B4214D018318B4211D01B6813E0FC
:103D600008000020B5814E1B1000024028000240D0
:103D700040000240085402581C5402583054025863
:103D80005B6913F0800F3BD1E36D03F01F03042246
:103D900002FA03F3334240D02268964896498A4299
:103DA00018BF824235D018318A4232D018318A4247
:103DB0002FD018318A422CD018318A4229D018319C
:103DC0008A4226D018318A4223D001F556718A42A0
:103DD0001FD018318A421CD018318A4219D01831AC
:103DE0008A4216D018318A4213D018318A4210D034
:103DF00018318A420DD018318A420AD013680CE07B
:103E0000012303FA02F2BA60636D43F002036365B3
:103E1000BAE7126812F0020F3DD1E36D03F01F0301
:103E2000102202FA03F333425FD0226871487249CC
:103E30008A4218BF824234D018318A4231D01831B8
:103E40008A422ED018318A422BD018318A4228D08B
:103E500018318A4225D018318A4222D001F5567194
:103E60008A421ED018318A421BD018318A4218D09B
:103E700018318A4215D018318A4212D018318A423C
:103E80000FD018318A420CD018318A4209D01268FA
:103E9000C2F3800208E0BB60636D43F00403636516
:103EA000BBE71268C2F3C002FAB1BB6023681A68AC
:103EB00012F4802F0DD01B6813F4002F04D1236C53
:103EC0009BB12046984710E0A36C73B120469847F9
:103ED0000BE01A6812F4807F03D11A6822F00802FE
:103EE0001A60236C0BB120469847E36D03F01F0363
:103EF000202202FA03F3334200F0928022683D4808
:103F00003D498A4218BF82422ED018318A422BD0B6
:103F100018318A4228D018318A4225D018318A4275
:103F200022D018318A421FD018318A421CD001F5A4
:103F300056718A4218D018318A4215D018318A42F7
:103F400012D018318A420FD018318A420CD0183161
:103F50008A4209D018318A4206D018318A4203D0E9
:103F60001268C2F3400202E01268C2F30012002A93
:103F700056D0BB6094F83530DBB2042B0ED02368EA
:103F80001A6812F4802F39D01B6813F4002F2CD13B
:103F9000636C002B44D02046984741E022681368A8
:103FA00023F0160313602268536923F080035361E2
:103FB000236CB3B12268136823F008031360E36D28
:103FC00003F01F023F239340BB60012384F8353088
:103FD000002384F83430236D002B7FD0204698478F
:103FE0007CE0A36C002BE5D1E9E7E36BC3B120468D
:103FF000984715E010000240280002401A6812F4A9
:10400000807F09D11A6822F010021A60012384F817
:104010003530002384F83430E36B0BB120469847E9
:10402000636D002B5AD0636D13F0010F52D004233F
:1040300084F8353023689649964A934218BF8B42DC
:104040002FD0183293422CD01832934229D01832F4
:10405000934226D01832934223D01832934220D074
:10406000183293421DD002F55672934219D018327D
:10407000934216D01832934213D01832934210D084
:10408000183293420DD0183293420AD0183293421C
:1040900007D01832934204D01A6822F001021A6045
:1040A00003E01A6822F001021A60019B01330193B8
:1040B000AB4204D823681B6813F0010FF5D12368C5
:1040C0001B6813F0010F0BD0032384F83530002355
:1040D00084F83430E36C0BB12046984703B0F0BD50
:1040E000012384F83530F2E7236C002BF6D020460C
:1040F0009847F3E712F0200F3AD123686449654AE4
:10410000934218BF8B422FD0183293422CD01832D2
:10411000934229D01832934226D01832934223D0AA
:104120001832934220D0183293421DD002F55672B5
:10413000934219D01832934216D01832934213D0BA
:104140001832934210D0183293420DD01832934255
:104150000AD01832934207D01832934204D01A681A
:1041600022F004021A6003E01A6822F008021A60C2
:10417000236C002BB2D020469847AFE7022088403E
:1041800010EA0C0F60D012F0020F5DD0786012F4CC
:10419000004F0ED012F4803F05D1636C002B9DD0F0
:1041A000204698479AE7E36B002B97D02046984724
:1041B00094E712F0200F40D123683549354A9342E5
:1041C00018BF8B422FD0183293422CD01832934212
:1041D00029D01832934226D01832934223D0183275
:1041E000934220D0183293421DD002F5567293426A
:1041F00019D01832934216D01832934213D0183285
:10420000934210D0183293420DD0183293420AD004
:104210001832934207D01832934204D01A6822F021
:104220000A021A6003E01A6822F014021A600123DD
:1042300084F83530002384F83430E36B002B3FF4EE
:104240004DAF2046984749E7082000FA01F111EAEE
:104250000C0F3FF443AF12F0080F3FF43FAF1A6862
:1042600022F00E021A60E36D03F01F03012202FA2E
:1042700003F37B60626584F83520002384F83430D2
:10428000E36C002B3FF42AAF2046984726E700BF97
:10429000100002402800024038B50446224BDB687B
:1042A00003F00703062B07D01F4BDB6803F03F0327
:1042B000834236D0012038BD1B4AD36823F03F0328
:1042C0000343D36000F06CF80546174B5B6813F4AA
:1042D000005F07D100F064F8431BB3F57A7FF4D98F
:1042E0000120E8E72E2C18BF1E2C08D02D2C14BF5F
:1042F000002301231D2C02D00BB90020DBE700F0C6
:104300004FF80446084BDB6813F4803F07D100F0F8
:1043100047F8001BB0F57A7FF4D90120CBE70020E5
:10432000C9E70020C7E700BF0048025810B50320C6
:10433000FCF714FCFCF7C2FF0F498B69C3F303239E
:104340000E4AD35C03F01F03D8408B6903F00F03C0
:10435000D35C03F01F0320FA03F3094A1360094BEF
:1043600018600F2001F02AFA10B10124204610BD78
:104370000446FCF71FFBF9E7004402587C7900086B
:104380000C00002008000020034B1B78034A116832
:104390000B441360704700BF00000020DC010020C8
:1043A000014B1868704700BFDC010020014B186802
:1043B000000C70470010005C7047000090F83D3022
:1043C000DBB2012B3AD1022380F83D300268D3687A
:1043D00043F00103D36003681A4AB3F1804F18BF5A
:1043E00093421DD0A2F57C42934219D002F580621F
:1043F000934215D002F58062934211D002F57842C3
:1044000093420DD0A2F56C42934209D002F594324A
:10441000934205D01A6842F001021A6000207047EA
:104420009968094A0A40062A18BFB2F5803F07D0AA
:104430001A6842F001021A6000207047012070479C
:1044400000207047000001400700010070477047DE
:104450007047704710B5044603681A6912F0020FDE
:1044600011D0DA6812F0020F0DD06FF002021A615B
:104470000123037703689B6913F0030F79D0FFF7DB
:10448000E6FF0023237723681A6912F0040F12D085
:10449000DA6812F0040F0ED06FF004021A610223E2
:1044A000237723689B6913F4407F68D02046FFF789
:1044B000CEFF0023237723681A6912F0080F12D069
:1044C000DA6812F0080F0ED06FF008021A610423A8
:1044D00023772368DB6913F0030F57D02046FFF7DB
:1044E000B6FF0023237723681A6912F0100F12D049
:1044F000DA6812F0100F0ED06FF010021A61082364
:1045000023772368DB6913F4407F46D02046FFF70A
:104510009EFF0023237723681A6912F0010F03D04E
:10452000DA6812F0010F3FD123681A6912F0800F88
:1045300003D0DA6812F0800F3DD123681A6912F4B3
:10454000807F03D0DA6812F0800F3BD123681A69AC
:1045500012F0400F03D0DA6812F0400F39D123680F
:104560001A6912F0200F03D0DA6812F0200F37D149
:1045700010BDFFF76BFF2046FFF76AFF81E720467B
:10458000FFF764FF2046FFF763FF92E72046FFF73F
:104590005DFF2046FFF75CFFA3E72046FFF756FFCD
:1045A0002046FFF755FFB4E76FF001021A6120467D
:1045B000FCF7A0F8B8E76FF080021A61204600F01F
:1045C000CAF8BAE76FF480721A61204600F0C4F8A6
:1045D000BCE76FF040021A612046FFF73AFFBEE7E2
:1045E0006FF020021A61204600F0B4F8C0E7000026
:1045F00030B50368394A904214BF4FF0000E4FF0B7
:10460000010EB0F1804F14BF72464EF00102AAB9FC
:10461000334CA04214BF00240124324DA8420DD0D7
:1046200064B904F1804404F58234A04214BF00242C
:10463000012405F50065A84200D01CB123F07003E9
:104640004C68234312BB264A904214BF0022012229
:10465000244CA0421AD0CAB902F1804202F582323B
:10466000904214BF0022012204F50064A0420DD044
:1046700062B91D4A904214BF0022012204F59A3407
:10468000A04203D012B9194A904204D123F4407CCD
:10469000CB6843EA0C0323F080034A6913430360A9
:1046A0008A68C2620A688262114A904214BF7346E5
:1046B0004EF0010363B90C4B984214BF0023012351
:1046C00002F57052904203D013B9084B984201D1C1
:1046D0000B6903630123436130BD00BF000001404B
:1046E0000008004000040040004401400048014030
:1046F0000004014060B310B5044690F83D3013B398
:10470000022384F83D30214651F8040BFFF770FF77
:10471000012384F8483084F83E3084F83F3084F830
:10472000403084F8413084F8423084F8433084F8D3
:10473000443084F8453084F8463084F8473084F8B3
:104740003D30002010BD80F83C30FFF735FED7E744
:1047500001207047704770477047026852E8003F79
:1047600023F0C00342E800310029F6D1026802F1CB
:10477000080353E8003F23F40003083242E8003105
:104780000029F3D12023C0F888307047026852E82E
:10479000003F23F4907342E800310029F6D102680B
:1047A00002F1080353E8001F0D4B0B40083242E8AA
:1047B00000310029F3D1C36E012B06D02023C0F8AD
:1047C0008C300023C36643677047026852E8003F9D
:1047D00023F0100342E800310029F6D1EEE700BFD4
:1047E000FEFFFFEF1346D0F88820202A3DD110B5F8
:1047F0000446002B18BF002939D00165A0F85430B9
:10480000A0F856300022C0F890202122C0F888205D
:10481000C26FCAB11749D163C26F17491164C26F21
:104820001649D164C26F0021116502682832016DFA
:10483000C06FFEF771FD38B11023C4F8903020230B
:10484000C4F8883001200FE0236840221A622268F1
:1048500002F1080353E8003F43F08003083242E8C6
:1048600000310029F3D1002010BD02207047012043
:10487000FAE700BF83480008EF480008FB4800083B
:10488000704708B50346806BDB69B3F5807F18D0AD
:104890000023A0F85630026802F1080353E8003FF5
:1048A00023F08003083242E800310029F3D1026886
:1048B00052E8003F43F0400342E800310029F6D1BE
:1048C00008BDFFF7DDFFFBE708B5026852E8003FCF
:1048D00023F0400342E800310029F6D12023C0F83C
:1048E000883000238367FFF7CBFF08BD704708B50A
:1048F000806BFFF7FBFF08BD704738B5846BD4F8B9
:104900008820D4F88C5023689B6813F0800F01D066
:10491000212A10D023689B6813F0400F01D0222D6C
:1049200010D0D4F8903043F01003C4F890302046F3
:10493000FFF7E2FF38BD0023A4F856302046FFF70A
:104940000CFFE7E70023A4F85E302046FFF71EFFC8
:10495000E7E708B5806B0023A0F85E30A0F856307A
:10496000FFF7CAFF08BD704770B504460168CB6900
:1049700008688D6840F60F021A4008D113F0200F26
:1049800005D010F0200F34D115F0805F31D12AB15D
:104990008B4A2A4033D18B4E304230D1E26E012A0D
:1049A00000F0C68013F4801F03D015F4800F40F090
:1049B0009B8113F0800F07D010F0800F40F09B8197
:1049C00015F4000F40F0978113F0400F03D010F062
:1049D000400F40F0978113F4000F03D010F0804F88
:1049E00040F0948113F0807F02D00028C0F29281C1
:1049F00070BD636F002BFBD020469847F8E713F09B
:104A0000010F09D010F4807F06D001260E62D4F881
:104A100090103143C4F8901013F0020F0BD015F032
:104A2000010F08D0216802260E62D4F8901041F0E0
:104A30000401C4F8901013F0040F0BD015F0010F0F
:104A400008D0216804260E62D4F8901041F00201CB
:104A5000C4F8901013F0080F0BD010F0200F00D105
:104A60003AB1226808211162D4F890200A43C4F8B0
:104A7000902013F4006F0CD010F0806F09D02268E2
:104A80004FF400611162D4F8902042F02002C4F883
:104A90009020D4F89020002AAAD013F0200F09D03B
:104AA00010F0200F02D115F0805F03D0636F0BB1BF
:104AB00020469847D4F8902023689B6813F0400F55
:104AC00002D112F0280F2CD02046FFF75FFE23689A
:104AD0009B6813F0400F20D0226802F1080353E8CE
:104AE000003F23F04003083242E800310029F3D1AF
:104AF000D4F880306BB1344A1A65D4F88000FEF7E0
:104B0000F7FE00283FF474AFD4F88000036D984797
:104B10006EE72046FFF7F0FE6AE72046FFF7ECFE5F
:104B200066E72046FFF7E8FE0023C4F890305FE711
:104B300013F0100F3FF436AF10F0100F3FF432AF08
:104B400010230B6223689B6813F0400F00F09280E3
:104B5000D4F8802013681D481D498B4218BF83423A
:104B600038D018318B4235D018318B4232D01831C1
:104B70008B422FD018318B422CD018318B4229D048
:104B800018318B4226D001F556718B4222D0183154
:104B90008B421FD018318B421CD018318B4219D058
:104BA00018318B4216D018318B4213D018318B42FA
:104BB00010D018318B420DD05B689BB20CE000BF67
:104BC00001000010200100045349000810000240B9
:104BD000280002405B689BB2002B3FF409AFB4F899
:104BE0005C1099427FF604AFA4F85E30D369B3F548
:104BF000807F32D0226852E8003F23F4807342E87D
:104C000000310029F6D1226802F1080353E8003F81
:104C100023F00103083242E800310029F3D1226871
:104C200002F1080353E8003F23F04003083242E852
:104C300000310029F3D12023C4F88C300023E3662F
:104C4000226852E8003F23F0100342E800310029B7
:104C5000F6D1D4F88000FEF7ABFC02232367B4F84A
:104C60005C10B4F85E309BB2C91A89B22046FFF7D7
:104C70007AFEBDE6B4F85C10B4F85E309BB2C91A97
:104C800089B2B4F85E309BB2002B3FF4B1AE00297C
:104C90003FF4AEAE226852E8003F23F4907342E83E
:104CA00000300028F6D1226802F1080353E8000F13
:104CB0001A4B0340083242E800300028F3D1202389
:104CC000C4F88C300023E3666367226852E8003F33
:104CD00023F0100342E800300028F6D102232367B6
:104CE0002046FFF740FE83E64FF480130B62204618
:104CF00000F080FC7CE6A36F002B3FF479AE2046E9
:104D0000984775E62046FFF7DFFD71E6204600F084
:104D100073FC6DE6204600F06EFC69E6FEFFFFEFD7
:104D200070B586B00446016883680269134342691E
:104D30001343C26913430868884A024013430B6057
:104D40002268536823F44053E1680B435360A16920
:104D50002268834B9A4201D0236A19439068814BA1
:104D600003400B4393602268D36A23F00F03616A08
:104D70000B43D36222687C4B9A4221D07B4B9A42F0
:104D800000F08C807A4B9A4200F0A280794B9A42D4
:104D900000F0B580784B9A4200F0C880774B9A4279
:104DA00000F0F480764B9A4200F01981754B9A42DC
:104DB00000F02C816A4B9A4200F03F81802333E05F
:104DC000714B5B6D03F03803282B65D8DFE813F0D7
:104DD00029006400640064006400640064006400EE
:104DE0004D016400640064006400640064006400B9
:104DF0002B006400640064006400640064006400CC
:104E00005E00640064006400640064006400640088
:104E10006000640064006400640064006400640076
:104E20006200012300E008234D498A4200F02F81EF
:104E3000E069B0F5004F00F0AF81202B00F207824F
:104E4000202B00F25182DFE813F01E0224024F02F1
:104E50004F0227024F024F024F022C024F024F0215
:104E60004F024F024F024F024F0231024F024F02D8
:104E70004F024F024F024F024F024F024F024F02AA
:104E80004F024F024F024F024F023D021023CBE769
:104E90002023C9E74023C7E78023C5E73A4B5B6D72
:104EA00003F00703052B11D8DFE813F00600E1003B
:104EB00008000A000C000E000023B5E70823B3E742
:104EC0001023B1E72023AFE74023ADE78023ABE712
:104ED0002D4B5B6D03F00703052B0ED8DFE803F0C5
:104EE00003C90507090B00239EE708239CE710234D
:104EF0009AE7202398E7402396E7802394E7224B04
:104F00005B6D03F00703052B0ED8DFE803F003B455
:104F10000507090B002387E7082385E7102383E7AC
:104F2000202381E740237FE780237DE7164B5B6DDD
:104F300003F00703052B0ED8DFE803F0039F0507F6
:104F4000090B002370E708236EE710236CE720238A
:104F50006AE7402368E7802366E700BFF369FFCF75
:104F6000000C0058FFF4FF11001001400044004005
:104F700000480040004C0040005000400014014038
:104F800000780040007C0040004402587D4B5B6D7F
:104F900003F03803282B20D8DFE803F0151F1F1F6C
:104FA0001F1F1F1F711F1F1F1F1F1F1F171F1F1FC7
:104FB0001F1F1F1F191F1F1F1F1F1F1F1B1F1F1F0B
:104FC0001F1F1F1F1D0001232EE708232CE710239E
:104FD0002AE7202328E7402326E7802324E7694B9C
:104FE0005B6D03F00703052B0ED8DFE803F0034ADF
:104FF0000507090B002317E7082315E7102313E71C
:10500000202311E740230FE780230DE75D4B5B6D05
:1050100003F00703052B0ED8DFE803F0033505077F
:10502000090B002300E70823FEE61023FCE62023FB
:10503000FAE64023F8E68023F6E603F50E339B6D8F
:1050400003F00703052B0ED8DFE803F0031F050765
:10505000090B0223E8E60823E6E61023E4E6202312
:10506000E2E64023E0E68023DEE60423DCE60423D8
:10507000DAE60423D8E60423D6E60423D4E60423A0
:10508000D2E60423D0E60423CEE60423CCE6202B8C
:1050900027D8022BC0F01A81023B1E2B00F2188188
:1050A000DFE813F050001601560016011601160134
:1050B0005B001601160116011601160116011601F4
:1050C00060001601160116011601160116011601DF
:1050D0001601160116011601160116011601160118
:1050E0006C00402B2CD14FF40040626A264B33F801
:1050F0001220B0FBF2F3656805EB4501994200F21E
:10510000E980B3EB053F00F2E780002633463146E5
:10511000FBF7E6F8090241EA106100026B08C018CB
:105120002A46334641F10001FBF7DAF8A0F5407258
:10513000164B9A4200F2D2802368D8603046D4E001
:105140000120D2E0FDF7C0F90028CED10020CCE04C
:1051500003A8FDF7CBF90498F6E76846FDF7C2FA15
:105160000198F1E7074B1B6813F0200F08D0054B9F
:105170001B68C3F3C1030648D840E5E70548B4E718
:105180000348B2E70044025854790008FFFC0F00BE
:105190000090D00300093D00202B15D8202B00F2F1
:1051A0009F80DFE803F031379D9D3A9D9D9D3F9D97
:1051B0009D9D9D9D9D9D449D9D9D9D9D9D9D9D9D78
:1051C0009D9D9D9D9D9D5000402B1BD1626A4D4B26
:1051D00033F81230B0FBF3F06268530803EB400081
:1051E000B0FBF2F0A0F110024FF6EF739A4279D8BB
:1051F00083B223F00F03C0F3420018432368D86042
:10520000002072E0012070E0FCF7BEFA0028DDD13A
:1052100000206AE0FCF7CAFAF8E703A8FDF766F990
:105220000498F3E76846FDF75DFA0198EEE7364B20
:105230001B6813F0200F08D0334B1B68C3F3C10366
:105240003248D840E2E73248C0E73048BEE7402B5A
:1052500017D14FF40040626A2A4B33F81230B0FB8A
:10526000F3F0636800EB5300B0FBF3F0A0F1100221
:105270004FF6EF739A4242D8236880B2D86000207C
:1052800033E0012031E0FCF77FFA0028E3D1002071
:105290002BE0FCF78BFAF8E703A8FDF727F9049851
:1052A000F3E76846FDF71EFA0198EEE7164B1B6818
:1052B00013F0200F08D0144B1B68C3F3C10313482D
:1052C000D840E2E71248C6E71048C4E701200CE0E6
:1052D00001200AE0012008E0012006E0012004E0AE
:1052E000012002E0012000E001200123A4F86A303F
:1052F000A4F8683000236367A36706B070BD01207F
:10530000F3E700BF54790008004402580090D0032E
:1053100000093D00836A13F0010F06D0026853684C
:1053200023F40033C16A0B435360836A13F0020F06
:1053300006D00268536823F48033016B0B4353603B
:10534000836A13F0040F06D00268536823F48023A5
:10535000416B0B435360836A13F0080F06D0026859
:10536000536823F40043816B0B435360836A13F04B
:10537000100F06D00268936823F48053C16B0B436F
:105380009360836A13F0200F06D00268936823F4B9
:105390000053016C0B439360836A13F0400F0AD0F3
:1053A0000268536823F48013416C0B435360436CD1
:1053B000B3F5801F0BD0836A13F0800F06D002680C
:1053C000536823F40023C16C0B4353607047026899
:1053D000536823F4C003816C0B435360EBE72DE962
:1053E000F84305460F4616469946DDF820802C689E
:1053F000E46937EA04030CBF4FF0010C4FF0000CD6
:10540000B44532D1B8F1FF3FF1D0FEF7C9FFA0EBB0
:10541000090040452CD8B8F1000F2BD02B681A6832
:1054200012F0040FE3D0DA6912F0080F11D1DA6933
:1054300012F4006FDBD04FF400621A622846FFF7C7
:10544000A5F92023C5F89030002385F88430032087
:105450000CE008241C622846FFF798F9C5F8904034
:10546000002385F88430012000E00020BDE8F883A7
:105470000320FBE70320F9E730B583B0044600239F
:10548000C0F89030FEF78CFF05462268126812F0D3
:10549000080F10D123681B6813F0040F28D12023B4
:1054A000C4F88830C4F88C300020E066206784F8A7
:1054B000840003B030BD6FF07E43009303460022AA
:1054C0004FF400112046FFF78AFF0028E2D022683F
:1054D00052E8003F23F0800342E800310029F6D172
:1054E0002023C4F88830002384F884300320E0E7C8
:1054F0006FF07E4300932B4600224FF4800120463C
:10550000FFF76DFF0028CAD0226852E8003F23F45D
:10551000907342E800310029F6D1226802F10803B5
:1055200053E8003F23F00103083242E8003100292C
:10553000F3D12023C4F88C30002384F88430032076
:10554000B7E778B310B50446D0F888300BB32423FE
:10555000C4F888302268136823F0010313602046E2
:10556000FFF7DEFB012813D0A36ABBB9226853689A
:1055700023F4904353602268936823F02A039360D6
:105580002268136843F0010313602046FFF774FF9D
:1055900010BD80F88430FBF74FFAD8E72046FFF7BC
:1055A000B9FEE3E701207047436E2BB90123A0F851
:1055B0006A30A0F86830704730B403689A68C2F364
:1055C00042629968490F094D6B5C1B01084C615C94
:1055D00093FBF1F3A0F86A30AB5C1B01A25C93FB78
:1055E000F2F3A0F8683030BC704700BF747900084F
:1055F0006C79000870477047704790F88430012B31
:105600001DD010B50446012380F884302423C0F84F
:10561000883002681368116821F00101116043F0BD
:1056200000534FF00052426602681360FFF7BCFF60
:105630002023C4F88830002084F8840010BD0220A4
:10564000704738B590F88430012B1DD004460123F3
:1056500080F884302423C0F8883003681D681A68F5
:1056600022F001021A600268936823F06043194334
:105670009160FFF799FF23681D602023C4F88830EC
:10568000002084F8840038BD0220FCE738B590F88B
:105690008430012B1DD00446012380F8843024235C
:1056A000C0F8883003681D681A6822F001021A6089
:1056B0000268936823F0606319439160FFF774FFF9
:1056C00023681D602023C4F88830002084F88400FB
:1056D00038BD0220FCE700002D4BD3F8882042F4AF
:1056E0007002C3F888201A6942F010021A61294B2F
:1056F0001B6803F00F03062B06D8264A136823F015
:105700000F0343F007031360234B1A6842F00102B2
:105710001A6000221A611968204A0A401A601D4B5B
:105720001B6813F0080F06D01A4A136823F00F0302
:1057300043F007031360184B00229A61DA611A6282
:10574000174999621749D962174919635A639963CE
:10575000DA6319645A64196821F4802119601A66A1
:105760004FF0B042D2F8E43043F48043C2F8E43062
:105770000E4B1A680E4B1340B3F1005F03D20D4B72
:105780000122C3F808210C4B43F2D2021A60704781
:1057900000ED00E000200052004402587FEDF6EAE0
:1057A000000202020000FF01800201010010005C03
:1057B0000000FFFF00800051004000520F2801D977
:1057C0000120704710B58AB0044600220146192016
:1057D000FBF7D6F91920FBF709FA174B1C60174B9A
:1057E000D3F8F02042F00102C3F8F020D3F8F030F3
:1057F00003F001030093009B01A902A8FBF7E8FF57
:10580000FBF7D4FF0E4BA3FB00239B0C013B0D4881
:105810000D4A026040F2E732C26043600023036138
:105820008360FEF767FF10B101200AB010BD054884
:10583000FEF7C4FDF9E700BF040000200044025851
:1058400083DE1B43E00100200000014038B5044620
:1058500003680A4ADA60FEF7A3FD05462368DB68A1
:1058600013F0200F07D1FEF79BFD401BB0F57A7FA8
:10587000F4D9032000E0002038BD00BF5FFF030023
:1058800070B50368DA6812F0400F02D00025284690
:1058900070BD04464FF0FF32DA60FEF781FD064628
:1058A00000252368DB6813F0400FF0D1032DEED004
:1058B000FEF776FD831BB3F57A7FF2D9032584F8D2
:1058C0002150EEE710B50446114BDA6822F0400291
:1058D000DA609B6813F0200F07D1FFF7B7FF03468C
:1058E000A0B1032384F8213010E0094A936823F023
:1058F00020039360FFF7AAFF034610B1032384F847
:10590000213003498A6842F020028A60184610BD9F
:105910000040005800284AD038B5044690F821309D
:1059200063B1022384F821302368DA6812F0100F83
:1059300009D00020012384F8213038BD80F82030C0
:10594000FBF752F8EDE7CA225A62236853225A62E3
:105950002046FFF795FF90B158B92268D36C23F029
:105960000303D3642168CB6CE26965692A4313435E
:10597000CB642368FF225A620028DED1DAE722686E
:1059800091680C4B0B40936021688A6863682069BA
:105990000343A069034313438B60A168E368226853
:1059A00043EA014313612046FFF78CFFD4E701204F
:1059B000704700BFBFFF8FFF002302E001330A38AA
:1059C000C0B20928FAD81B01DBB2184370470000A7
:1059D00090F82030012B5BD070B504460D4616467A
:1059E000012380F82030022380F821300368CA2286
:1059F0005A62036853225A62FFF742FF58BB002ED7
:105A000034D123689B6813F0400F01D10023EB7061
:105A10002878FFF7D1FF06046878FFF7CDFF46EA44
:105A20000026A878FFF7C8FF3043EB7840EA8350A0
:105A30002268184B034013602268936823F4802384
:105A4000936021688B68EA682869024313438B607E
:105A50002046FFF737FF2368FF225A6210B901235F
:105A600084F82130002384F8203070BD23689B68BF
:105A700013F0400F01D10023EB702B7868780002FF
:105A800040EA0340AB781843EB7840EA8350CFE715
:105A9000022070477F7F7F0090F82030012B4AD092
:105AA00070B504460E46012380F82030022380F8AA
:105AB00021303AB94B7813F0100F03D003F0EF0305
:105AC0000A334B7022BBF078FFF776FF050470783D
:105AD000FFF772FF45EA0025B078FFF76DFF054339
