:020000040800F2
:1000000000000A201D2A0008B9060008BB060008E7
:10001000BD060008BF060008C10600080000000079
:10002000000000000000000000000000C3060008FF
:10003000C506000800000000C7060008C906000841
:100040006D2A00086D2A00086D2A00086D2A000834
:100050006D2A00086D2A00086D2A00086D2A000824
:100060006D2A00086D2A00086D2A00086D2A000814
:100070006D2A00086D2A00086D2A00086D2A000804
:100080006D2A00086D2A00086D2A00086D2A0008F4
:100090006D2A00086D2A00086D2A00086D2A0008E4
:1000A0006D2A00086D2A00086D2A00086D2A0008D4
:1000B0006D2A00086D2A00086D2A00086D2A0008C4
:1000C0006D2A00086D2A00086D2A00086D2A0008B4
:1000D0006D2A00086D2A00086D2A00086D2A0008A4
:1000E0006D2A00086D2A00086D2A00086D2A000894
:1000F0006D2A00086D2A00086D2A00080000000023
:100100006D2A00086D2A00086D2A00086D2A000873
:100110006D2A00086D2A00086D2A00086D2A000863
:100120006D2A00086D2A00086D2A00086D2A000853
:100130006D2A00086D2A00086D2A00086D2A000843
:100140006D2A00086D2A00086D2A00086D2A000833
:100150006D2A00086D2A00086D2A00086D2A000823
:100160006D2A00086D2A00086D2A00086D2A000813
:100170006D2A00086D2A0008000000000000000041
:100180006D2A00086D2A00086D2A00086D2A0008F3
:100190006D2A00086D2A0008000000000000000021
:1001A00000000000000000006D2A00086D2A000811
:1001B0006D2A00086D2A00086D2A00080000000062
:1001C00053B94AB9002908BF00281CBF4FF0FF31BE
:1001D0004FF0FF3000F00CB8ADF1080C6DE904CE23
:1001E00002F072FCDDF804E0DDE9022304B07047A0
:1001F000704700BF10B5054C237833B9044B13B1D9
:100200000448AFF300800123237010BD10000020CC
:1002100000000000842D000808B5034B1BB1034902
:100220000348AFF3008008BD000000001400002068
:10023000842D0008F0B58DB0002507950895099527
:100240000A950B95374CE36C43F00403E364E36CCD
:1002500003F004030193019BE36C43F08003E36428
:10026000E36C03F080030293029BE36C43F0020310
:10027000E364E36C03F002030393039BE36C43F03A
:100280000803E364E36C03F008030493049BE36C4A
:1002900043F04003E364E36C03F040030593059BE4
:1002A00000F036FDE36C43F00103E364E36C03F01C
:1002B00001030693069B1C4F2A464FF481413846A2
:1002C00000F0D0FB194C2A464021204600F0CAFB22
:1002D0004FF4005307934FF488130893099507A927
:1002E000134800F0C7FA4FF481430793012608969C
:1002F00009950A9507A9384600F0BCFA2023079310
:100300000895099507A9204600F0B4FA4023079301
:10031000089609950A9507A9204600F0ABFA0DB09A
:10032000F0BD00BF00100240000400480018004863
:100330000008004872B6FEE708B51648164B036081
:10034000164B43604FF0805383600023C36003610A
:100350000C2242618361036243628362436602F05E
:1003600006F970B900210B4802F079F958B900215B
:10037000084802F099F940B9064802F051F930B93D
:1003800008BDFFF7D7FFFFF7D5FFFFF7D3FFFFF754
:10039000D1FF00BFCC0500200080004024330300C3
:1003A00008B51548154B03604FF4E1334360002353
:1003B0008360C36003610C2242618361C361036295
:1003C0004362836202F0D3F870B900210A4802F058
:1003D00046F958B90021084802F066F940B90648C4
:1003E00002F01EF930B908BDFFF7A4FFFFF7A2FF26
:1003F000FFF7A0FFFFF79EFF3805002000480040F0
:1004000008B50B484FF0A043036006234360022366
:10041000036183610123C36100220262426283623D
:100420000263C36200F023FB00B908BDFFF782FF3F
:100430002C00002000B597B04422002105A802F04E
:1004400016FB00200090019002900390049000F0B1
:10045000D1FB38BB222305934FF48073089301230B
:100460000E934023099302230F93109311931E229E
:10047000129213931493159305A800F02FFD98B9C9
:100480000F23009303230193002302934FF4806210
:10049000039204930521684601F05EF830B917B065
:1004A0005DF804FBFFF746FFFFF744FFFFF742FF4D
:1004B00008B500F03FF9FFF7BDFFFFF7BBFEFFF700
:1004C0003BFFFFF76DFFFFF79BFFFEE782B00A4B94
:1004D0001A6E42F001021A661A6E02F001020092D0
:1004E000009A9A6D42F080529A659B6D03F080539A
:1004F0000193019B02B070470010024010B5AEB0EE
:100500000446002129912A912B912C912D9194221E
:1005100004A802F0ACFA2368304A934204D0304A6F
:1005200093422FD02EB010BD2023049304A801F0D5
:10053000ABFA20BB2B4BDA6D42F00102DA65DA6DC3
:1005400002F001020092009ADA6C42F04002DA6492
:10055000DB6C03F040030193019B00F0D9FB4FF4E7
:10056000C073299302232A9300232B9303232C93F4
:1005700008232D9329A91C4800F07CF9D2E7FFF746
:10058000D9FED7E70423049304A801F07DFA10BB39
:10059000144B9A6D42F480229A659A6D02F480227F
:1005A0000292029ADA6C42F00802DA64DB6C03F021
:1005B00008030393039B4FF44073299302232A9368
:1005C00000232B9303232C9307232D9329A907485A
:1005D00000F050F9A6E7FFF7ADFED9E70080004034
:1005E000004800400010024000180048000C00487D
:1005F00030B5AFB00446002129912A912B912C915E
:100600002D91942204A802F032FA2368B3F1A04F8E
:1006100001D02FB030BD4FF40053049304A801F073
:1006200033FA002840D1234CE36C43F00103E36428
:10063000E36C03F001030193019B4FF4E85329930A
:1006400002232A9300252B9503232C930A232D9311
:1006500029A94FF0904000F00DF94FF40073299351
:100660002A952B9529A94FF0904000F003F9E36CEF
:1006700043F48053E364E36C03F480530293029BDE
:10068000A36D13F0805F12D1A36D43F08053A36577
:10069000A36D03F080530393039B00F031FBA36D24
:1006A00023F08053A365B4E7FFF744FEBBE700F0F7
:1006B00027FBAEE700100240FEE7FEE7FEE7FEE79D
:1006C000FEE770477047704708B500F043F808BD73
:1006D000034AD2F8883043F47003C2F88830704778
:1006E00000ED00E0104B1B780BB90120704710B5EE
:1006F00004464FF47A70B0FBF3F30C4A1068B0FB79
:10070000F3F000F0A3F868B90F2C01D901200AE03A
:10071000002221464FF0FF3000F088F8044B1C60A7
:10072000002000E0012010BD040000200000002097
:100730000800002010B5032000F066F80020FFF745
:10074000D1FF10B10124204610BD0446FFF7BEFEC4
:10075000F9E70000034B1B78034A11680B44136050
:10076000704700BF0400002060060020014B18689D
:10077000704700BF6006002038B50446FFF7F6FF5B
:100780000546B4F1FF3F02D0044B1B781C44FFF731
:10079000EDFF401BA042FAD338BD00BF040000208B
:1007A000002808DB0901C9B200F1604000F5614092
:1007B00080F80013704700F00F000901C9B2014B27
:1007C0001954704714ED00E000B500F00700C0F1C7
:1007D000070CBCF1040F28BF4FF0040C031D062BBF
:1007E0000FD9C31E4FF0FF3E0EFA0CF021EA0001B4
:1007F00099400EFA03FE22EA0E0241EA02005DF879
:1008000004FB0023EEE70000074AD36823F4E0630B
:100810001B041B0C000200F4E060034343F0BF63C1
:1008200043F40033D360704700ED00E010B5044698
:10083000054BD868C0F30220FFF7C6FF01462046EB
:10084000FFF7AEFF10BD00BF00ED00E00138B0F1D2
:10085000807F0BD24FF0E0235861054AF02182F8E7
:1008600023100020986107221A6170470120704709
:1008700000ED00E0F0B583B0002362E085685E0023
:100880000324B44025EA0405CC68B4402C438460BA
:10089000456825EA0C054C68C4F300149C402C43C1
:1008A000446060E0DD08083550F8254003F0070C8F
:1008B0004FEA8C0C4FF00F0E0EFA0CFE24EA0E0ECF
:1008C0000C6904FA0CF444EA0E0440F8254061E097
:1008D000072400E0002404FA0EF42C430CF1020C6F
:1008E0005C4D45F82C405C4CA568D44325EA0206D3
:1008F0004F6817F4801F01D042EA0506564DAE60DE
:10090000ED6804EA05064F6817F4001F01D042EABB
:100910000506514DEE606D6804EA05064F6817F450
:10092000003F01D042EA05064B4D6E602D682C4019
:100930004E6816F4803F01D042EA0504464A14602E
:1009400001330A6832FA03F400F081804FF0010CA1
:100950000CFA03FC1CEA0202F2D04C6804F0030417
:10096000013C012C8AD94C6804F00304032C0CD000
:10097000C4685D004FF0030C0CFA05FC24EA0C0C73
:100980008C68AC4044EA0C04C4604C6804F0030476
:10099000022C87D004684FEA430E4FF0030C0CFA88
:1009A0000EFC24EA0C0C4C6804F0030404FA0EF468
:1009B00044EA0C0404604C6814F4403FC0D0274C57
:1009C000256E45F001052566246E04F001040194AE
:1009D000019C4FEA930C0CF102051E4C54F8255073
:1009E00003F0030E4FEA8E0E0F2404FA0EF425EAEC
:1009F0000405B0F1904F3FF46DAF194CA0421AD0EE
:100A000004F58064A04218D004F58064A04216D09A
:100A100004F58064A04214D004F58064A04212D092
:100A200004F58064A04210D004F58064A0423FF435
:100A30004FAF08244FE701244DE702244BE703247E
:100A400049E7042447E7052445E7062443E703B0C4
:100A5000F0BD00BF00000140000401400010024052
:100A6000000400480AB1816170478162704770B527
:100A70008AB0002800F097800546046890F8BD34DD
:100A80003BB3032385F8BD34E36B13F4807F01D1BE
:100A90000023EB60286801F071FE2C4654F8106BBF
:100AA000EC460FCCACE80F000FCCACE80F0094E89C
:100AB00003008CE803002B1D0ECB304601F042FEF4
:100AC000044658B1022385F8BD34012420460AB0FB
:100AD00070BD80F8BC34FFF78BFDD2E70021286899
:100AE00001F06AFF234616E003EBC30205EB820226
:100AF000012182F83D1082F83C30A2F856300021E6
:100B000082F840105164916403EBC30205EB82024A
:100B1000D1640133DBB269688B42E5D316E004EBA4
:100B2000C40305EB8303002283F87D2283F87C4213
:100B300083F88022C3F88422C3F8882204EBC4031C
:100B400005EB8303C3F88C220134E4B2A142E6D85A
:100B50002C4654F8106BEC460FCCACE80F000FCCD1
:100B6000ACE80F0094E803008CE803002B1D0ECBCB
:100B7000304601F05FFE044660B9002385F8383046
:100B8000012385F8BD346B6A012B08D0286801F079
:100B900001FF9BE7022385F8BD34012496E7284630
:100BA00000F003F8F2E7012490E703460268012110
:100BB000C0F80015002083F8F404936943F0006343
:100BC0009361536D43F0805343F0030353657047C3
:100BD000074B186800F4C060B0F5806F04D0D3F8FC
:100BE000800010F4807000D170474FF40070FBE774
:100BF00000700040002836D13E4B1B6803F4C063F0
:100C0000B3F5806F08D03B4AD2F8803023F480736C
:100C1000C2F8803000207047364AD2F8803023F482
:100C20008073C2F88030136823F4C06343F4007308
:100C30001360314B1B68322202FB03F32F4AA2FBE5
:100C400003239B0C013300E0013B2A4A526912F452
:100C5000806F01D0002BF7D1264B5B6913F4806FB6
:100C600044D100207047B0F5007F08D0214A1368B6
:100C700023F4C06343F480631360002070471D4B6E
:100C80001B6803F4C063B3F5806F08D0194AD2F82B
:100C9000803043F48073C2F8803000207047154ADA
:100CA000D2F8803043F48073C2F88030136823F4A4
:100CB000C06343F4007313600F4B1B68322202FBC6
:100CC00003F30E4AA2FB03239B0C013300E0013B1C
:100CD000084A526912F4806F01D0002BF7D1054BFE
:100CE0005B6913F4806F03D10020704703207047C5
:100CF00003207047007000400000002083DE1B438B
:100D0000024A536843F480635360704700700040A8
:100D1000024A536843F40073536070470070004008
:100D20001A4BDB6803F00303022B16D0032B16D0FB
:100D3000012B29D1154B1B6813F0080F08D1134B59
:100D4000D3F89430C3F30323114A52F8231007E079
:100D50000E4B1B68C3F30313F6E70E4900E00E4980
:100D60000A4AD368C3F303130133D068C0F30620E3
:100D700001FB00F0B0FBF3F0D368C3F34163013330
:100D80005B00B0FBF3F070470021E9E70010024080
:100D9000A02D00080024F40000127A0030B583B0C2
:100DA00004461F4B9B6D13F0805F0AD0FFF710FFC6
:100DB000B0F5007F16D07F2C1ED8702C2BD00021D0
:100DC0001BE0174DAB6D43F08053AB65AB6D03F08B
:100DD00080530193019BFFF7FBFEAB6D23F0805323
:100DE000AB65E5E7802C03D9A02C03D9022104E0F0
:100DF000002102E0012100E002210A4A136823F0E9
:100E00000F030B431360136803F00F038B4204D1ED
:100E1000002003B030BD0121EFE70120F9E700BF5A
:100E20000010024000200240284A9368D26802F075
:100E3000030213F00C030AD00C2B06D0042B1FD096
:100E4000082B20D00020024610E0012AF6D11F4ACC
:100E5000126812F0080F0CD11C4AD2F89420C2F389
:100E600003221B4951F8222043B100200C2B0DD046
:100E70007047164A1268C2F30312F2E71046F5E70C
:100E800014480022F2E714480022EFE70F4BDB681A
:100E900003F00303022B03D0032B02D10E4A00E020
:100EA0000C4A0A49CB68C3F303130133C868C0F383
:100EB000062002FB00F0B0FBF3F0CB68C3F3416304
:100EC00001335B00B0FBF3F0D2E700BF001002403B
:100ED000A02D00080024F40000127A00002800F081
:100EE0002283F0B583B00446964B9D6805F00C054F
:100EF000DE6806F00306036813F0100F5AD0E5B160
:100F00000C2D18D0A369002B00F0BB808D4A13680C
:100F100043F001031360FFF729FC0746894B1B6868
:100F200013F0020F40F09A80FFF720FCC01B02284C
:100F3000F4D9032002E3012EE4D1824B1B6813F0A5
:100F4000020F03D0A369002B00F0EF82206A7D4BD3
:100F50001B6813F0080F5BD07A4B1B6803F0F0039B
:100F600098425CD8774B1A6842F008021A601A68F7
:100F700022F0F002216A0A431A605A6822F47F4282
:100F8000E16942EA01225A60002D60D0FFF74CFF70
:100F90006C4B9B68C3F303136B4AD35C03F01F03D2
:100FA000D8406A4B18606A4B1868FFF79BFB002813
:100FB00040F0C482236813F0010F00F08180082DF7
:100FC00075D00C2D71D06368B3F5803F00F0978029
:100FD000B3F5A02F00F099805A4B1A6822F48032A2
:100FE0001A601A6822F480221A606368002B00F0ED
:100FF0009980FFF7BBFB0746524B1B6813F4003F79
:101000005ED1FFF7B3FBC01B6428F5D9032095E23E
:101010004C4BD3F894301B0903F0F003A0E7FFF723
:10102000BDFE002840F08382464B1A6842F0080259
:101030001A601A6822F0F002216A0A431A605A689C
:1010400022F47F42E16942EA01225A609EE7206A67
:10105000FFF7A4FE002899D001206FE2394B1A68EF
:1010600042F008021A601A6822F0F002216A0A436C
:101070001A605A6822F47F42E16942EA01225A600A
:1010800098E7304A136823F001031360FFF76EFB03
:1010900007462C4B1B6813F0020F8BD0FFF766FB43
:1010A000C01B0228F5D9032048E2032E8BD1254B23
:1010B0001B6813F4003F03D06368002B00F03982F3
:1010C000236813F0020F58D0042D45D00C2D41D0C9
:1010D000E368002B77D01B4A136843F480731360D6
:1010E000FFF744FB0646174B1B6813F4806F61D172
:1010F000FFF73CFB801B0228F5D903201EE2114AB2
:10110000136843F4803313606FE703F18043A3F562
:101110003C331A6842F480221A601A6842F4803222
:101120001A6062E7FFF722FB0746064B1B6813F4C1
:10113000003FC5D0FFF71AFBC01B6428F5D9032078
:10114000FCE100BF00100240D82D00080000002084
:1011500008000020022EBBD1A74B1B6813F4806F40
:1011600003D0E368002B00F0E681A34A536823F024
:10117000FE43216943EA01635360236813F0080FBB
:101180004CD063699BB39C4AD2F8943043F001037E
:10119000C2F89430FFF7EAFA0646974BD3F894303A
:1011A00013F0020F3AD1FFF7E1FA801B0228F4D9BD
:1011B0000320C3E1904A536823F0FE43216943EAC8
:1011C00001635360D9E78C4A136823F4807313607A
:1011D000FFF7CCFA0646884B1B6813F4806FCCD01F
:1011E000FFF7C4FA801B0228F5D90320A6E1824A42
:1011F000D2F8943023F00103C2F89430FFF7B6FA26
:1012000006467D4BD3F8943013F0020F06D0FFF75B
:10121000ADFA801B0228F4D903208FE1236813F074
:10122000040F7AD0744B9B6D13F0805F36D1724BF4
:101230009A6D42F080529A659B6D03F08053019342
:10124000019B01266D4B1B6813F4807F28D0A36897
:10125000012B39D0052B3FD0674BD3F8902022F0DB
:101260000102C3F89020D3F8902022F00402C3F8C2
:101270009020A368002B3DD0FFF778FA07465E4B1D
:10128000D3F8903013F0020F46D1FFF76FFAC01B6E
:1012900041F288339842F2D903204FE10026D1E78A
:1012A000564A136843F480731360FFF75FFA0746EA
:1012B000524B1B6813F4807FC9D1FFF757FAC01B4C
:1012C0000228F5D9032039E14B4AD2F8903043F097
:1012D0000103C2F89030CCE7474BD3F8902042F09E
:1012E0000402C3F89020D3F8902042F00102C3F822
:1012F0009020BEE7FFF73AFA07463F4BD3F890300D
:1013000013F0020F08D0FFF731FAC01B41F2883307
:101310009842F2D9032011E1E6B9236813F0200FB7
:1013200035D0636AE3B1344AD2F8983043F0010310
:10133000C2F89830FFF71AFA06462F4BD3F89830C8
:1013400013F0020F23D1FFF711FA801B0228F4D902
:101350000320F3E0284A936D23F080539365DCE784
:10136000254AD2F8983023F00103C2F89830FFF7ED
:10137000FDF90646204BD3F8983013F0020F06D043
:10138000FFF7F4F9801B0228F4D90320D6E0A36A02
:10139000002B00F0D280022B17D00C2D00F0D4804F
:1013A000154A136823F080731360FFF7DFF90446D2
:1013B000114B1B6813F0007F00F0AE80FFF7D6F9E9
:1013C000001B0228F4D90320B8E00B4BDB6803F0C4
:1013D0000301E26A914213D00C2D00F0B180064B5C
:1013E0001B6813F0806F40F0AD80034B1B6813F057
:1013F000805F2FD00120A1E000100240007000406B
:1014000003F0F002216B0139B2EB011FE4D103F4C8
:10141000FE42616BB2EB012FDED103F07842A16B8B
:10142000B2EBC16FD8D103F4C001E26B5208013AAC
:10143000B1EB425FD0D103F0C063226C5208013A95
:10144000B3EB426FC8D1414B1B6813F0007F49D00A
:10145000002073E03D4A136823F080731360FFF7A8
:1014600085F90546394B1B6813F0007F06D0FFF75E
:101470007DF9401B0228F5D903205FE0334AD36889
:1014800033491940E36A206B013843EA0013606B6B
:1014900043EA0023E06B4008013843EA4053206CE4
:1014A0004008013843EA4063A06B43EAC063194334
:1014B000D160136843F080731360D36843F0807386
:1014C000D360FFF753F90446204B1B6813F0007FED
:1014D00006D1FFF74BF9001B0228F5D903202DE0B8
:1014E00000202BE0194B1A6842F080721A60DA680B
:1014F00042F08072DA60FFF739F90446134B1B683B
:1015000013F0007F06D1FFF731F9031B022BF5D949
:10151000032013E0002011E00C4AD1680D4B0B4072
:10152000D36000200AE001207047012006E001207E
:1015300004E0012002E0012000E0002003B0F0BD43
:101540000120FBE70120F9E70120F7E70010024046
:101550000C809D01FCFFEEFE002800F0EA80F8B54B
:101560000D460446774B1B6803F00F038B420BD2EA
:10157000744A136823F00F030B431360136803F0DE
:101580000F038B4240F0D780236813F0020F0CD07A
:10159000A2686D4B9B6803F0F0039A4205D96A4933
:1015A0008B6823F0F0031A438A60236813F0010F5D
:1015B0006ED06368032B0DD0022B25D0002B3CD1BD
:1015C00003F1804303F504331B6813F0020F21D1AC
:1015D0000120A7E05C4B1B6813F0007F01D10120C4
:1015E000A0E0FFF79DFB594B98422DD9564B9B68C5
:1015F00013F0F00F2AD1544A936823F0F00343F01C
:1016000080039360802724E04F4B1B6813F4003F56
:1016100000F09380FFF708FC4C4B984218D94A4BD6
:101620009B6813F0F00F2FD1474A936823F0F00323
:1016300043F08003936080270BE0434B1B6813F457
:10164000806FE7D101206DE0002702E0002700E075
:1016500000273D4A936823F0030361680B439360BE
:10166000FFF784F80646384B9B6803F00C0362686A
:10167000B3EB820F0AD0FFF779F8801B41F2883371
:101680009842F0D903204DE00027E2E7002F4AD12D
:10169000236813F0020F0CD0A2682B4B9B6803F059
:1016A000F0039A4205D228498B6823F0F0031A43CD
:1016B0008A60244B1B6803F00F03AB420AD9214A0E
:1016C000136823F00F032B431360136803F00F0319
:1016D000AB4234D1236813F0040F06D01A4A936842
:1016E00023F4E063E1680B439360236813F0080F71
:1016F00007D0154A936823F46053216943EAC10374
:101700009360FFF791FB104B9B68C3F30313104AE0
:10171000D35C03F01F03D8400E4B18600E4B1868C3
:10172000FEF7E0FFF8BD084A936823F0F0039360EA
:10173000AEE7012070470120F4E70120F2E7012025
:10174000F0E700BF002002400010024000B4C404D3
:10175000D82D00080000002008000020014B186868
:10176000704700BF0000002008B5FFF7F7FF054BEA
:101770009B68C3F30223044AD35C03F01F03D840E1
:1017800008BD00BF00100240D02D000808B5FFF7CB
:10179000E5FF054B9B68C3F3C223044AD35C03F007
:1017A0001F03D84008BD00BF00100240D02D000824
:1017B000F8B504460E46554BDB6813F0030F0ED008
:1017C000524BDB6803F003030268934202D0012509
:1017D0002846F8BD002A00F09480002515E0036833
:1017E000022B53D0032B58D0012B40F08C80474A5A
:1017F000126812F0020F5CD04449CA6822F003025A
:101800001343CB600025002DE2D1404A136823F03A
:1018100080531360FEF7AAFF07463C4B1B6813F08A
:10182000005F05D0FEF7A2FFC31B022BF5D90325ED
:10183000002DCDD1002E3ED134484369344A1A40A0
:10184000A168E368DB0643EA01236168013943EAE2
:1018500001131A4342612D4A136843F08053136009
:10186000FEF784FF0646294B1B6813F0005F05D185
:10187000FEF77CFF801B0228F5D90325002DA7D198
:10188000224A5369A1690B435361A1E71F4A1268B9
:1018900012F4806FB0D101259AE71C4A126812F445
:1018A000003FA9D1194A126812F4802FA4D1012552
:1018B0008EE70125A7E7012E11D014484369154A88
:1018C0001A40A16863695B08013B5B0643EA012398
:1018D0006168013943EA01131A434261BBE70B48CF
:1018E00043690D4A1A40A16823695B08013B5B0507
:1018F00043EA01236168013943EA01131A43426153
:10190000A9E7012564E7012562E700BF0010024056
:101910000F80FF070F80FFF90F809FFFF8B5044687
:101920000E46554BDB6813F0030F0ED0524BDB68AD
:1019300003F003030268934202D001252846F8BD54
:10194000002A00F09480002515E00368022B53D094
:10195000032B58D0012B40F08C80474A126812F0BC
:10196000020F5CD04449CA6822F003021343CB60E3
:101970000025002DE2D1404A136823F080631360F4
:10198000FEF7F4FE07463C4B1B6813F0006F05D0D2
:10199000FEF7ECFEC31B022BF5D90325002DCDD19C
:1019A000002E3ED134480369344A1A40A168E368E6
:1019B000DB0643EA01236168013943EA01131A4354
:1019C00002612D4A136843F080631360FEF7CEFE78
:1019D0000646294B1B6813F0006F05D1FEF7C6FEC3
:1019E000801B0228F5D90325002DA7D1224A1369AF
:1019F000A1690B431361A1E71F4A126812F4806FBB
:101A0000B0D101259AE71C4A126812F4003FA9D10F
:101A1000194A126812F4802FA4D101258EE70125FE
:101A2000A7E7012E11D014480369154A1A40A1688E
:101A300063695B08013B5B0643EA01236168013986
:101A400043EA01131A430261BBE70B4803690D4ADD
:101A50001A40A16823695B08013B5B0543EA012347
:101A60006168013943EA01131A430261A9E70125BC
:101A700064E7012562E700BF001002400F80FF0706
:101A80000F80FFF90F809FFF2DE9F04182B00446DF
:101A9000036813F4006F34D0C36E402B13D00BD8FF
:101AA00013B3202B05D100212030FFF781FE06461D
:101AB0001FE001273E4626E0602B1ED0802B1ED063
:101AC00001273E461FE0624AD36843F48033D36067
:101AD00000265F4AD2F89C3023F0E003E16E0B430E
:101AE000C2F89C3000270EE000210430FFF716FFFB
:101AF0000646002EEDD0374605E00026E9E7002631
:101B0000E7E700273E46236813F4805F32D0236F57
:101B1000B3F5007F17D00DD82BB3B3F5807F06D176
:101B2000002104F12000FFF743FE064610E00127E4
:101B30003E461FE0B3F5407F0AD0B3F5806F07D073
:101B400001273E4616E0424AD36843F48033D3600F
:101B50007EB93F4AD2F89C3023F4E063216F0B43F7
:101B6000C2F89C3006E00021201DFFF7D7FE064694
:101B7000EEE73746236813F4003F72D0344B9B6D79
:101B800013F0805F4ED1324B9A6D42F080529A65CD
:101B90009B6D03F080530193019B4FF001082D4A88
:101BA000136843F480731360FEF7E0FD0546294B8C
:101BB0001B6813F4807F05D1FEF7D8FD401B022877
:101BC000F5D90326002E47D1214BD3F8903013F4DA
:101BD000407316D0D4F890209A4212D01C4AD2F802
:101BE000903023F44073D2F8901041F48031C2F861
:101BF0009010D2F8901021F48031C2F89010C2F801
:101C0000903013F0010F10D1002E40F05A81104A8D
:101C1000D2F8903023F44073D4F890100B43C2F8FC
:101C200090301AE04FF00008B9E7FEF79FFD054637
:101C3000074BD3F8903013F0020FE5D1FEF796FD75
:101C4000401B41F288339842F2D90326DCE700BFFB
:101C500000100240007000403746B8F1000F40F01D
:101C60003281236813F0010F08D0B64AD2F88830C9
:101C700023F00303E16B0B43C2F88830236813F0B1
:101C8000020F08D0AF4AD2F8883023F00C03216C41
:101C90000B43C2F88830236813F0040F08D0A94A18
:101CA000D2F8883023F03003616C0B43C2F88830DF
:101CB000236813F0080F08D0A24AD2F8883023F026
:101CC000C003A16C0B43C2F88830236813F0100FD7
:101CD00008D09C4AD2F8883023F44073E16C0B435F
:101CE000C2F88830236813F0200F08D0954AD2F844
:101CF000883023F44063216D0B43C2F88830236899
:101D000013F4007F08D08F4AD2F8883023F44023A0
:101D1000616E0B43C2F88830236813F4806F08D0DB
:101D2000884AD2F8883023F44013A16E0B43C2F8DE
:101D30008830236813F0400F08D0824AD2F88830E8
:101D400023F44053616D0B43C2F88830236813F0CD
:101D5000800F08D07B4AD2F8883023F44043A16D2D
:101D60000B43C2F88830236813F4807F08D0754A8B
:101D7000D2F8883023F44033E16D0B43C2F8883049
:101D8000236813F4801F08D06E4AD2F89C3023F0E9
:101D90000303216E0B43C2F89C30236813F4005FE9
:101DA00011D0684AD2F8883023F04063616F0B434A
:101DB000C2F88830636FB3F1006F00F08A80B3F12E
:101DC000806F00F08B80236813F4002F1FD0A36F67
:101DD000B3F5804F00F08B805A4AD2F89C3023F440
:101DE0008043C2F89C30D2F8883023F04063A16F62
:101DF0000B43C2F88830A36FB3F1006F7FD0B3F507
:101E0000804F00F08280B3F1806F00F084802368FF
:101E100013F4802F0FD04B4AD2F8883023F0406360
:101E2000E16F0B43C2F88830E36FB3F1006F7BD0F2
:101E3000B3F1806F7DD0236813F4804F0ED0414AF8
:101E4000D2F8883023F04053D4F880100B43C2F806
:101E50008830D4F88030B3F1805F75D0236813F4F4
:101E6000803F09D0374AD2F89C3023F00403D4F8DD
:101E700084100B43C2F89C30236813F4001F09D070
:101E8000304AD2F89C3023F01803D4F888100B4362
:101E9000C2F89C30236813F0807F0ED0294AD2F814
:101EA0009C3023F44013D4F88C100B43C2F89C30C0
:101EB000D4F88C30B3F5001F4ED0384602B0BDE8E0
:101EC000F0813746C9E61F4A936D23F0805393652E
:101ED000C7E6D36843F48013D36074E70121201D63
:101EE000FFF71CFD00283FF46EAF07466BE7154A6D
:101EF000D2F89C3043F48043C2F89C307BE7114A0F
:101F0000D36843F48013D36081E70E4AD36843F467
:101F10008033D3607BE70121201DFFF7FFFC002801
:101F20003FF475AF074672E7D36843F48013D3607C
:101F300081E70121201DFFF7F1FC00283FF47BAF72
:101F4000074678E7001002400221201DFFF7E6FC5B
:101F5000002883D0074681E7D36843F48013D36019
:101F6000ABE700BF026852E8003F23F4907342E8F9
:101F700000310029F6D1026802F1080353E8003F5E
:101F800023F0805323F00103083242E80031002996
:101F9000F1D1C36E012B06D02023C0F88C30002372
:101FA000C36643677047026852E8003F23F010039E
:101FB00042E800310029F6D1EEE7000070B5044692
:101FC00083680269134342691343C269134301687A
:101FD0000868964A02401A430A602268536823F44C
:101FE0004053E1680B435360A1692268904B9A42C9
:101FF00001D0236A1943936823F06E4323F43063BE
:102000000B4393602268D36A23F00F03616A0B438A
:10201000D3622368874A934226D0874A934237D0B7
:10202000864A93424DD0864A93425DD0854A934278
:102030006CD07F4A93427ED010227D498B4200F0C3
:10204000B380E069B0F5004F00F00481082A00F287
:102050006F81DFE812F03201540130016D01570148
:102060006D016D016D015A0102F55842D2F88820C8
:1020700002F00302032A09D8DFE802F00204720624
:102080000122DAE70422D8E70822D6E71022D4E7B3
:1020900002F5E632D2F8882002F00C020C2A0ED8A3
:1020A000DFE802F0070D0D0D090D0D0D600D0D0D92
:1020B0000B000022C1E70422BFE70822BDE710227F
:1020C000BBE702F5E432D2F8882002F03002202A81
:1020D0004AD005D8002A49D0102A49D10422ACE7B9
:1020E000302A47D10822A8E702F5E232D2F8882048
:1020F00002F0C002802A3FD004D8FAB3402A3FD170
:1021000004229AE7C02A3DD1082296E702F5E03280
:10211000D2F8882002F44072B2F5007F34D005D89E
:10212000A2B3B2F5807F33D1042286E7B2F5407FB7
:1021300030D1082281E702F5C832D2F8882002F4B3
:102140004062B2F5006F27D005D83AB3B2F5806F80
:1021500026D1042271E7B2F5406F23D108226CE743
:1021600002226AE7022268E7022266E7002264E7A9
:10217000102262E7102260E702225EE700225CE79D
:1021800010225AE7102258E7022256E7002254E7AD
:10219000102252E7102250E702224EE700224CE7BD
:1021A00010224AE7102248E7082A00F2B180DFE84F
:1021B00002F008AF3BAF38AFAFAF05004FF40040BF
:1021C00004E0FFF7D1FA002800F0A480626A1E4BF9
:1021D00033F81220B0FBF2F3656805EB4501994234
:1021E00000F29A80B3EB053F00F298800026334658
:1021F0003146FDF7E5FF090241EA106100026B0874
:10220000C0182A46334641F10001FDF7D9FFA0F579
:1022100040720E4B9A4200F283802368D8603046A9
:1022200064E0FEF701FECEE70948CFE7F369FFCF90
:102230000080004000380140004400400048004059
:10224000004C004000500040E82D0008FFFC0F004B
:102250000024F400082A65D8DFE802F007270564A7
:102260002A6464640B00354803E0FFF77DFA002818
:102270005AD0626A324B33F81230B0FBF3F0626826
:10228000530803EB4003B3FBF2F3A3F110014FF645
:10229000EF7291424AD89AB222F00F02C3F342037E
:1022A00013432268D360002020E0FFF76FFADEE7D7
:1022B000FEF7BAFDDBE7214803E0FFF755FA0028F7
:1022C00038D0626A1E4B33F81230B0FBF3F063680B
:1022D00000EB5300B0FBF3F0A0F110024FF6EF73E8
:1022E0009A4229D8236880B2D86000200123A4F83C
:1022F0006A30A4F8683000236367A36770BDFFF7F6
:1023000045FADCE7FEF790FDD9E74FF40040D8E747
:102310000120EBE70020E9E70120E7E70120E5E7FE
:102320000120E3E70120E1E70020DFE70120DDE70E
:102330000120DBE70020D9E70120D7E70024F400E3
:10234000E82D0008836A13F0080F06D0026853686E
:1023500023F40043816B0B435360836A13F0010F36
:1023600006D00268536823F40033C16A0B435360FC
:10237000836A13F0020F06D00268536823F4803397
:10238000016B0B435360836A13F0040F06D002689D
:10239000536823F48023416B0B435360836A13F02B
:1023A000100F06D00268936823F48053C16B0B436F
:1023B0009360836A13F0200F06D00268936823F4B9
:1023C0000053016C0B439360836A13F0400F0AD0F3
:1023D0000268536823F48013416C0B435360436CD1
:1023E000B3F5801F0BD0836A13F0800F06D002680C
:1023F000536823F40023C16C0B4353607047026899
:10240000536823F4C003816C0B435360EBE72DE961
:10241000F84305460F4616469946DDF820802B689E
:10242000DC6937EA04040CBF01240024B44232D131
:10243000B8F1FF3FF3D0FEF799F9A0EB0900404552
:102440002CD8B8F1000F2BD02B681A6812F0040FAB
:10245000E5D0DA6912F0080F11D1DA6912F4006FD1
:10246000DDD04FF400621A622846FFF77BFD20237F
:10247000C5F89030002385F8843003200CE0082450
:102480001C622846FFF76EFDC5F89040002385F8D2
:102490008430012000E00020BDE8F8830320FBE742
:1024A0000320F9E730B583B004460023C0F890302C
:1024B000FEF75CF905462268126812F0080F10D189
:1024C00023681B6813F0040F28D12023C4F8883038
:1024D000C4F88C300020E066206784F8840003B0E4
:1024E00030BD6FF07E430093034600224FF400118D
:1024F0002046FFF78CFF0028E2D0226852E8003F18
:1025000023F0800342E800310029F6D12023C4F8EB
:102510008830002384F884300320E0E76FF07E43A6
:1025200000932B4600224FF480012046FFF76FFFF7
:102530000028CAD0226852E8003F23F4907342E892
:1025400000310029F6D1226802F1080353E8003F68
:1025500023F00103083242E800310029F3D120239F
:10256000C4F88C30002384F884300320B7E778B3B4
:1025700010B50446D0F888300BB32423C4F8883053
:102580002268136823F001031360A36AE3B92046AD
:10259000FFF714FD012811D02268536823F49043FB
:1025A00053602268936823F02A03936022681368BB
:1025B00043F0010313602046FFF774FF10BD80F85D
:1025C0008430FDF79BFFD8E72046FFF7BBFEDEE730
:1025D00001207047436E2BB90123A0F86A30A0F8A0
:1025E0006830704730B403689A68C2F342629968F1
:1025F000490F094D6B5CDB00084C615C93FBF1F308
:10260000A0F86A30AB5CDB00A25C93FBF2F3A0F8AD
:10261000683030BC704700BF082E0008002E00084C
:1026200090F88430012B18D0012380F884302423C3
:10263000C0F8883003681A68196821F00101196030
:1026400022F000520023436601680A602022C0F88D
:10265000882080F88430184670470220704738B5CB
:1026600090F88430012B1DD00446012380F884307B
:102670002423C0F8883003681D681A6822F001021C
:102680001A600268936823F0604319439160FFF772
:10269000A1FF23681D602023C4F88830002084F83F
:1026A000840038BD0220FCE738B590F88430012B57
:1026B0001DD00446012380F884302423C0F88830DC
:1026C00003681D681A6822F001021A6002689368A4
:1026D00023F0606319439160FFF77CFF23681D605E
:1026E0002023C4F88830002084F8840038BD0220FC
:1026F000FCE7000082B000230193019B01330193AA
:10270000019A0F4B9A4215D80369002BF5DA002382
:102710000193036943F001030361019B01330193BA
:10272000019A074B9A4208D8036913F0010FF4D1BC
:10273000002000E0032002B070470320FBE700BF49
:10274000400D030084B010B504460DF10C0C8CE86C
:102750000E00C36843F04003C360FFF7CBFF0C9B40
:102760003BB9A36B43F48033A363BDE8104004B0CE
:102770007047A36B23F48033A363F6E7836823F0E9
:10278000010383600020704782B000230193019B06
:1027900001330193019A0F4B9A4215D80369002B1C
:1027A000F5DA00230193890141F020010161019BC9
:1027B00001330193019A074B9A4208D8036913F039
:1027C000200FF4D1002000E0032002B07047032066
:1027D000FBE700BF400D030082B000230193019B83
:1027E00001330193019A0E4B9A4213D80369002BCF
:1027F000F5DA0023019310230361019B0133019358
:10280000019A074B9A4208D8036913F0100FF4D1CC
:10281000002000E0032002B070470320FBE700BF68
:10282000400D0300D0F800381943C0F8001800200C
:102830007047000084B0F8B5044607A880E80E0091
:10284000002306E003F1400204EB82020021516004
:1028500001330E2BF6D9119E76BBD4F8043843F021
:102860000203C4F80438A36B23F40013A3632368A2
:1028700043F040032360236843F080032360002378
:10288000C4F8003E03212046FFF7CCFF102120466C
:10289000FFF77AFF054600B101252046FFF79CFFB0
:1028A00000B1012504F5006C0023CCF81030CCF801
:1028B0001430CCF81C300FE0A36B43F40013A36377
:1028C000DDE7C3B94FF00060C2F8000900220A61D9
:1028D0004FF67F328A6001330799994210D904EB91
:1028E000431202F51061D2F800090028E9DB00204C
:1028F000C2F80009EAE74FF09040C2F80009E5E7A6
:1029000000230AE0BBB14FF09047C2F8007B0022E1
:1029100002614FF67F3282600133994210D904EB95
:10292000431202F53060D2F8007B002FEADB00276B
:10293000C2F8007BEBE74FF00067C2F8007BE6E7E8
:10294000DCF8103023F48073CCF810300023A3613E
:102950006FF080436361A36943F01003A361A26930
:102960000B4B1343A3610D9B1BB1A36943F00803F9
:10297000A361012E04D02846BDE8F84004B070479A
:10298000A36943F0804343F00403A361F3E700BF6E
:1029900000383C80D0F8003E23F00303C0F8003E2E
:1029A000D0F8043843F00203C0F804380020704720
:1029B000406900F00100704738B50546C36823F050
:1029C000C043C360012913D019BBC36843F08043DF
:1029D000C36000240120FDF7CFFE01342846FFF735
:1029E000E7FF08B1312CF5D9322C14D0002038BDC6
:1029F000C36843F00053C36000240120FDF7BCFE10
:102A000001342846FFF7D4FF0128EDD0312CF4D94A
:102A1000EAE70120EBE70120E9E70000DFF834D026
:102A2000FDF756FE0C480D490D4A002302E0D4582C
:102A3000C4500433C4188C42F9D30A4A0A4C002308
:102A400001E013600432A242FBD300F019F8FDF755
:102A50002FFDFEE700000A200000002010000020EB
:102A6000282E00081000002064060020FEE7024423
:102A70000346934200D1704703F8011BF9E70000B9
:102A800070B50D4D0D4C641BA4100026A64209D153
:102A90000B4D0C4C00F076F9641BA4100026A642E6
:102AA00005D170BD55F8043B98470136EEE755F85F
:102AB000043B98470136F2E7182E0008182E00084C
:102AC000182E00081C2E00082DE9F047089D0E4620
:102AD00004460F46002B4AD194468C45B2FA82F246
:102AE00060D942B1C2F12003974020FA03F30CFAF7
:102AF00002FC1F4394404FEA1C4E1FFA8CF6B7FBB2
:102B0000FEF1230C0EFB117743EA074301FB06F0AD
:102B100098420AD91CEB030301F1FF3780F01581BD
:102B2000984240F21281023963441B1AA4B2B3FBEB
:102B3000FEF00EFB103344EA034400FB06F6A64207
:102B40000AD91CEB040400F1FF3380F00081A64297
:102B500040F2FD806444023840EA0140A41B002199
:102B60001DB1D4400023C5E90043BDE8F0878B4286
:102B700005D90DB1C5E9000100210846F5E7B3FA12
:102B800083F1002946D1B34202D3824200F2F5809C
:102B9000841A66EB030201201746002DE5D0C5E933
:102BA0000047E2E7002A40F09380A1EB0C034FEAD4
:102BB0001C471FFA8CFE0121B3FBF7F607FB16300A
:102BC000230C43EA00430EFB06F0984208D91CEBA5
:102BD000030306F1FF3802D2984200F2D080464645
:102BE0001B1AA4B2B3FBF7F007FB103344EA03440B
:102BF0000EFB00FEA64508D91CEB040400F1FF33D0
:102C000002D2A64500F2B6801846A4EB0E0440EAB4
:102C10000640A5E7C1F120078B4022FA07FC4CEAE9
:102C2000030C06FA01FE20FA07F426FA07F344EA39
:102C30000E0400FA01F84FEA1C404FEA1449B3FBB6
:102C4000F0FE1FFA8CF600FB1E3349EA03430EFB2D
:102C500006F9994502FA01F20BD91CEB03030EF1B8
:102C6000FF3A80F08580994540F28280AEF1020EF5
:102C70006344A3EB0909A4B2B9FBF0F300FB139979
:102C800044EA094403FB06F6A64208D91CEB0404F7
:102C900003F1FF3068D2A64266D9023B644443EA9E
:102CA0000E40A41BA0FB02E6B4427346B14652D3C9
:102CB0004FD05DB1B8EB030264EB090404FA07F7E7
:102CC00022FA01F31F43CC40C5E9007400214CE710
:102CD000C2F1200120FA01F30CFA02FC26FA01F1FC
:102CE000964033434FEA1C471FFA8CFEB1FBF7F0C6
:102CF00007FB1016190C41EA064100FB0EF68E4246
:102D000004FA02F408D91CEB010100F1FF382DD2BE
:102D10008E422BD902386144891B9BB2B1FBF7F676
:102D200007FB161143EA014306FB0EF1994208D94D
:102D30001CEB030306F1FF3814D2994212D9023E6C
:102D400063445B1A46EA004136E73946EDE6184629
:102D500002E7F045ADD2BEEB020366EB0C0601388C
:102D6000B146A6E74646ECE7034698E74046D3E778
:102D7000D6467EE76444023847E708460DE7023E40
:102D800063442DE7F8B500BFF8BC08BC9E46704709
:102D9000F8B500BFF8BC08BC9E46704700000000B4
:102DA000A0860100400D0300801A060000350C00CB
:102DB00040420F0080841E0000093D0000127A008E
:102DC0000024F40000366E010048E801006CDC02CB
:102DD00000000000010203040000000000000000E9
:102DE00001020304060708090100020004000600AE
:102DF00008000A000C0010002000400080000001C4
:102E00000804020408010101010101030701000097
:082E1000B8FCFF7F0100000087
:082E180019020008000000008F
:082E2000F501000800000000AC
:102E280000093D0001000000100000000000000043
:0400000508002A1DA8
:00000001FF
