:020000040810E2
:10000000008004100D581008BD071008BF07100825
:10001000C1071008C3071008C5071008000000003A
:100020000000000000000000000000004155100822
:10003000C707100800000000E1551008D75010084D
:100040005D5810085D5810085D5810085D5810087C
:100050005D5810085D5810085D5810085D5810086C
:100060005D5810085D5810085D5810085D5810085C
:100070005D5810085D5810085D5810085D5810084C
:100080005D5810085D5810085D5810085D5810083C
:100090005D5810085D5810085D5810085D5810082C
:1000A0005D5810085D5810085D5810085D5810081C
:1000B000C90710085D5810085D5810085D581008F1
:1000C0005D5810085D5810085D5810085D581008FC
:1000D0005D5810085D5810085D5810085D581008EC
:1000E0005D5810085D581008000000005D581008A9
:1000F0005D5810085D5810085D5810085D581008CC
:100100005D5810085D5810085D5810085D581008BB
:100110005D5810085D5810085D5810085D581008AB
:100120005D5810085D5810085D5810085D5810089B
:100130005D5810085D5810085D5810085D5810088B
:100140005D5810085D581008000000000000000015
:100150005D5810085D5810085D5810085D5810086B
:100160005D5810085D5810085D5810085D5810085B
:100170005D5810085D5810085D5810085D5810084B
:100180005D5810085D5810085D5810085D5810083B
:100190005D5810085D5810085D5810085D5810082B
:1001A0005D5810085D5810085D5810085D5810081B
:1001B0005D5810085D5810085D5810085D5810080B
:1001C0005D5810085D5810085D5810085D581008FB
:1001D0005D5810085D5810085D5810085D581008EB
:1001E0005D5810085D5810085D5810085D581008DB
:1001F0005D5810085D5810085D5810085D581008CB
:100200005D5810085D5810085D5810085D581008BA
:100210005D5810085D5810085D5810085D581008AA
:100220005D5810085D5810085D5810080000000067
:100230005D5810085D5810085D5810085D5810088A
:100240005D5810085D5810085D5810085D5810087A
:100250005D5810085D5810085D5810085D5810086A
:100260005D5810085D5810085D5810085D5810085A
:100270005D5810085D5810085D5810085D5810084A
:100280005D5810085D5810085D5810080000000007
:080290005D5810085D581008CC
:1002A00010B5054C237833B9044B13B10448AFF3B0
:1002B00000800123237010BD140000100000000016
:1002C000D458100808B5034B1BB103490348AFF3DA
:1002D000008008BD0000000018000010D45810086D
:1002E00053B94AB9002908BF00281CBF4FF0FF319D
:1002F0004FF0FF3000F074B9ADF1080C6DE904CE99
:1003000000F006F8DDF804E0DDE9022304B07047F0
:100310002DE9F047089D04468E46002B4DD18A42B8
:10032000944669D9B2FA82F252B101FA02F3C2F1EB
:10033000200120FA01F10CFA02FC41EA030E94407C
:100340004FEA1C48210CBEFBF8F61FFA8CF708FB9D
:1003500016E341EA034306FB07F199420AD91CEB75
:10036000030306F1FF3080F01F81994240F21C81A7
:10037000023E63445B1AA4B2B3FBF8F008FB1033EF
:1003800044EA034400FB07F7A7420AD91CEB040424
:1003900000F1FF3380F00A81A74240F207816444F4
:1003A000023840EA0640E41B00261DB1D440002379
:1003B000C5E900433146BDE8F0878B4209D9002DDD
:1003C00000F0EF800026C5E9000130463146BDE867
:1003D000F087B3FA83F6002E4AD18B4202D38242D1
:1003E00000F2F980841A61EB030301209E46002D80
:1003F000E0D0C5E9004EDDE702B9FFDEB2FA82F2D5
:10040000002A40F09280A1EB0C014FEA1C471FFA32
:100410008CFE0126200CB1FBF7F307FB131140EA19
:1004200001410EFB03F0884208D91CEB010103F1E6
:10043000FF3802D2884200F2CB804346091AA4B2A8
:10044000B1FBF7F007FB101144EA01440EFB00FE7C
:10045000A64508D91CEB040400F1FF3102D2A645E1
:1004600000F2BB800846A4EB0E0440EA03409CE780
:10047000C6F12007B34022FA07FC4CEA030C20FA2D
:1004800007F401FA06F31C43F9404FEA1C4900FA4D
:1004900006F3B1FBF9F8200C1FFA8CFE09FB1811CA
:1004A00040EA014108FB0EF0884202FA06F20BD93D
:1004B0001CEB010108F1FF3A80F08880884240F28D
:1004C0008580A8F102086144091AA4B2B1FBF9F0D1
:1004D00009FB101144EA014100FB0EFE8E4508D9CC
:1004E0001CEB010100F1FF346CD28E456AD9023851
:1004F000614440EA0840A0FB0294A1EB0E01A14236
:10050000C846A64656D353D05DB1B3EB080261EBA3
:100510000E0101FA07F722FA06F3F1401F43C5E97D
:10052000007100263146BDE8F087C2F12003D840B3
:100530000CFA02FC21FA03F3914001434FEA1C47F5
:100540001FFA8CFEB3FBF7F007FB10360B0C43EAE7
:10055000064300FB0EF69E4204FA02F408D91CEB97
:10056000030300F1FF382FD29E422DD90238634495
:100570009B1B89B2B3FBF7F607FB163341EA034135
:1005800006FB0EF38B4208D91CEB010106F1FF3884
:1005900016D28B4214D9023E6144C91A46EA00467B
:1005A00038E72E46284605E70646E3E61846F8E60D
:1005B0004B45A9D2B9EB020864EB0C0E0138A3E756
:1005C0004646EAE7204694E74046D1E7D0467BE737
:1005D000023B614432E7304609E76444023842E7AF
:1005E000704700BF82B0074BD3F8D82042F0010219
:1005F000C3F8D820D3F8D83003F001030193019B4E
:1006000002B070470044025830B587B0002401940E
:100610000294039404940594104BD3F8E02042F024
:100620000202C3F8E020D3F8E03003F002030093A5
:10063000009B0B4D22464FF48041284601F086FC7A
:100640004FF480430193012302930394049401A97E
:10065000284601F06BFB07B030BD00BF00440258D4
:100660000004025808B54FF48041064801F074FCBC
:1006700004220549054802F08BFC4FF47A7004F01F
:10068000C3FDF0E700040258EC58100824010010E4
:1006900008B50368B3F1804F00D008BD02F050FAEE
:1006A000FBE772B6FEE7000008B51648164B03607C
:1006B0004FF4E133436000238360C36003610C2285
:1006C00042618361C36103624362836203F017F98D
:1006D00080B94FF000410B4803F08EF960B94FF03C
:1006E0000061084803F0ADF940B9064803F060F92D
:1006F00030B908BDFFF7D5FFFFF7D3FFFFF7D1FFF4
:10070000FFF7CFFF240100100048004000B583B080
:10071000224BD3F8E02042F00072C3F8E020D3F877
:10072000E03003F000730193019B012001F01EFCF7
:1007300002F0AEF901220221002002F051F9184B1B
:100740001B68C3F30313072B1FD0164AD2F81431CA
:1007500043F00103C2F8143102F0A4F9FFF754FF8B
:10076000FFF740FFFFF7A0FF26220F490F4802F0D6
:100770000FFC04F0BDFC0E4A00210E4804F0E6FC1C
:100780000D4B186004F0C6FCFEE7064AD2F80431AF
:1007900043F00103C2F80431DEE700BF0044025811
:1007A00000ED00E000640258F45810082401001025
:1007B000285910086506100830000010FEE7FEE713
:1007C000FEE7FEE7FEE7704708B5024802F018FAB8
:1007D00008BD00BFBC01001000B583B00A4BD3F8C0
:1007E000F42042F00202C3F8F420D3F8F43003F00E
:1007F00002030193019B00220F216FF0010000F022
:1008000081F803B05DF804FB0044025810B5B2B0A3
:100810000446C022002102A805F054F822682A4BA1
:100820009A4201D032B010BD02220023CDE902234A
:1008300002A800F02BFB00283DD1244BD3F8E82080
:1008400042F48022C3F8E820D3F8E83003F4802390
:100850000193019B1E481F4B03602D23436000231F
:100860008360C3604FF48062026143618361C3614E
:100870004FF480320262436201F094FDF0B9144BF0
:10088000C4F880309C631448144B03602E234360EB
:10089000402383600023C3604FF4806202614361A0
:1008A0008361C3610362436201F07CFD48B90A4B76
:1008B000E3679C63B6E7FFF7F4FEBEE7FFF7F1FEE0
:1008C000DDE7FFF7EEFEF2E7004800400044025883
:1008D0003400001010000240AC000010280002405C
:1008E0000649CB6823F4E0631B041B0C000200F4F0
:1008F000E0600343024A1A43CA60704700ED00E01B
:100900000000FA0500B5174BDB68C3F30223C3F1FF
:10091000070CBCF1040F28BF4FF0040C03F1040EC8
:10092000BEF1060F14D9033B4FF0FF3E0EFA0CFC4C
:1009300021EA0C0199400EFA03F322EA030319435A
:10094000002807DB0901C9B2074B19545DF804FB05
:100950000023E9E700F00F000901C9B2034B195465
:10096000F4E700BF00ED00E000E400E014ED00E07B
:10097000002807DB00F01F02400901239340024AD0
:1009800042F82030704700BF00E100E0044B1B68D4
:10099000C3F30313072B01D00120704703207047D6
:1009A00000ED00E0744B1B6903F03803102B00F0DE
:1009B000DE80182B10D00BB1704870476E4B1B684F
:1009C00013F0200F00F0D5806B4B1868C0F3C10006
:1009D0006B4B23FA00F0704710B4674A916A01F03C
:1009E0000301946AC4F30510D36A03F0010C536B3E
:1009F000C3F3CC030CFB03F307EE903AF8EE677AEF
:100A000014F47C7F00F09380012965D0022900F066
:100A10009180E1B107EE100AF8EE476A9FED596A3E
:100A200086EE267A544B1B6BC3F3080306EE903A0E
:100A3000F8EE666A9FED546A67EE867A76EEA77ADC
:100A4000F7EE006A77EEA67A27EE277A60E0136861
:100A500013F0200F23D011461268C2F3C102484B95
:100A6000D34007EE103AF8EE476A07EE100AB8EEE8
:100A7000476A86EE867A0B6BC3F3080306EE903A5C
:100A8000F8EE666A9FED406A67EE867A76EEA77AA0
:100A9000F7EE006A77EEA67A27EE277A38E007EEBF
:100AA000100AF8EE476A9FED396A86EE267A324BD5
:100AB0001B6BC3F3080306EE903AF8EE666A9FEDEF
:100AC000326A67EE867A76EEA77AF7EE006A77EEFC
:100AD000A67A27EE277A1BE007EE100AF8EE476A9F
:100AE0009FED286A86EE267A234B1B6BC3F308031F
:100AF00006EE903AF8EE666A9FED236A67EE867A14
:100B000076EEA77AF7EE006A77EEA67A27EE277AD6
:100B1000194B1B6BC3F34623013307EE903AF8EEF3
:100B2000677AC7EE276AFCEEE67A17EE900A5DF860
:100B3000044B704707EE100AF8EE476A9FED146AFF
:100B400086EE267A0C4B1B6BC3F3080306EE903A35
:100B5000F8EE666A9FED0C6A67EE867A76EEA77A03
:100B6000F7EE006A77EEA67A27EE277AD0E70948F3
:100B700070470348704700BF0044025800093D0019
:100B80000090D0030024744A000000390024744C03
:100B90000024F44A00127A0008B5FFF703FF0A495F
:100BA0008B69C3F30323094AD35C03F01F03D840C6
:100BB0008B6903F00F03D35C03F01F03D840044B91
:100BC0001860044B186008BD004402587C59100896
:100BD0000C0000100800001008B5FFF7DDFF054B02
:100BE000DB69C3F30213044AD35C03F01F03D8404C
:100BF00008BD00BF004402587C59100808B5FFF733
:100C0000CBFF054BDB69C3F30223044AD35C03F03B
:100C10001F03D84008BD00BF004402587C5910088B
:100C20003F230360114B1A6902F0070242609A6980
:100C300002F4706282609A6902F00F02C2609A69DF
:100C400002F070020261DA6902F070024261DA6950
:100C500002F4E06282611B6A03F07003C361044B1B
:100C60001B6803F00F030B60704700BF004402587D
:100C700000200052404B9B6A03F00303032B79D002
:100C800070B505460E463C4A136823F08063136036
:100C900001F062FF0446384B1B6813F0006F06D06A
:100CA00001F05AFF031B022BF5D9032070BD324B14
:100CB0009A6A22F47C32296842EA01329A626A68AE
:100CC000013AC2F30802A9680139490289B20A430C
:100CD000E9680139090401F4FE010A43296901396F
:100CE000090601F0FE410A439A63DA6A22F0C00263
:100CF00069690A43DA62DA6A22F02002A9690A43C2
:100D0000DA62DA6A22F01002DA62D96B1B4A0A4010
:100D1000E96942EAC102DA63DA6A42F01002DA6291
:100D2000C6B91A46DB6A43F40023D362124A136839
:100D300043F08063136001F00FFF04460E4B1B6805
:100D400013F0006F14D101F007FF001B0228F5D942
:100D50000320ABE7012E05D0074AD36A43F4001302
:100D6000D362E3E7044AD36A43F48013D362DDE736
:100D700000209BE701207047004402580700FFFF56
:100D8000404B9B6A03F00303032B79D070B50546F3
:100D90000E463C4A136823F08053136001F0DCFEDA
:100DA0000446384B1B6813F0005F06D001F0D4FEF8
:100DB000031B022BF5D9032070BD324B9A6A22F037
:100DC0007C72296842EA01529A626A68013AC2F367
:100DD0000802A9680139490289B20A43E968013960
:100DE000090401F4FE010A4329690139090601F0E9
:100DF000FE410A431A64DA6A22F4406269690A43CE
:100E0000DA62DA6A22F40072A9690A43DA62DA6AFB
:100E100022F48072DA62596C1B4A0A40E96942EA9C
:100E2000C1025A64DA6A42F48072DA62C6B91A46BA
:100E3000DB6A43F48003D362124A136843F08053A1
:100E4000136001F089FE04460E4B1B6813F0005F2F
:100E500014D101F081FE001B0228F5D90320ABE775
:100E6000012E05D0074AD36A43F08073D362E3E7CB
:100E7000044AD36A43F40003D362DDE700209BE712
:100E800001207047004402580700FFFFF8B50446F0
:100E9000036813F0006F30D0836EB3F5001F26D0C7
:100EA0000ED8EBB1B3F5801F07D102210830FFF750
:100EB000E1FE054645B12E4621E0012635461EE0FD
:100EC000B3F5401F09D10025984A136D23F4401350
:100ED000A16E0B431365002611E0012635460EE096
:100EE000924AD36A43F40033D3620025ECE702212F
:100EF0002830FFF745FF0546DCE700263546236826
:100F000013F4807F14D0A36D042B32D8DFE803F0F4
:100F100003232A080800854AD36A43F40033D362C6
:100F200055BB824A136D23F00703A16D0B43136574
:100F3000236813F4007F31D0E36D802B4CD020D890
:100F4000002B43D0402B19D1002104F10800FFF7FA
:100F500091FE05461AE0002104F10800FFF78AFE21
:100F60000546DDE7002104F12800FFF709FF0546EB
:100F7000D6E701263546DBE72E46D9E7012635467A
:100F80000CE0C02B02D0B3F5807F1CD15DBB674A5B
:100F9000136D23F4E073E16D0B431365236813F4C1
:100FA000806F46D0D4F8A830B3F5800F39D01FD861
:100FB0008BB3B3F5001F18D1002104F10800FFF72F
:100FC00059FE05461AE001263546E7E7574AD36A37
:100FD00043F40033D362D9E7002104F12800FFF77E
:100FE000CFFE0546D2E72E46D8E70126354620E05B
:100FF000B3F5C00F02D0B3F5000F09D1C5B94B4A04
:10100000936D23F46003D4F8A8100B43936510E0AC
:10101000012635460DE0454AD36A43F40033D362D6
:10102000ECE7002104F12800FFF7AAFE0546E5E7FA
:101030002E46236813F4006F24D0D4F8AC30B3F1FB
:10104000007F42D00ED8002B39D0B3F1807F06D17B
:10105000002104F10800FFF70DFE054608E0012617
:1010600035460FE0B3F1407F02D0B3F1806F23D15A
:10107000002D31D12D4A936D23F0E063D4F8AC10EC
:101080000B439365236813F0007F2ED0E36C202B75
:1010900040D026D833B1102B20D1244AD36A43F450
:1010A0000033D362002D3CD1204AD36C23F03003AF
:1010B000E16C0B43D36418E001263546E2E71B4A96
:1010C000D36A43F40033D362D2E7002104F128004D
:1010D000FFF756FE0546CBE72E46D3E701263546F9
:1010E00003E0302BDED001263546236813F4805F01
:1010F0002DD0236EB3F5005F4FD019D8002B46D00A
:10110000B3F5805F0FD1002104F10800FFF7B2FDB5
:10111000054613E0022104F10800FFF7ABFD054688
:10112000C0E72E46E1E70126354610E000440258AC
:10113000B3F5405F02D0B3F5804F25D1002D33D1F8
:10114000774A136D23F4E043216E0B431365236844
:1011500013F4005F38D0636EB3F5003F53D028D846
:1011600043B1B3F5803F21D1012104F10800FFF71D
:1011700081FD0546002D4DD1694A136D23F4E0230E
:10118000616E0B4313651FE001263546DFE7644AB5
:10119000D36A43F40033D362D0E7002104F128007E
:1011A000FFF7EEFD0546C9E72E46D0E70126354696
:1011B0000AE0B3F5802FDDD0B3F5A02FDAD0B3F578
:1011C000403FD7D001263546236813F4804F31D0F5
:1011D000D4F8B030B3F1005F45D020D843B1B3F1BB
:1011E000805F19D1012104F10800FFF743FD054696
:1011F000002D3FD14A4A936D23F0E043D4F8B0105C
:101200000B43936516E0012104F12800FFF7B8FDB8
:101210000546AFE72E46D7E7012635460AE0B3F18B
:10122000804FE5D0B3F1A04FE2D0B3F1405FDFD003
:1012300001263546236813F4004F09D0236FB3F11C
:10124000805F19D0B3F1005F24D0D3B101263546B9
:10125000236813F0807F33D0A36C032B5BD8DFE8C7
:1012600003F027225327012104F12800FFF788FD0E
:101270000546BDE72E46DDE7294AD36A43F400332D
:10128000D36275B9264A136D23F04053216F0B4387
:101290001365DDE7012104F10800FFF7EBFC0546CB
:1012A000EFE72E46D4E71E4AD36A43F40033D362F5
:1012B000A5BB1B4AD36C23F00303A16C0B43D3647F
:1012C000236813F4800F2DD1236813F0010F00F071
:1012D000A580E36F282B00F29F80DFE803F08D9D4F
:1012E0009D9D9D9D9D9D879D9D9D9D9D9D9D969D4B
:1012F0009D9D9D9D9D9D8D9D9D9D9D9D9D9D8D9D3E
:101300009D9D9D9D9D9D8D00022104F10800FFF78C
:10131000B1FC0546CCE701263546D1E72E46CFE79E
:1013200000440258914A136843F48073136001F03B
:1013300013FC07468D4B1B6813F4807F05D101F029
:101340000BFCC01B6428F5D90325002D4AD1884B1E
:101350001B6FD4F8B420534013F4407F0CD0844B5F
:101360001A6F22F44072196F41F480311967196FB6
:1013700021F4803119671A67D4F8B430B3F5807F4F
:1013800015D08DBBD4F8B43003F44072B2F5407F71
:101390001ED0774A136923F47C53136174490B6F91
:1013A000D4F8B420C2F30B0213430B678CE701F0AF
:1013B000D3FB07466E4B1B6F13F0020FE1D101F018
:1013C000CBFBC01B41F288339842F3D90325D8E701
:1013D0006748026922F47C52664901EA13131343F9
:1013E0000361DBE72E466FE72E466DE7012104F12E
:1013F0000800FFF73FFC0546E5B95D4A536D23F051
:101400003803E16F0B43536508E0012104F1280024
:10141000FFF7B6FC0546EFE701263546236813F0D3
:10142000020F17D0A36F052B28D8DFE803F00B05B8
:10143000200B0B0B2E46F1E7012104F10800FFF70A
:1014400019FC0546EDB94A4A536D23F00703A16F15
:101450000B435365236813F0040F23D0D4F8943062
:10146000052B45D8DFE803F0150F3D1515150121B3
:1014700004F12800FFF784FC0546E3E70126354622
:10148000E8E72E46E6E7012104F10800FFF7F2FB4A
:10149000054685BB364A936D23F00703D4F89410B4
:1014A0000B439365236813F0200F34D0D4F89030A9
:1014B000B3F1005F4ED023D843B1B3F1805F1CD1AC
:1014C000002104F10800FFF7D5FB0546002D48D1A7
:1014D000274A536D23F0E043D4F890100B43536533
:1014E00019E0012104F12800FFF74AFC0546D0E786
:1014F00001263546D6E72E46D4E7012635460AE0D2
:10150000B3F1804FE2D0B3F1A04FDFD0B3F1405F31
:10151000DCD001263546236813F0400F37D0D4F8CD
:101520009C30B3F5006F53D026D843B1B3F5806F2C
:1015300019D1002104F10800FFF79CFB0546002D9E
:101540004DD10B4A936D23F4E053D4F89C100B4318
:1015500093651CE0022104F12800FFF711FC054609
:10156000B4E72E46D7E70126354610E0004802587A
:1015700000440258CFFFFF00B3F5805FDFD0B3F522
:10158000A05FDCD0B3F5406FD9D001263546236883
:1015900013F0800F33D0D4F8A030B3F5804F00F0B3
:1015A000A38021D843B1B3F5005F1AD1002104F123
:1015B0000800FFF75FFB0546002D40F09C80814A44
:1015C000936D23F46043D4F8A0100B43936516E0A9
:1015D000022104F12800FFF7D3FB0546AFE72E46B2
:1015E000D5E7012635460AE0B3F5004FE4D0B3F560
:1015F000204FE1D0B3F5C04FDED001263546236839
:1016000013F0080F0CD0D4F88430B3F5805F74D099
:101610006C4A536D23F44053D4F884100B43536544
:10162000236813F0100F0CD0D4F89830B3F5807FF6
:101630006CD0644A936D23F44073D4F898100B4334
:101640009365236813F4002F0BD0D4F8A430B3F5BE
:10165000803F74D0B3F5003F67D0002B5FD00126E8
:101660003546236813F4802F0CD0D4F88830B3F5B6
:10167000001F7CD0B3F5401F6FD0B3F5801F67D03B
:1016800001263546236813F4803F08D0236D002BD4
:1016900076D0B3F5803F00F081800126354623687F
:1016A00013F0005F40F08380236813F4003F00F0E4
:1016B0008E80D4F88030B3F5807F00F0EC8040F26B
:1016C0008380B3F5007F03D0B3F5407F40F0E18025
:1016D000002D40F0E6803B4A536D23F44073D4F86C
:1016E00080100B43536572E0022104F12800FFF7DC
:1016F00047FB054660E72E4681E7022104F12800FA
:10170000FFF73EFB002883D0012681E7022104F188
:101710002800FFF735FB00288BD0012689E7002140
:1017200004F10800FFF7A6FA05467DB9254A936D36
:1017300023F44033D4F8A4100B43936591E70221BE
:1017400004F12800FFF71CFB0546EEE72E4688E76C
:101750001C4AD36A43F40033D3627DB9194A536DEE
:1017600023F44013D4F888100B4353658AE7012112
:1017700004F12800FFF704FB0546EEE72E4681E75B
:10178000104AD36A43F40033D36275B90D4AD36C5F
:1017900023F48033216D0B43D36480E7022104F1ED
:1017A0000800FFF767FA0546EFE72E4677E70221C4
:1017B00004F12800FFF7E4FA00283FF475AF012692
:1017C00072E700BF00440258002B81D00126236835
:1017D00013F4801F06D04F4A136D23F00043616F4E
:1017E0000B431365236813F0805F07D0494A1369E0
:1017F00023F48043D4F8B8100B431361236813F427
:10180000001F06D0434A136D23F08073E16E0B4333
:101810001365236813F0804F09D03E4B1A6922F4F8
:1018200000421A611A69D4F8BC100A431A6123688D
:10183000002B06DA374AD36C23F04053616D0B431B
:10184000D364236813F4000F07D0324A536D23F496
:101850004003D4F88C100B435365636813F0010FF9
:1018600021D1636813F0020F26D1636813F0040FCF
:101870002BD1636813F0080F30D1636813F0100F99
:1018800035D1636813F0200F3AD106B101263046F6
:10189000F8BD01269BE71F4AD36A43F40033D362A5
:1018A00016E72E4693E7002104F10800FFF7E2F95E
:1018B0000028D6D00646D4E7012104F10800FFF73E
:1018C000D9F90028D1D00646CFE7022104F108005B
:1018D000FFF7D0F90028CCD00646CAE7002104F172
:1018E0002800FFF74DFA0028C7D00646C5E70121BA
:1018F00004F12800FFF744FA0028C2D00646C0E7EA
:10190000022104F12800FFF73BFA0028BDD006466B
:10191000BBE700BF0044025808B5FFF73DF9054B8F
:101920001B6AC3F30213044AD35C03F01F03D840BD
:1019300008BD00BF004402587C59100810B5774A12
:10194000916A946AC4F3053ED36AC3F3001CD36B57
:10195000C3F3CC030CFB03F314F47C3F00F0D880FA
:1019600001F0030107EE903AF8EE677A012965D09D
:10197000022900F0B080E1B107EE10EAB8EE477A34
:101980009FED676AC6EE076A644B9B6BC3F308035F
:1019900007EE103AB8EE477A9FED626A67EE867AF4
:1019A00077EE277AB7EE007A77EE877A66EEA76A47
:1019B00060E0136813F0200F23D011461268C2F3C1
:1019C000C102594BD34007EE103AB8EE477A06EE03
:1019D00090EAB8EE666AC7EE066A8B6BC3F308033B
:1019E00007EE103AB8EE477A9FED4E6A67EE867AB8
:1019F00077EE277AB7EE007A77EE877A66EEA76AF7
:101A000038E007EE10EAB8EE477A9FED486AC6EE76
:101A1000076A424B9B6BC3F3080307EE103AB8EE1C
:101A2000477A9FED406A67EE867A77EE277AB7EEBF
:101A3000007A77EE877A66EEA76A1BE007EE10EA77
:101A4000B8EE477A9FED366AC6EE076A334B9B6B5A
:101A5000C3F3080307EE103AB8EE477A9FED316AF8
:101A600067EE867A77EE277AB7EE007A77EE877A96
:101A700066EEA76A294A936BC3F3462307EE103A32
:101A8000B8EE477AB7EE006A37EE067AC6EE877A86
:101A9000FCEEE77AC0ED007A936BC3F3064307EEE2
:101AA000103AB8EE477A37EE067AC6EE877AFCEE41
:101AB000E77AC0ED017A936BC3F3066307EE903AC1
:101AC000F8EE677A77EE867A86EEA77ABCEEC77A6A
:101AD00080ED027A10BD07EE10EAB8EE477A9FED6E
:101AE000146AC6EE076A0D4B9B6BC3F3080307EE3F
:101AF000103AB8EE477A9FED0B6A67EE867A77EE7A
:101B0000277AB7EE007A77EE877A66EEA76AB1E7B2
:101B10000023036043608360DCE700BF0044025899
:101B20000024744A000000390090D0030024744C53
:101B30000024F44A10B5774A916A946AC4F3055EAA
:101B4000D36AC3F3002C536CC3F3CC030CFB03F335
:101B500014F07C7F00F0D88001F0030107EE903A8A
:101B6000F8EE677A012965D0022900F0B080E1B172
:101B700007EE10EAB8EE477A9FED676AC6EE076A8D
:101B8000644B1B6CC3F3080307EE103AB8EE477AB8
:101B90009FED626A67EE867A77EE277AB7EE007A73
:101BA00077EE877A66EEA76A60E0136813F0200F7D
:101BB00023D011461268C2F3C102594BD34007EE3D
:101BC000103AB8EE477A06EE90EAB8EE666AC7EECB
:101BD000066A0B6CC3F3080307EE103AB8EE477AB7
:101BE0009FED4E6A67EE867A77EE277AB7EE007A37
:101BF00077EE877A66EEA76A38E007EE10EAB8EE6D
:101C0000477A9FED486AC6EE076A424B1B6CC3F3E6
:101C1000080307EE103AB8EE477A9FED406A67EE88
:101C2000867A77EE277AB7EE007A77EE877A66EED5
:101C3000A76A1BE007EE10EAB8EE477A9FED366A16
:101C4000C6EE076A334B1B6CC3F3080307EE103A6A
:101C5000B8EE477A9FED316A67EE867A77EE277A9B
:101C6000B7EE007A77EE877A66EEA76A294A136C98
:101C7000C3F3462307EE103AB8EE477AB7EE006A90
:101C800037EE067AC6EE877AFCEEE77AC0ED007A88
:101C9000136CC3F3064307EE103AB8EE477A37EEFB
:101CA000067AC6EE877AFCEEE77AC0ED017A136C0D
:101CB000C3F3066307EE903AF8EE677A77EE867A1A
:101CC00086EEA77ABCEEC77A80ED027A10BD07EEE9
:101CD00010EAB8EE477A9FED146AC6EE076A0D4B1C
:101CE0001B6CC3F3080307EE103AB8EE477A9FED7A
:101CF0000B6A67EE867A77EE277AB7EE007A77EE90
:101D0000877A66EEA76AB1E70023036043608360C9
:101D1000DCE700BF004402580024744A0000003988
:101D20000090D0030024744C0024F44AF0B583B032
:101D300000236BE085685E000324B44025EA0405B7
:101D4000CC68B4402C438460446824EA0C0C4C6892
:101D5000C4F300149C4044EA0C04446068E0DD08CD
:101D6000083550F8256003F007044FEA840C0F246F
:101D700004FA0CF426EA040E0C6904FA0CF444EAA2
:101D80000E0440F825406BE0092400E0002404FA2A
:101D90000EF42C430CF1020C694D45F82C404FF029
:101DA000B0442568D44325EA02064F6817F4801F23
:101DB00001D042EA05064FF0B0452E606D6804EA96
:101DC00005064F6817F4001F01D042EA05064FF0E0
:101DD000B0456E60D5F8C45004EA05064F6817F4A4
:101DE000003F01D042EA05064FF0B045C5F8C46097
:101DF000D5F8C0502C404E6816F4803F01D042EA1E
:101E000005044FF0B042C2F8C04001330A6832FA0C
:101E100003F400F092804FF0010C0CFA03FC1CEA72
:101E20000202F2D04C6804F00304013C012C81D979
:101E30004C6804F00304032C0CD0C4685D004FF020
:101E4000030C0CFA05FC24EA0C0C8C68AC4044EA48
:101E50000C04C4604C6804F00304022C3FF47FAF10
:101E600004684FEA430E4FF0030C0CFA0EFC24EA10
:101E70000C0C4C6804F0030404FA0EF444EA0C045D
:101E800004604C6814F4403FBFD02E4CD4F8F4509A
:101E900045F00205C4F8F450D4F8F44004F002040C
:101EA0000194019C4FEA930C0CF10205244C54F868
:101EB000255003F003044FEA840E0F2404FA0EF4B5
:101EC00025EA0405204CA0423FF460AF04F580648D
:101ED000A04222D004F58064A04220D004F58064A2
:101EE000A0421ED004F58064A0421CD004F580649A
:101EF000A0421AD004F58064A04218D004F5806492
:101F0000A04216D004F58064A04214D004F5806489
:101F1000A0423FF439AF0A2439E7012437E702240D
:101F200035E7032433E7042431E705242FE70624AB
:101F30002DE707242BE7082429E703B0F0BD00BFF5
:101F40000004005800440258000002580AB18161A0
:101F50007047090481617047436901EA030221EA7D
:101F6000030141EA0241816170470000024A13699E
:101F700003431361704700BF00650258F0B4876DDA
:101F80000468664E664DAC4218BFB44242D0183564
:101F9000AC423FD01835AC423CD01835AC4239D0B9
:101FA0001835AC4236D01835AC4233D01835AC4277
:101FB00030D005F55675AC422CD01835AC4229D03E
:101FC0001835AC4226D01835AC4223D01835AC4277
:101FD00020D01835AC421DD01835AC421AD0183577
:101FE000AC4217D04F4DAC4214D01435AC4211D096
:101FF0001435AC420ED01435AC420BD01435AC4283
:1020000008D01435AC4205D01435AC4202D014359A
:10201000AC4207D1446E856E6560C46E14B1046F26
:10202000456F656004683D4E3D4DAC4218BFB442FB
:1020300052D01835AC424FD01835AC424CD0183580
:10204000AC4249D01835AC4246D01835AC4243D0EA
:102050001835AC4240D005F55675AC423CD0183529
:10206000AC4239D01835AC4236D01835AC4233D0FA
:102070001835AC4230D01835AC422DD01835AC42B2
:102080002AD01835AC4227D0264E274DAC4218BF77
:10209000B44211D0254DAC420ED01435AC420BD019
:1020A0001435AC4208D01435AC4205D01435AC42DE
:1020B00002D01435AC4224D1C46D04F01F050124B4
:1020C000AC407C60046863608368402B20D0036868
:1020D00099600368DA6014E0C46D04F01F0C3F24BB
:1020E00004FA0CF4BC6005682C6824F480242C608D
:1020F000046863608368402B05D0036899600368B7
:10210000DA60F0BC704703689A600368D960F8E74A
:1021100003689A600368D960F3E700BF10000240CB
:1021200028000240085402581C54025830540258E7
:1021300003682749274A934218BF8B422FD0183291
:1021400093422CD01832934229D01832934226D091
:102150001832934223D01832934220D0183293423F
:102160001DD002F55672934219D01832934216D000
:102170001832934213D01832934210D0183293423F
:102180000DD0183293420AD01832934207D0183239
:10219000934204D023F0FF038365806D704710B431
:1021A000D9B210390C4AA2FB0142C2F302120B4C05
:1021B000A25CC2655F2907D9094A1A4004328265C8
:1021C000806D5DF8044B7047054A1A408265F7E759
:1021D0001000024028000240ABAAAAAA4C591008DD
:1021E00000FCFFFF83699BB9836A012B0AD0022B95
:1021F00002D00BB100207047C36A13F0807F2AD150
:1022000000207047C36AB3F1C07F26D0002070471A
:10221000B3F5005F0AD0836A022B26D9032B26D19F
:10222000C36A13F0807F24D100207047836A032B98
:1022300003D8DFE803F01404140A00207047C36ACF
:1022400013F0807F0DD100207047C36AB3F1C07FC7
:1022500009D00020704701207047012070470120FD
:10226000704701207047012070470120704700200F
:10227000704701207047000003682249224A9342B8
:1022800018BF8B4228D01432934225D01432934287
:1022900022D0143293421FD0143293421CD01432F5
:1022A000934219D01432934216D0DAB2103A174939
:1022B000A1FB0212120916491944A8291FD9154B6E
:1022C00013449B000366144B436602F01F02012374
:1022D00003FA02F282667047DBB2083B0F4AA2FBA8
:1022E00003230F4A02EB1312920002660D4A426664
:1022F000C3F30413012202FA03F383667047083222
:10230000DDE700BF085402581C540258ABAAAAAA21
:10231000F0FBFDBF0082001080080240CDCCCCCC89
:10232000009600168058025801794A1E072A2CD8B8
:1023300030B40368154D164CA34218BFAB4218D0F9
:102340001434A34215D01434A34212D01434A3423F
:102350000FD01434A3420CD01434A34209D0143447
:10236000A34206D00B4B0B449B00C3660A4B03678A
:1023700005E00A4B0B449B00C366094B036701232E
:1023800003FA02F2426730BC7047704708540258A3
:102390001C5402583F820010400902403F9600162C
:1023A0004059025870B5044600F0D6FB002C00F0EE
:1023B000B681054623685349534A934218BF8B425E
:1023C0000CBF0122002250D030318B424DD0183149
:1023D0008B424AD018318B4247D018318B4244D0BF
:1023E00018318B4241D018318B423ED001F55671E5
:1023F0008B423AD018318B4237D018318B4234D0CF
:1024000018318B4231D018318B422ED018318B428B
:102410002BD018318B4228D018318B4225D03B4924
:102420003B4A934218BF8B4200F03181394A9342B4
:1024300000F02D811432934200F02981143293422E
:1024400000F025811432934200F02181143293422E
:1024500000F01D811432934200F01981402363651E
:10246000032384F8353001204AE0022184F8351036
:10247000002184F834107ABB274A93422CD01832BA
:10248000934229D01832934226D01832934223D057
:102490001832934220D0183293421DD002F5567262
:1024A000934219D01832934216D01832934213D067
:1024B0001832934210D0183293420DD01832934202
:1024C0000AD01832934207D01832934204D01A68C7
:1024D00022F001021A6003E01A6822F001021A6079
:1024E00023681A6812F0010F18D000F035FB431B67
:1024F000052BF5D920236365032384F835300120AB
:1025000070BD00BF1000024028000240085402586D
:102510001C54025830540258400002401A68814846
:102520001040A168E2680A4321690A4361690A43CD
:10253000A1690A43E1690A43216A0A430243616AC5
:10254000042900F099807849086878490140B1F180
:10255000005F11D36168A1F12905A1F13F000328B3
:1025600088BF052D06D9A1F14700012802D94F39AE
:10257000032901D842F480121A602668756925F093
:102580000705636A1D43042B08D1A36A1D43E36A50
:1025900023B12046FFF726FE002872D17561204640
:1025A000FFF7C6FDE36D03F01F023F2393408360F6
:1025B00023685F495F4A934218BF8B4242D018326A
:1025C00093423FD0183293423CD01832934239D0D4
:1025D0001832934236D01832934233D01832934295
:1025E00030D002F5567293422CD01832934229D043
:1025F0001832934226D01832934223D01832934295
:1026000020D0183293421DD0183293421AD018327B
:10261000934217D0484A934214D01432934211D0B7
:10262000143293420ED0143293420BD014329342A0
:1026300008D01432934205D01432934202D014329F
:10264000934213D12046FFF717FEA368802B59D081
:10265000236E22791A60636EA26E5A606368013B32
:10266000072B52D90023E366236763670020606568
:10267000012384F8353043E7E16A206B01430A43C4
:1026800061E740236365012084F8350038E70222C2
:1026900084F83520002284F834201A682749114034
:1026A000A268402A2CD0802A27D00022E06842EA83
:1026B000D002206942EAD002606942EAD002A069F1
:1026C00042EAD002E06942EAD002206A42EA1012ED
:1026D0000A431A6022681A4B13441A4AA2FB0323C6
:1026E0001B099B00E3652046FFF722FDE26D02F027
:1026F0001F0101228A4042605AE74FF48042D5E729
:102700001022D3E700236360A2E72046FFF70CFE08
:10271000E36E00221A60236F626F5A60A6E7012001
:10272000EEE600BF3F8010FE0010005C0000FFFFDF
:102730001000024028000240085402580F00FEFF1B
:10274000F8ABFDA7CDCCCCCC002800F03E8170B515
:10275000044690F83400012800F03981012084F803
:10276000340094F83500C0B2012807D04FF400635C
:102770006365002384F83430012070BD022084F8A2
:102780003500002060652068924E934DA84218BF26
:10279000B0422FD01835A8422CD01835A84229D0E5
:1027A0001835A84226D01835A84223D01835A8429B
:1027B00020D01835A8421DD005F55675A84219D06D
:1027C0001835A84216D01835A84213D01835A8429B
:1027D00010D01835A8420DD01835A8420AD01835A7
:1027E000A84207D01835A84204D0056825F0010595
:1027F000056003E0056825F0010505602046FFF748
:10280000BDFB23687349744A934218BF8B4238D08A
:102810001832934235D01832934232D01832934254
:102820002FD0183293422CD01832934229D018322C
:10283000934226D002F55672934222D01832934228
:102840001FD0183293421CD01832934219D018323C
:10285000934216D01832934213D01832934210D0BC
:10286000183293420DD01A6822F00E0242F00A028A
:102870001A60236C93B12268136843F00403136059
:102880000CE01A6822F01E0242F016021A60236C55
:1028900023B12268136843F00803136023684D498D
:1028A0004D4A934218BF8B4242D0183293423FD0D8
:1028B000183293423CD01832934239D018329342A6
:1028C00036D01832934233D01832934230D002F5CA
:1028D000567293422CD01832934229D01832934228
:1028E00026D01832934223D01832934220D0183287
:1028F00093421DD0183293421AD01832934217D007
:10290000364A934214D01432934211D01432934277
:102910000ED0143293420BD01432934208D01432AA
:10292000934205D01432934202D0143293420ED116
:10293000236E1A6812F4803F03D01A6842F4807242
:102940001A60E36E1BB11A6842F480721A60236841
:102950002049214A934218BF8B4230D0183293420B
:102960002DD0183293422AD01832934227D01832F1
:10297000934224D01832934221D0183293421ED071
:1029800002F5567293421AD01832934217D0183279
:10299000934214D01832934211D0183293420ED081
:1029A000183293420BD01832934208D01832934217
:1029B00005D01A6842F001021A600020DDE61A68AC
:1029C00042F001021A600020D7E601207047022081
:1029D000D3E600BF1000024028000240085402580D
:1029E00038B50D46284C236823F0010303432360C8
:1029F0005AB1012A25D0FDF7C9FF03283ED0224A4B
:102A0000536923F00403536138BDFDF7BFFF03286A
:102A1000FAD1236923F0010323611C4A136943F0AF
:102A200004031361BFF34F8FBFF36F8F012D06D0E7
:102A300020BF164A136923F004031361E4E730BF93
:102A4000F7E7FDF7A3FF0128DED10F4A536923F012
:102A5000020353610D4A136943F004031361BFF38A
:102A60004F8FBFF36F8F012D06D020BF074A136928
:102A700023F004031361C7E730BFF7E7024A136985
:102A800023F004031361BFE70048025800ED00E0A3
:102A900008B5FDF77BFF032802D040BF20BF08BD6B
:102AA00020BFFCE710B582B01F4CD4F8D83043F4F7
:102AB0008043C4F8D830D4F8D83003F4804301936D
:102AC000019B1A4AD2F80014194B0B4043F40143FE
:102AD000C2F80034D2F8003443F00103C2F80034E5
:102AE0000320FDF7FDFEFDF75DFFA369C3F303239C
:102AF000104AD35C03F01F03D840A36903F00F030F
:102B0000D35C03F01F03D8400B4B18600B4B1860CD
:102B10000F2000F0C9FF18B10124204602B010BDFB
:102B20000446FDF759FEF8E7004402580040024011
:102B3000FF00F0FF7C5910080C0000100800001086
:102B4000034B1B78034A11680B441360704700BFA6
:102B500000000010B8010010014B1868704700BF5A
:102B6000B80100107047000090F83D30DBB2012B37
:102B70003AD1022380F83D300268D36843F0010364
:102B8000D36003681A4AB3F1804F18BF93421DD037
:102B9000A2F57C42934219D002F58062934215D08F
:102BA00002F58062934211D002F5784293420DD033
:102BB000A2F56C42934209D002F59432934205D0BB
:102BC0001A6842F001021A60002070479968094AA9
:102BD0000A40062A18BFB2F5803F07D01A6842F0B3
:102BE00001021A60002070470120704700207047E2
:102BF00000000140070001007047704770477047B0
:102C000010B5044603681A6912F0020F11D0DA6891
:102C100012F0020F0DD06FF002021A610123037748
:102C200003689B6913F0030F79D0FFF7E6FF0023D9
:102C3000237723681A6912F0040F12D0DA6812F0B1
:102C4000040F0ED06FF004021A6102232377236869
:102C50009B6913F4407F68D02046FFF7CEFF002326
:102C6000237723681A6912F0080F12D0DA6812F07D
:102C7000080F0ED06FF008021A610423237723682F
:102C8000DB6913F0030F57D02046FFF7B6FF002390
:102C9000237723681A6912F0100F12D0DA6812F045
:102CA000100F0ED06FF010021A61082323772368EB
:102CB000DB6913F4407F46D02046FFF79EFF0023D8
:102CC000237723681A6912F0010F03D0DA6812F033
:102CD000010F3FD123681A6912F0800F03D0DA6820
:102CE00012F0800F3DD123681A6912F4807F03D05F
:102CF000DA6812F0800F3BD123681A6912F0400F96
:102D000003D0DA6812F0400F39D123681A6912F043
:102D1000200F03D0DA6812F0200F37D110BDFFF773
:102D20006BFF2046FFF76AFF81E72046FFF764FF4D
:102D30002046FFF763FF92E72046FFF75DFF20463E
:102D4000FFF75CFFA3E72046FFF756FF2046FFF79B
:102D500055FFB4E76FF001021A612046FDF798FCB9
:102D6000B8E76FF080021A61204600F0CAF8BAE7AF
:102D70006FF480721A61204600F0C4F8BCE76FF06F
:102D800040021A612046FFF73AFFBEE76FF02002CB
:102D90001A61204600F0B4F8C0E7000030B50368BF
:102DA000394A904214BF4FF0000E4FF0010EB0F1BF
:102DB000804F14BF72464EF00102AAB9334CA042B4
:102DC00014BF00240124324DA8420DD064B904F18F
:102DD000804404F58234A04214BF0024012405F588
:102DE0000065A84200D01CB123F070034C68234357
:102DF00012BB264A904214BF00220122244CA0425A
:102E00001AD0CAB902F1804202F58232904214BF50
:102E10000022012204F50064A0420DD062B91D4ACF
:102E2000904214BF0022012204F59A34A04203D03C
:102E300012B9194A904204D123F4407CCB6843EA8A
:102E40000C0323F080034A69134303608A68C2625B
:102E50000A688262114A904214BF73464EF0010321
:102E600063B90C4B984214BF0023012302F5705242
:102E7000904203D013B9084B984201D10B69036308
:102E80000123436130BD00BF000001400008004045
:102E9000000400400044014000480140000401409B
:102EA00060B310B5044690F83D3013B3022384F8A4
:102EB0003D30214651F8040BFFF770FF012384F8E1
:102EC000483084F83E3084F83F3084F8403084F84D
:102ED000413084F8423084F8433084F8443084F838
:102EE000453084F8463084F8473084F83D3000207F
:102EF00010BD80F83C30FFF735FED7E70120704762
:102F0000704770477047026852E8003F23F0C003E3
:102F100042E800310029F6D1026802F1080353E8C3
:102F2000003F23F40003083242E800310029F3D1C6
:102F30002023C0F888307047026852E8003F23F42D
:102F4000907342E800310029F6D1026802F10803CB
:102F500053E8001F0D4B0B40083242E800310029B6
:102F6000F3D1C36E012B06D02023C0F88C30002390
:102F7000C36643677047026852E8003F23F01003BE
:102F800042E800310029F6D1EEE700BFFEFFFFEF77
:102F90001346D0F88820202A3DD110B50446002BD6
:102FA00018BF002939D00165A0F85430A0F8563078
:102FB0000022C0F890202122C0F88820C26FCAB138
:102FC0001749D163C26F17491164C26F1649D164A2
:102FD000C26F0021116502682832016DC06FFFF7D2
:102FE000B3FB38B11023C4F890302023C4F88830E4
:102FF00001200FE0236840221A62226802F10803D0
:1030000053E8003F43F08003083242E800310029D2
:10301000F3D1002010BD022070470120FAE700BF65
:103020002F3010087730100883301008704708B52B
:103030000346806BDB69B3F5807F18D00023A0F8CE
:103040005630026802F1080353E8003F23F0800382
:10305000083242E800310029F3D1026852E8003F0B
:1030600043F0400342E800310029F6D108BDFFF7E4
:10307000DDFFFBE7704708B5806BFFF7FBFF08BD7E
:10308000704738B5846BD4F88820D4F88C50236806
:103090009B6813F0800F01D0212A10D023689B6811
:1030A00013F0400F01D0222D10D0D4F8903043F00F
:1030B0001003C4F890302046FFF7E2FF38BD00232C
:1030C000A4F856302046FFF71EFFE7E70023A4F8D8
:1030D0005E302046FFF730FFE7E7000070B586B0AE
:1030E0000446016883680269134342691343C26955
:1030F00013430868884A024013430B6022685368F0
:1031000023F44053E1680B435360A1692268834B69
:103110009A4201D0236A19439068814B03400B43C4
:1031200093602268D36A23F00F03616A0B43D36272
:1031300022687C4B9A4221D07B4B9A4200F08C80D3
:103140007A4B9A4200F0A280794B9A4200F0B58007
:10315000784B9A4200F0C880774B9A4200F0F48096
:10316000764B9A4200F01981754B9A4200F02C81FF
:103170006A4B9A4200F03F81802333E0714B5B6DD4
:1031800003F03803282B65D8DFE813F0290064002A
:103190006400640064006400640064004D01640025
:1031A0006400640064006400640064002B00640038
:1031B0006400640064006400640064005E006400F5
:1031C00064006400640064006400640060006400E3
:1031D0006400640064006400640064006200012311
:1031E00000E008234D498A4200F02F81E069B0F5E4
:1031F000004F00F0AF81202B00F20782202B00F25D
:103200005182DFE813F01E0224024F024F02270210
:103210004F024F024F022C024F024F024F024F0249
:103220004F024F024F0231024F024F024F024F0234
:103230004F024F024F024F024F024F024F024F0206
:103240004F024F024F023D021023CBE72023C9E774
:103250004023C7E78023C5E73A4B5B6D03F00703C4
:10326000052B11D8DFE813F00600E10008000A0082
:103270000C000E000023B5E70823B3E71023B1E7E5
:103280002023AFE74023ADE78023ABE72D4B5B6DF9
:1032900003F00703052B0ED8DFE803F003C9050789
:1032A000090B00239EE708239CE710239AE72023BD
:1032B00098E7402396E7802394E7224B5B6D03F069
:1032C0000703052B0ED8DFE803F003B40507090B4D
:1032D000002387E7082385E7102383E7202381E77E
:1032E00040237FE780237DE7164B5B6D03F00703E8
:1032F000052B0ED8DFE803F0039F0507090B002319
:1033000070E708236EE710236CE720236AE7402369
:1033100068E7802366E700BFF369FFCF000C005821
:10332000FFF4FF110010014000440040004800403D
:10333000004C004000500040001401400078004064
:10334000007C0040004402587D4B5B6D03F0380365
:10335000282B20D8DFE803F0151F1F1F1F1F1F1F7A
:10336000711F1F1F1F1F1F1F171F1F1F1F1F1F1F23
:10337000191F1F1F1F1F1F1F1B1F1F1F1F1F1F1F67
:103380001D0001232EE708232CE710232AE7202322
:1033900028E7402326E7802324E7694B5B6D03F091
:1033A0000703052B0ED8DFE803F0034A0507090BD6
:1033B000002317E7082315E7102313E7202311E75D
:1033C00040230FE780230DE75D4B5B6D03F00703A0
:1033D000052B0ED8DFE803F003350507090B0023A2
:1033E00000E70823FEE61023FCE62023FAE640234C
:1033F000F8E68023F6E603F50E339B6D03F0070332
:10340000052B0ED8DFE803F0031F0507090B022385
:10341000E8E60823E6E61023E4E62023E2E640237C
:10342000E0E68023DEE60423DCE60423DAE6042378
:10343000D8E60423D6E60423D4E60423D2E6042304
:10344000D0E60423CEE60423CCE6202B27D8022B9B
:10345000C0F01A81023B1E2B00F21881DFE813F046
:103460005000160156001601160116015B001601E8
:10347000160116011601160116011601600016014B
:103480001601160116011601160116011601160184
:103490001601160116011601160116016C00402BCB
:1034A0002CD14FF40040626A264B33F81220B0FB57
:1034B000F2F3656805EB4501994200F2E980B3EB50
:1034C000053F00F2E780002633463146FCF708FF4F
:1034D000090241EA106100026B08C0182A4633460F
:1034E00041F10001FCF7FCFEA0F54072164B9A4238
:1034F00000F2D2802368D8603046D4E00120D2E0C8
:10350000FEF70AFA0028CED10020CCE003A8FEF78F
:1035100015FA0498F6E76846FEF70CFB0198F1E708
:10352000074B1B6813F0200F08D0054B1B68C3F333
:10353000C1030648D840E5E70548B4E70348B2E7C9
:103540000044025854591008FFFC0F000090D003AB
:1035500000093D00202B15D8202B00F29F80DFE8CA
:1035600003F031379D9D3A9D9D9D3F9D9D9D9D9D65
:103570009D9D449D9D9D9D9D9D9D9D9D9D9D9D9DD4
:103580009D9D5000402B1BD1626A4D4B33F8123089
:10359000B0FBF3F06268530803EB4000B0FBF2F0BD
:1035A000A0F110024FF6EF739A4279D883B223F05C
:1035B0000F03C0F3420018432368D860002072E074
:1035C000012070E0FDF708FB0028DDD100206AE053
:1035D000FDF714FBF8E703A8FEF7B0F90498F3E74A
:1035E0006846FEF7A7FA0198EEE7364B1B6813F022
:1035F000200F08D0334B1B68C3F3C1033248D840B7
:10360000E2E73248C0E73048BEE7402B17D14FF41D
:103610000040626A2A4B33F81230B0FBF3F0636863
:1036200000EB5300B0FBF3F0A0F110024FF6EF7384
:103630009A4242D8236880B2D860002033E001204B
:1036400031E0FDF7C9FA0028E3D100202BE0FDF7B7
:10365000D5FAF8E703A8FEF771F90498F3E768468E
:10366000FEF768FA0198EEE7164B1B6813F0200F7F
:1036700008D0144B1B68C3F3C1031348D840E2E7DA
:103680001248C6E71048C4E701200CE001200AE018
:10369000012008E0012006E0012004E0012002E012
:1036A000012000E001200123A4F86A30A4F868306A
:1036B00000236367A36706B070BD0120F3E700BF76
:1036C00054591008004402580090D00300093D00EE
:1036D000836A13F0010F06D00268536823F40033A5
:1036E000C16A0B435360836A13F0020F06D002686D
:1036F000536823F48033016B0B435360836A13F0E8
:10370000040F06D00268536823F48023416B0B43F7
:103710005360836A13F0080F06D00268536823F4DD
:103720000043816B0B435360836A13F0100F06D084
:103730000268936823F48053C16B0B439360836AE0
:1037400013F0200F06D00268936823F40053016C35
:103750000B439360836A13F0400F0AD002685368EA
:1037600023F48013416C0B435360436CB3F5801F0B
:103770000BD0836A13F0800F06D00268536823F4DD
:103780000023C16C0B43536070470268536823F4F5
:10379000C003816C0B435360EBE72DE9F84305460A
:1037A0000F4616469946DDF820802C68E46937EA12
:1037B00004030CBF4FF0010C4FF0000CB44532D1A4
:1037C000B8F1FF3FF1D0FFF7C7F9A0EB0900404582
:1037D0002CD8B8F1000F2BD02B681A6812F0040F08
:1037E000E3D0DA6912F0080F11D1DA6912F4006F30
:1037F000DBD04FF400621A622846FFF79DFB2023BE
:10380000C5F89030002385F8843003200CE00824AC
:103810001C622846FFF790FBC5F89040002385F80E
:103820008430012000E00020BDE8F8830320FBE79E
:103830000320F9E730B583B004460023C0F8903088
:10384000FFF78AF905462268126812F0080F10D1B6
:1038500023681B6813F0040F28D12023C4F8883094
:10386000C4F88C300020E066206784F8840003B040
:1038700030BD6FF07E430093034600224FF40011E9
:103880002046FFF78AFF0028E2D0226852E8003F76
:1038900023F0800342E800310029F6D12023C4F848
:1038A0008830002384F884300320E0E76FF07E4303
:1038B00000932B4600224FF480012046FFF76DFF56
:1038C0000028CAD0226852E8003F23F4907342E8EF
:1038D00000310029F6D1226802F1080353E8003FC5
:1038E00023F00103083242E800310029F3D12023FC
:1038F000C4F88C30002384F884300320B7E778B311
:1039000010B50446D0F888300BB32423C4F88830AF
:103910002268136823F0010313602046FFF7DEFBE3
:10392000012813D0A36ABBB92268536823F49043DB
:1039300053602268936823F02A0393602268136817
:1039400043F0010313602046FFF774FF10BD80F8B9
:103950008430FCF75BFFD8E72046FFF7B9FEE3E7CA
:1039600001207047436E2BB90123A0F86A30A0F8FC
:103970006830704730B403689A68C2F3426299684D
:10398000490F094D6B5C1B01084C615C93FBF1F323
:10399000A0F86A30AB5C1B01A25C93FBF2F3A0F8C9
:1039A000683030BC704700BF745910086C5910085B
:1039B00090F88430012B1DD010B50446012380F807
:1039C00084302423C0F8883002681368116821F01D
:1039D0000101116043F000534FF00052426602684B
:1039E0001360FFF7BFFF2023C4F88830002084F85D
:1039F000840010BD0220704738B590F88430012B48
:103A00001DD00446012380F884302423C0F8883078
:103A100003681D681A6822F001021A600268936840
:103A200023F0604319439160FFF79CFF23681D60FA
:103A30002023C4F88830002084F8840038BD022098
:103A4000FCE738B590F88430012B1DD004460123E3
:103A500080F884302423C0F8883003681D681A6811
:103A600022F001021A600268936823F06063194330
:103A70009160FFF777FF23681D602023C4F888302A
:103A8000002084F8840038BD0220FCE7054BD3F801
:103A9000882042F47002C3F888201A6942F01002AC
:103AA0001A61704700ED00E00F2801D9012070472E
:103AB00010B58AB00446002201461C20FCF722FF04
:103AC0001C20FCF755FF1B4B1C601B4BD3F8E82058
:103AD00042F00102C3F8E820D3F8E83003F0010314
:103AE0000093009B01A902A8FDF79AF8079BC3B9B0
:103AF000FDF772F803461148A0FB03239B0C013B22
:103B00000F484FF08042026040F2E732C2604360EB
:103B1000002303618360FFF7C3F930B101200AB0CD
:103B200010BDFDF759F84300E5E70548FFF71CF81D
:103B3000F5E700BF040000100044025883DE1B4379
:103B4000BC01001000F1080343604FF0FF328260B7
:103B5000C360036100230360704700230361704763
:103B600043684B609A688A60516099600861036895
:103B700001330360704730B40D68B5F1FF3F11D0D9
:103B800000F108031C465B681A68AA42FAD9636808
:103B90004B6099608C606160086103680133036069
:103BA00030BC70470469F2E70369416882688A6043
:103BB000416851605A68824206D0002202611A6848
:103BC000013A1A601868704782685A60F5E710B5C4
:103BD000044601F0C7FCA26BE36B9A4204D00024B8
:103BE00001F0E2FC204610BD0124F9E710B50446BF
:103BF00001F0B8FCA36B23B9012401F0D5FC2046E9
:103C000010BD0024F9E770B504461546866B026CBA
:103C10005AB903681BB100200136A66370BD8068E5
:103C200000F0E2FF0023A360F6E76DB9406801F001
:103C30003BFE226C636813446360A268934219D30D
:103C4000236863602846E7E7C06801F02DFE226C18
:103C50005142E3689B1AE3602268934202D2A36850
:103C60000B44E360022D01D00020D5E726B1013ED0
:103C70000020D1E72846CFE70020CDE70346026CBD
:103C80006AB110B50846D9681144D9609C68A14250
:103C900001D31968D960D96801F006FE10BD7047DC
:103CA00038B5054601F05EFC95F8454064B201E088
:103CB000013C64B2002C0ADD6B6A43B105F12400BB
:103CC00000F0E8FE0028F3D000F078FFF0E7FF23D3
:103CD00085F8453001F068FC01F044FC95F844405B
:103CE00064B201E0013C64B2002C0ADD2B6943B1EF
:103CF00005F1100000F0CEFE0028F3D000F05EFFCA
:103D0000F0E7FF2385F8443001F04EFC38BD38B5AC
:103D1000E0B10D46044601F025FC2368E26B216CFE
:103D200001FB0230A0600020A0636360013A02FB47
:103D30000133E360FF2384F8443084F84530FDB953
:103D4000236963B901F030FC012038BD4FF0500306
:103D500083F31188BFF36F8FBFF34F8FFEE704F13A
:103D6000100000F097FE0028ECD04FF0E0234FF059
:103D70008052C3F8042DBFF34F8FBFF36F8FE1E77D
:103D800004F11000FFF7DEFE04F12400FFF7DAFE75
:103D9000D8E738B51D46049C0B4649B92460E0635A
:103DA000236401212046FFF7B2FF84F84C5038BD50
:103DB0002260F4E740B94FF0500383F31188BFF35A
:103DC0006F8FBFF34F8FFEE710B584B01C4683B1F1
:103DD0000B1E18BF0123002A08BF43F001038BB953
:103DE0004FF0500383F31188BFF36F8FBFF34F8FF2
:103DF000FEE74FF0500383F31188BFF36F8FBFF3DB
:103E00004F8FFEE7B1FA81F35B09002A18BF43F038
:103E1000010343B94FF0500383F31188BFF36F8F51
:103E2000BFF34F8FFEE750230393039B502B08D023
:103E30004FF0500383F31188BFF36F8FBFF34F8FA1
:103E4000FEE7039B012384F8463000949DF8183068
:103E5000FFF79FFF204604B010BDF0B585B001927A
:103E600088B10F461D460446B1B1022D20D1E36B47
:103E7000012B1DD04FF0500383F31188BFF36F8FD8
:103E8000BFF34F8FFEE74FF0500383F31188BFF36A
:103E90006F8FBFF34F8FFEE7036C002BE5D04FF021
:103EA000500383F31188BFF36F8FBFF34F8FFEE78B
:103EB00000F08AFE064658B9019B002B48D04FF00F
:103EC000500383F31188BFF36F8FBFF34F8FFEE76B
:103ED00000263DE02A4639462046FFF794FE636AF5
:103EE0007BB948B14FF0E0234FF08052C3F8042D66
:103EF000BFF34F8FBFF36F8F01F056FB012005B06A
:103F0000F0BD04F1240000F0C5FD0028F4D04FF00E
:103F1000E0234FF08052C3F8042DBFF34F8FBFF35F
:103F20006F8FE9E701F040FB0020E8E702A800F00E
:103F3000F7FD012619E0002384F8443021E0002336
:103F400084F8453023E02046FFF7AAFE00F082FC0B
:103F500001F008FBA26BE36B9A42BBD3022DB9D0F0
:103F6000019B002BDED0002EE0D001F01DFB00F005
:103F7000D7FB01F0F7FA94F8442052B2B2F1FF3FB8
:103F8000D9D094F8452052B2B2F1FF3FD7D001F01A
:103F90000BFB01A902A800F0CFFDD8B92046FFF71E
:103FA00016FE0028CFD0019904F1100000F03EFD6C
:103FB0002046FFF775FE00F04DFC0028C8D14FF0F9
:103FC000E0234FF08052C3F8042DBFF34F8FBFF3AF
:103FD0006F8FBDE72046FFF763FE00F03BFC00203B
:103FE0008DE72DE9F84390B10F4616461C4605466D
:103FF000B1B1022C20D1EB6B012B1DD04FF050033F
:1040000083F31188BFF36F8FBFF34F8FFEE74FF03D
:10401000500383F31188BFF36F8FBFF34F8FFEE719
:10402000036C002BE5D04FF0500383F31188BFF3EE
:104030006F8FBFF34F8FFEE701F0BAFBEFF31189EB
:104040004FF0500383F31188BFF36F8FBFF34F8F8F
:10405000AA6BEB6B9A4206D3022C04D0002089F3A2
:104060001188BDE8F88395F845804FFA88F8AB6B66
:10407000224639462846FFF7C6FDB8F1FF3F06D075
:1040800008F101035BB285F845300120E7E76B6A70
:104090000BB90120E3E705F1240000F0FBFC18B1A7
:1040A00026B101203060DAE70120D8E70120D6E709
:1040B000F0B585B0019290B10F460446C1B100F051
:1040C00083FD064600BB019B002B5ED04FF05003E2
:1040D00083F31188BFF36F8FBFF34F8FFEE74FF06D
:1040E000500383F31188BFF36F8FBFF34F8FFEE749
:1040F000036C002BE3D04FF0500383F31188BFF320
:104100006F8FBFF34F8FFEE700263EE03946204613
:10411000FFF7B4FD013DA563236923B901F044FA1B
:10412000012005B0F0BD04F1100000F0B3FC002840
:10413000F4D04FF0E0234FF08052C3F8042DBFF3CA
:104140004F8FBFF36F8FE9E701F02EFA0020E8E709
:1041500002A800F0E5FC012621E0002384F84430A9
:1041600029E0002384F845302BE02046FFF798FD36
:1041700000F070FB09E02046FFF792FD00F06AFBBB
:104180002046FFF733FD00283FD101F0EBF9A56B86
:10419000002DBBD1019B002BD6D0002ED8D001F032
:1041A00003FA00F0BDFA01F0DDF994F844305BB297
:1041B000B3F1FF3FD1D094F845305BB2B3F1FF3F8C
:1041C000CFD001F0F1F901A902A800F0B5FC002858
:1041D000D1D12046FFF70AFD0028C6D0019904F18D
:1041E000240000F023FC2046FFF75AFD00F032FBCC
:1041F0000028CAD14FF0E0234FF08052C3F8042DBD
:10420000BFF34F8FBFF36F8FBFE7002089E7000038
:104210000023072B0CD8074A52F833200AB1013388
:10422000F7E7044A42F8331002EBC30358607047C3
:10423000704700BF0802001070B504460D461646D0
:1042400001F090F994F844305BB2B3F1FF3F0DD028
:1042500094F845305BB2B3F1FF3F0BD001F0A4F905
:10426000A36B5BB12046FFF71BFD70BD002384F8F4
:104270004430EDE7002384F84530EFE73246294625
:1042800004F1240000F0EAFBECE70000084B1B6897
:104290001B6823B9074B4FF0FF321A607047044B7D
:1042A0001B68DB68DB685A68024B1A60704700BF06
:1042B0004C020010F40600102DE9F04780460D4630
:1042C00017469946089EDDF824A00A9C9200A52175
:1042D000206B01F0F7FA236B6FF040423A4403EB96
:1042E000820727F00707B5B34FF0000CBCF10F0FA2
:1042F0000BD815F80C2004EB0C0383F8342015F8C8
:104300000C3013B10CF1010CF0E7002384F84330BA
:10431000372E00D93726E662E66400252565201D84
:10432000FFF71BFC04F11800FFF717FC2461C6F12E
:104330003806A6616462656584F858504A4641466D
:10434000384601F0E5F82060BAF1000F01D0CAF854
:104350000040BDE8F087002384F83430D8E700003F
:1043600038B5002407E004EB840293000E4818449B
:10437000FFF7E8FB0134372CF5D90C4D2846FFF741
:10438000E1FB0B4C2046FFF7DDFB0A48FFF7DAFBA9
:104390000948FFF7D7FB0948FFF7D4FB084B1D601E
:1043A000084B1C6038BD00BF54020010C806001046
:1043B000DC060010000700102C0700101807001082
:1043C0004C0200105002001010B5044601F0CAF86B
:1043D000224A136801331360214B1B685BB1214BE8
:1043E0001B686BB91E4B1B68DA6AE36A9A4207D8EE
:1043F0001B4B1C6004E01A4B1C601368012B29D076
:10440000194A1368013313606364E06A174B1B6831
:10441000984201D9154B186000EB8000211D144B08
:1044200003EB8000FFF79CFB01F0BEF80D4B1B680F
:104430007BB10B4B1B68DA6AE36A9A4209D24FF0F0
:10444000E0234FF08052C3F8042DBFF34F8FBFF32A
:104450006F8F10BDFFF784FFD2E700BFB4060010D6
:104460004802001014070010C0060010C406001017
:104470005402001010B5044690F8593063B1012B76
:1044800011D0022B0ED04FF0500383F31188BFF3ED
:104490006F8FBFF34F8FFEE7006B00F0BDFF20462C
:1044A00000F0BAFF10BD00F0B7FFFBE70F4B1B6831
:1044B000D3B110B501F056F80D4BDB68DC68201D58
:1044C000FFF772FB0B4A1368013B1360074A13683E
:1044D000013B136001F068F82046FFF7CBFF034B68
:1044E0001B68002BE6D110BD704700BFB806001056
:1044F0002C070010B406001008B5FFF7D7FF074BD4
:104500001B68012BF9D94FF0E0234FF08052C3F81C
:10451000042DBFF34F8FBFF36F8FEEE754020010EF
:1045200070B504460D46194B1E68194B18680430C7
:10453000FFF73AFBB4F1FF3F14BF00230123002D26
:1045400008BF00236BB93444114B1B685C60A64262
:104550000ED9104B18680E4B19680431FFF70BFB8E
:1045600070BD0B4B196804310B48FFF7F9FAF7E7F8
:104570000A4B1868064B19680431FFF7FCFA084B20
:104580001B68A342ECD9064B1C60E9E7400700100A
:104590004802001050020010180700104C020010D2
:1045A000F406001030B587B00B9C7CB10C9DB5B102
:1045B0005C250495049D5C2D1AD04FF0500383F3C5
:1045C0001188BFF36F8FBFF34F8FFEE74FF050039B
:1045D00083F31188BFF36F8FBFF34F8FFEE74FF068
:1045E000500383F31188BFF36F8FBFF34F8FFEE744
:1045F000049D0C9D2C63022485F8594000240394EB
:10460000029505AC01940A9C0094FFF755FE0C98A6
:10461000FFF7DAFE059807B030BD2DE9F04385B00D
:104620000746884614461E46900000F077FE00B309
:1046300081465C2000F072FE0546B0B1C0F83090B3
:10464000E5B1002385F85930039302950D9B019342
:104650000C9B00933346224641463846FFF72CFE1A
:104660002846FFF7B1FE012005E0484600F0D4FEE1
:10467000E6E74FF0FF3005B0BDE8F0834FF0FF30C4
:10468000F9E7000010B588B000240594069407AA45
:1046900006A905A800F0C6FD059B0293069B0193A1
:1046A00000942346079A18491848FFF77BFF184BD8
:1046B000186040B100F050FB012806D0B0F1FF3F78
:1046C00018D008B010BD0020F6E74FF0500383F378
:1046D0001188BFF36F8FBFF34F8F0E4B4FF0FF3238
:1046E0001A600D4B01221A600C4B00221A6000F078
:1046F000D3FFE6E74FF0500383F31188BFF36F8FCA
:10470000BFF34F8FFEE700BF8C591008F944100823
:10471000F0060010F4060010140700104007001007
:10472000024A136801331360704700BFBC060010D3
:10473000014B1868704700BF40070010F8B53A4BAE
:104740001B68002B69D1394B1D6801351D60C5B947
:10475000374B1B681B6843B14FF0500383F311883C
:10476000BFF36F8FBFF34F8FFEE7314A1168314BB4
:10477000186810601960304A136801331360FFF73E
:1047800085FD2E4B1B68AB423DD900272C4B1B6887
:10479000DB6A03EB83039A002A4B9B58012B00D959
:1047A0000127294B1B68002B3CD001273AE0012749
:1047B0001F4B1B681B6843B31D4B1B68DB68DC6821
:1047C00063689D4226D3261D3046FFF7EDF9A36AA4
:1047D0001BB104F11800FFF7E7F9E36A1B4A1268FE
:1047E000934201D9194A136003EB83039A003146BF
:1047F00014481044FFF7B4F9E26A114B1B68DB6AF6
:104800009A42D4D2D4E70027D2E70C4B4FF0FF32C4
:104810001A60BBE7094A1360B8E70D4A1368013311
:10482000136000273846F8BDBC0600104007001092
:104830004C02001050020010F8060010F4060010A0
:10484000480200105402001044070010C406001073
:10485000FC06001038B5354B1B6843B94FF05003C8
:1048600083F31188BFF36F8FBFF34F8FFEE700F024
:1048700079FE2E4B1A68013A1A601B68002B4FD143
:104880002B4B1B680BB900244BE00024294B1B6801
:104890001BB3284BDB68DC6804F11800FFF784F9D0
:1048A000251D2846FFF780F9E06A234B1B689842D4
:1048B00001D9214B186000EB800029461F4B03EB08
:1048C0008000FFF74DF9E26A1D4B1B68DB6A9A42D4
:1048D000DCD31C4B01221A60D8E70CB1FFF7D6FCE1
:1048E000194B1C6884B9174B1C68D4B14FF0E023F6
:1048F0004FF08052C3F8042DBFF34F8FBFF36F8F7B
:1049000001240EE0013C07D0FFF718FF0028F9D082
:104910000C4B01221A60F5E70B4B00221A60E2E70C
:10492000002400F041FE204638BD00BFBC06001048
:10493000B406001000070010C40600105402001056
:104940004802001044070010FC06001010B5A8B182
:104950000446104B1B6843B14FF0500383F311889A
:10496000BFF36F8FBFF34F8FFEE7FFF7D9FE002134
:104970002046FFF7D5FDFFF76DFF48B94FF0E02364
:104980004FF08052C3F8042DBFF34F8FBFF36F8FEA
:1049900010BD00BFBC0600101F4B1B681BB11F4B96
:1049A00001221A6070471D4B00221A601C4B1B68C5
:1049B00003EB83018A001B498A585AB90BB1013BAA
:1049C000F6E74FF0500383F31188BFF36F8FBFF307
:1049D0004F8FFEE703EB830082000A445068406873
:1049E000506003EB830C4FEA8C020832114488427A
:1049F0000BD003EB830291000A4A0A445268D16843
:104A0000094A1160064A1360704740686246910087
:104A1000044A0A445060ECE7BC060010440700104A
:104A2000C4060010540200104802001058B110B51E
:104A30000C46094A11681831FFF79DF801212046FC
:104A4000FFF76EFD10BD4FF0500383F31188BFF3E5
:104A50006F8FBFF34F8FFEE74802001038B570B17B
:104A60000D4614460A4A11681831FFF779F80CB15F
:104A70004FF0FF3521462846FFF752FD38BD4FF075
:104A8000500383F31188BFF36F8FBFF34F8FFEE79F
:104A90004802001038B5C368DC6824B304F1180577
:104AA0002846FFF781F8184B1B682BBB251D2846AD
:104AB000FFF77AF8E06A154B1B68984201D9134B4F
:104AC000186000EB80002946114B03EB8000FFF7D4
:104AD00047F8E26A0F4B1B68DB6A9A4211D9012042
:104AE0000D4B186038BD4FF0500383F31188BFF3AE
:104AF0006F8FBFF34F8FFEE729460848FFF730F866
:104B0000E7E70020EEE700BFBC060010C406001077
:104B10005402001048020010440700100007001063
:104B2000034B1B680360034B1B684360704700BF67
:104B3000F806001040070010F8B5C8B10C4605464D
:104B4000F9B100F00FFD1B4B19686B68C81A226899
:104B5000B2F1FF3F26D0184E36682F68B74201D019
:104B60008B4224D9824215D80023236001241AE005
:104B70004FF0500383F31188BFF36F8FBFF34F8F54
:104B8000FEE74FF0500383F31188BFF36F8FBFF33D
:104B90004F8FFEE75B1A134423602846FFF7C0FFE0
:104BA000002400E0002400F0FFFC2046F8BD0124B2
:104BB000F9E700BF40070010F8060010014B012282
:104BC0001A60704744070010054B1B6833B1054B52
:104BD0001B680BB10020704702207047012070470E
:104BE00014070010BC06001000283BD038B504465E
:104BF0001E4B1B68834208D04FF0500383F311888B
:104C0000BFF36F8FBFF34F8FFEE7036D43B94FF0D4
:104C1000500383F31188BFF36F8FBFF34F8FFEE70D
:104C2000013B0365C16AC26C91421DD00BB10020EB
:104C300038BD051D2846FEF7B7FFE06CE062C0F105
:104C40003803A3610A4B1B68984201D9084B1860CE
:104C500000EB80002946074B03EB8000FEF780FF46
:104C60000120E5E7002070470020E1E7480200103E
:104C7000C406001054020010064B1A6813682BB9C2
:104C80000123036023B9D368186870470023F8E74D
:104C9000002070474807001008B54160006191424C
:104CA0000CD8D21A83699A4201D3012008BD011D94
:104CB0000B4B1868FEF75FFF0020F7E79A422CBF06
:104CC00000220122994238BF00220AB10120EDE7FB
:104CD000011D044B1868FEF74EFF0020E6E700BFF9
:104CE0004C0700104807001030B583B000F03AFCC4
:104CF000114B1B681BB100F057FC03B030BD0F4DCA
:104D00002846FEF71FFF0E4C2046FEF71BFF0D4BFB
:104D10001D600D4B1C60002300930C4B0C4A1021AE
:104D20000A20FFF747F8044B18600028E3D0094930
:104D3000FFF76EFADFE700BF6C080010F007001005
:104D400004080010480700104C0700101C08001051
:104D5000500700109459100810B588B0FFF7C4FF31
:104D6000124B1B68CBB100240594069407AA06A930
:104D700005A800F063FA059B0293069B01930223AA
:104D800000932346079A0A490A48FFF70BFC0A4B8F
:104D9000186010B1012008B010BD4FF0500383F32C
:104DA0001188BFF36F8FBFF34F8FFEE76C080010C1
:104DB0009C591008C150100870080010B8B19C46EA
:104DC00003461848006858B300B585B000910192B9
:104DD000029305291CDCFFF7F7FE022810D0002300
:104DE0001A4669460F480068FFF737F815E04FF09C
:104DF000500383F31188BFF36F8FBFF34F8FFEE72C
:104E00000023069A694607480068FFF726F804E081
:104E1000002362466946FFF7E4F805B05DF804FB3D
:104E2000002070476C08001070B582B01B4B1B68E7
:104E30001A6862B3DB681E68DC68251D2846FEF729
:104E4000B3FE236A2046984794F8283013F0040FE5
:104E5000ECD0A36933449E4207D2636024612946A3
:104E60000E4B1868FEF787FEE0E7002100910B4625
:104E700032462046FFF7A2FF0028D7D14FF050035B
:104E800083F31188BFF36F8FBFF34F8FFEE7044AA0
:104E9000106802490860136002B070BD4807001036
:104EA0004C07001038B50546FFF742FC0446074B97
:104EB0001B68834205D800232B60044B1C602046EE
:104EC00038BDFFF7B1FF01232B60F6E7180800108B
:104ED00070B582B006460D4617490968C968CC68A6
:104EE000201DFEF761FE94F828C01CF0040F08D1C5
:104EF0002CF0010C84F828C0236A2046984702B0A1
:104F000070BDA16933462A4631442046FFF7C4FEEE
:104F10000028F1D0002100910B4632462046FFF7D1
:104F20004DFF0028E8D14FF0500383F31188BFF301
:104F30006F8FBFF34F8FFEE74807001070B582B048
:104F400006460C46FFF7ECFB01A8FFF7ABFF019B01
:104F50003BBB0546B04228BF002C19D024B1134AF0
:104F600012681268DAB901242246711B104B1868C6
:104F7000FFF762F9FFF76EFCA8B94FF0E0234FF09E
:104F80008052C3F8042DBFF34F8FBFF36F8F0AE039
:104F9000FFF760FC29463046FFF79AFF03E01C4606
:104FA000E2E7FFF757FC02B070BD00BF4C070010EE
:104FB0006C08001010B588B002E0049B002B0FDADB
:104FC000002204A93D4B1868FFF772F8002873D03F
:104FD000049B002BF1DA07990698059B9847ECE7AC
:104FE000069C636913B1201DFEF7DEFD03A8FFF7E1
:104FF00059FF049B092BE3D8DFE803F005050530D2
:1050000037500505303794F8283043F0010384F811
:105010002830059BA169024619442046FFF73CFE53
:105020000028CDD0236A2046984794F8283013F002
:10503000040FC5D0A269002100910B4605980244D7
:105040002046FFF7BBFE0028BAD14FF0500383F390
:105050001188BFF36F8FBFF34F8FFEE794F82830AE
:1050600023F0010384F82830AAE794F8283043F0AD
:10507000010384F828300599A16131B10346024645
:1050800001442046FFF708FE9AE74FF0500383F3F0
:105090001188BFF36F8FBFF34F8FFEE794F828306E
:1050A00013F0020F04D023F0010384F8283087E7BF
:1050B000204600F0B1F983E708B010BD6C0800107D
:1050C00000B583B001A8FFF7D7FD0199FFF736FFC0
:1050D000FFF770FFF6E708B54FF0E0231B69FFF715
:1050E00073FD012800D108BD00F0ACFAFBE7000019
:1050F000EFF305832BB9064B186828B901221A6013
:1051000070476FF0050070474FF0FF30704700BFE9
:10511000D00A0010EFF3058373B90A4B1B68012B0B
:105120000DD110B50024084BDC77064B02221A6023
:10513000FFF7A8FA204610BD6FF0050070474FF04A
:10514000FF307047D00A001000ED00E0F0B587B0E6
:1051500000240594EFF3058474BB68B322B315688B
:10516000936903B918235C1E372C49D8546814F08E
:10517000010F47D156696EB14FEA960C94682CB175
:10518000D7685B2F02D9176907B1C6B92CB14FF0A8
:10519000FF340EE04FF0800CF0E7D4688CB914694E
:1051A00094B14FF0FF3404E01546002418234FF06B
:1051B000800C012C0AD0ACB1059807B0F0BD0124D9
:1051C000F7E74FF0FF34F4E70024F2E71469926840
:1051D0000292019400930B4662462946FFF7E2F9DA
:1051E0000590E9E705AA019200930B461FFA8CF29D
:1051F0002946FFF712FA0128DED000230593DBE7EA
:105200000020DAE70020D8E708B5EFF3058333B9CB
:1052100008B9002008BDFFF799FB0020FAE76FF0FE
:105220000500F7E7034B0360034B0B60802313601B
:10523000704700BF740A001074080010034B03602D
:10524000034B0B604FF4807313607047D40E001053
:10525000D40A0010124A12F0070F1ED0D11D21F0FF
:105260000701C1F5705313440A460E48026000213D
:1052700041601344083B23F007030B480360596067
:105280001960991A51601360084B1960084B196036
:10529000084B4FF000421A6070474FF47053E4E738
:1052A000340F0010484B0010300F00103C4B001022
:1052B000384B0010344B0010164B1A461B688342C3
:1052C000FBD3516802EB010C844509D0416800EB27
:1052D000010C634509D00360904219D010607047FB
:1052E0004068014451601046F0E710B40A4C24684D
:1052F000A3420BD05B681944416013681B680360CC
:10530000904200D010605DF8044B70470460F7E7EE
:10531000704700BF484B0010300F001070B50546B5
:10532000FFF7FEF9364B1B68A3B1364B1B681D42D5
:105330004ED135B1083515F0070F02D025F007051D
:105340000835002D46D0304B1B68AB4251D32F4A55
:10535000146804E0FFF77EFFE7E722461C46636817
:10536000AB4202D22368002BF7D1254B1B68A34226
:1053700041D0166808362368136063685B1B102BE6
:1053800010D9601910F0070F08D04FF0500383F3C5
:105390001188BFF36F8FBFF34F8FFEE743606560E7
:1053A000FFF78AFF626818490B689B1A0B6018495F
:1053B00009688B4201D216490B60124B1B681343DC
:1053C000636000232360134A13680133136002E013
:1053D000002600E00026FFF73DFA16F0070F0CD07C
:1053E0004FF0500383F31188BFF36F8FBFF34F8FDC
:1053F000FEE70026EFE70026EDE7304670BD00BF70
:10540000300F0010344B0010384B0010484B001088
:105410003C4B0010404B0010002834D038B50446F7
:10542000A0F1080550F8043C174A1268134208D14D
:105430004FF0500383F31188BFF36F8FBFF34F8F8B
:10544000FEE750F8081C41B14FF0500383F3118878
:10545000BFF36F8FBFF34F8FFEE723EA020340F8DD
:10546000043CFFF75DF954F8041C084A13680B4428
:1054700013602846FFF720FF054A136801331360C5
:10548000FFF7E8F938BD7047344B0010384B001077
:10549000444B001082B0002301930D4B1B68B3F105
:1054A000FF3F08D04FF0500383F31188BFF36F8F95
:1054B000BFF34F8FFEE74FF0500383F31188BFF324
:1054C0006F8FBFF34F8F019B002BFCD002B0704752
:1054D0001000001008480068006880F308884FF04A
:1054E000000080F3148862B661B6BFF34F8FBFF33C
:1054F0006F8F00DF00BF000008ED00E0DFF80C0058
:10550000016841F4700101607047000088ED00E01F
:105510004FF0807340F8043C21F0010140F8081C72
:10552000054B40F80C3C40F8202C6FF0020340F88B
:10553000243C4438704700BF955410080000000018
:10554000074B19680868B0E8F04F80F30988BFF38B
:105550006F8F4FF0000080F311887047AFF3008029
:10556000480200104FF0500383F31188BFF36F8F90
:10557000BFF34F8F0B4A136801331360012B00D028
:1055800070474FF0E023D3F8043D13F0FF0FF7D03E
:105590004FF0500383F31188BFF36F8FBFF34F8F2A
:1055A000FEE700BF10000010094B1B6843B94FF025
:1055B000500383F31188BFF36F8FBFF34F8FFEE764
:1055C000013B034A13600BB983F31188704700BF96
:1055D00010000010000000000000000000000000AB
:1055E000EFF30980BFF36F8F154B1A681EF0100F91
:1055F00008BF20ED108A20E9F04F10602DE9090066
:105600004FF0500080F31188BFF34F8FBFF36F8FBF
:10561000FFF7C2F94FF0000080F3118809BC196848
:105620000868B0E8F04F1EF0100F08BFB0EC108A09
:1056300080F30988BFF36F8F704700BFAFF300801E
:105640004802001008B54FF0500383F31188BFF3F0
:105650006F8FBFF34F8FFFF771F828B14FF0E02342
:105660004FF08052C3F8042D002383F3118808BD46
:105670004FF0E022002313619361054B1B6805493D
:10568000A1FB03139B09013B53610723136170477F
:105690000C000010D34D62104FF0E023D3F8002D22
:1056A0003D4B9A421CD04FF0E023D3F8002D3B4BEA
:1056B0009A421ED030B583B0394B1A78D2B20192DB
:1056C000FF221A701B78DBB28DF803309DF803308F
:1056D00003F05003334A1370334B07221A601BE068
:1056E0004FF0500383F31188BFF36F8FBFF34F8FD9
:1056F000FEE74FF0500383F31188BFF36F8FBFF3C2
:105700004F8FFEE7284A1368013B13609DF8033072
:105710005B00DBB28DF803309DF8033013F0800F8F
:10572000F0D1214B1B68032B08D04FF0500383F3BB
:105730001188BFF36F8FBFF34F8FFEE71B021A4A2A
:10574000136003F4E0631360019BDBB2144A13702F
:105750004FF0E024D4F8203D43F47003C4F8203D1A
:10576000D4F8203D43F07043C4F8203DFFF780FF9C
:1057700000250E4B1D60FFF7C1FED4F8343F43F007
:105780004043C4F8343FFFF7A5FEFFF705F9FFF7E4
:1057900081FE284603B030BD71C20F4170C20F4177
:1057A00000E400E0504B0010544B001010000010BB
:1057B000EFF305830F2B0FD9114A9B5CDBB2114A23
:1057C00012789A4208D94FF0500383F31188BFF33F
:1057D0006F8FBFF34F8FFEE74FF0E023D3F80C3D00
:1057E00003F4E063084A1268934208D94FF050036B
:1057F00083F31188BFF36F8FBFF34F8FFEE77047BE
:10580000F0E300E0504B0010544B0010DFF834D0B0
:10581000FEF73CF90C480D490D4A002302E0D4582C
:10582000C4500433C4188C42F9D30A4A0A4C0023EA
:1058300001E013600432A242FBD300F011F8FAF742
:1058400065FF704700800410000000101400001075
:10585000B459100814000010584B0010FEE7000067
:1058600070B50D4D0D4C641BA4100026A64209D145
:105870000B4D0C4C00F02EF8641BA4100026A64221
:1058800005D170BD55F8043B98470136EEE755F851
:10589000043B98470136F2E7AC591008AC591008A0
:1058A000AC591008B05910080A44914200F1FF3376
:1058B00000D1704710B511F8014B03F8014F914228
:1058C000F9D110BD02440346934200D1704703F85A
:1058D000011BF9E7F8B500BFF8BC08BC9E4670474D
:0C58E000F8B500BFF8BC08BC9E4670473D
:1058EC005265640A00000000574F524520313A209F
:1058FC00496E697469616C697A6174696F6E20565E
:10590C006F6D706C6574652E2E2E0A00434D3453EA
:10591C0074617475734C45440000000018591008EC
:10592C00000000000000000000000000000000006B
:10593C000002000010000000000000000000000049
:10594C0000061016000610160100020004000600E6
:10595C0008000A000C00100020004000800000012C
:10596C000804020408010101010101030701000000
:10597C0000000000010203040102030406070809E9
:10598C0049444C4500000000546D72510000000069
:08599C00546D72205376630084
:0859A4006CA9FF7F0100000067
:0459AC00C502100818
:0459B000A102100838
:1059B40001000000100000000090D0030090D0030C
:0459C400AAAAAAAA37
:040000050810580D7A
:00000001FF
