:020000040810E2
:1000000000800410FD2910088F03100891031008C8
:1000100093031008950310089703100800000000D0
:100020000000000000000000000000003127100860
:100030009903100800000000D1271008C7221008FB
:100040004D2A10084D2A10084D2A10084D2A100874
:100050004D2A10084D2A10084D2A10084D2A100864
:100060004D2A10084D2A10084D2A10084D2A100854
:100070004D2A10084D2A10084D2A10084D2A100844
:100080004D2A10084D2A10084D2A10084D2A100834
:100090004D2A10084D2A10084D2A10084D2A100824
:1000A0004D2A10084D2A10084D2A10084D2A100814
:1000B0009D0310084D2A10084D2A10084D2A1008DB
:1000C0004D2A10084D2A10084D2A10084D2A1008F4
:1000D0004D2A10084D2A10084D2A10084D2A1008E4
:1000E0004D2A10084D2A1008000000004D2A100863
:1000F0004D2A10084D2A10084D2A10084D2A1008C4
:100100004D2A10084D2A10084D2A10084D2A1008B3
:100110004D2A10084D2A10084D2A10084D2A1008A3
:100120004D2A10084D2A10084D2A10084D2A100893
:100130004D2A10084D2A10084D2A10084D2A100883
:100140004D2A10084D2A1008000000000000000091
:100150004D2A10084D2A10084D2A10084D2A100863
:100160004D2A10084D2A10084D2A10084D2A100853
:100170004D2A10084D2A10084D2A10084D2A100843
:100180004D2A10084D2A10084D2A10084D2A100833
:100190004D2A10084D2A10084D2A10084D2A100823
:1001A0004D2A10084D2A10084D2A10084D2A100813
:1001B0004D2A10084D2A10084D2A10084D2A100803
:1001C0004D2A10084D2A10084D2A10084D2A1008F3
:1001D0004D2A10084D2A10084D2A10084D2A1008E3
:1001E0004D2A10084D2A10084D2A10084D2A1008D3
:1001F0004D2A10084D2A10084D2A10084D2A1008C3
:100200004D2A10084D2A10084D2A10084D2A1008B2
:100210004D2A10084D2A10084D2A10084D2A1008A2
:100220004D2A10084D2A10084D2A10080000000021
:100230004D2A10084D2A10084D2A10084D2A100882
:100240004D2A10084D2A10084D2A10084D2A100872
:100250004D2A10084D2A10084D2A10084D2A100862
:100260004D2A10084D2A10084D2A10084D2A100852
:100270004D2A10084D2A10084D2A10084D2A100842
:100280004D2A10084D2A10084D2A100800000000C1
:080290004D2A10084D2A100848
:1002A00010B5054C237833B9044B13B10448AFF3B0
:1002B00000800123237010BD140000100000000016
:1002C000C42A100808B5034B1BB103490348AFF318
:1002D000008008BD0000000018000010C42A1008AB
:1002E00008B5012002F088F8FBE7000000B583B0F4
:1002F0001C4BD3F8E02042F00072C3F8E020D3F8A2
:10030000E03003F000730193019B012000F020FA1C
:1003100000F07EFA01220221002000F021FA124BA7
:100320001B68C3F30313072B14D0104AD2F81431FF
:1003300043F00103C2F8143100F074FA01F0D0FF69
:100340000B4A00210B4801F0F9FF0B4B186001F03C
:10035000D9FFFEE7054AD2F8043143F00103C2F8A1
:100360000431E9E70044025800ED00E0006402585F
:10037000E82A1008E10210083000001008B50368F0
:10038000B3F1804F00D008BD00F09AFAFBE7FEE71A
:10039000FEE7FEE7FEE7FEE77047000008B502480B
:1003A00000F0E8FA08BD00BF3800001000B583B0C7
:1003B0000A4BD3F8F42042F00202C3F8F420D3F839
:1003C000F43003F002030193019B00220F216FF030
:1003D000010000F017F803B05DF804FB0044025878
:1003E0000649CB6823F4E0631B041B0C000200F4F5
:1003F000E0600343024A1A43CA60704700ED00E020
:100400000000FA0500B5174BDB68C3F30223C3F104
:10041000070CBCF1040F28BF4FF0040C03F1040ECD
:10042000BEF1060F14D9033B4FF0FF3E0EFA0CFC51
:1004300021EA0C0199400EFA03F322EA030319435F
:10044000002807DB0901C9B2074B19545DF804FB0A
:100450000023E9E700F00F000901C9B2034B19546A
:10046000F4E700BF00ED00E000E400E014ED00E080
:10047000002807DB00F01F02400901239340024AD5
:1004800042F82030704700BF00E100E0044B1B68D9
:10049000C3F30313072B01D00120704703207047DB
:1004A00000ED00E0744B1B6903F03803102B00F0E3
:1004B000DE80182B10D00BB1704870476E4B1B6854
:1004C00013F0200F00F0D5806B4B1868C0F3C1000B
:1004D0006B4B23FA00F0704710B4674A916A01F041
:1004E0000301946AC4F30510D36A03F0010C536B43
:1004F000C3F3CC030CFB03F307EE903AF8EE677AF4
:1005000014F47C7F00F09380012965D0022900F06B
:100510009180E1B107EE100AF8EE476A9FED596A43
:1005200086EE267A544B1B6BC3F3080306EE903A13
:10053000F8EE666A9FED546A67EE867A76EEA77AE1
:10054000F7EE006A77EEA67A27EE277A60E0136866
:1005500013F0200F23D011461268C2F3C102484B9A
:10056000D34007EE103AF8EE476A07EE100AB8EEED
:10057000476A86EE867A0B6BC3F3080306EE903A61
:10058000F8EE666A9FED406A67EE867A76EEA77AA5
:10059000F7EE006A77EEA67A27EE277A38E007EEC4
:1005A000100AF8EE476A9FED396A86EE267A324BDA
:1005B0001B6BC3F3080306EE903AF8EE666A9FEDF4
:1005C000326A67EE867A76EEA77AF7EE006A77EE01
:1005D000A67A27EE277A1BE007EE100AF8EE476AA4
:1005E0009FED286A86EE267A234B1B6BC3F3080324
:1005F00006EE903AF8EE666A9FED236A67EE867A19
:1006000076EEA77AF7EE006A77EEA67A27EE277ADB
:10061000194B1B6BC3F34623013307EE903AF8EEF8
:10062000677AC7EE276AFCEEE67A17EE900A5DF865
:10063000044B704707EE100AF8EE476A9FED146A04
:1006400086EE267A0C4B1B6BC3F3080306EE903A3A
:10065000F8EE666A9FED0C6A67EE867A76EEA77A08
:10066000F7EE006A77EEA67A27EE277AD0E70948F8
:1006700070470348704700BF0044025800093D001E
:100680000090D0030024744A000000390024744C08
:100690000024F44A00127A0008B5FFF703FF0A4964
:1006A0008B69C3F30323094AD35C03F01F03D840CB
:1006B0008B6903F00F03D35C03F01F03D840044B96
:1006C0001860044B186008BD004402580C2B100839
:1006D0000C0000100800001008B5FFF7DDFF054B07
:1006E000DB69C3F30213044AD35C03F01F03D84051
:1006F00008BD00BF004402580C2B10083F230360C4
:10070000114B1A6902F0070242609A6902F47062A2
:1007100082609A6902F00F02C2609A6902F0700268
:100720000261DA6902F070024261DA6902F4E062A1
:1007300082611B6A03F07003C361044B1B6803F002
:100740000F030B60704700BF0044025800200052A6
:10075000024A136903431361704700BF00650258E2
:1007600038B50D46284C236823F00103034323606A
:100770005AB1012A25D0FFF789FE03283ED0224A2C
:10078000536923F00403536138BDFFF77FFE03284C
:10079000FAD1236923F0010323611C4A136943F052
:1007A00004031361BFF34F8FBFF36F8F012D06D08A
:1007B00020BF164A136923F004031361E4E730BF36
:1007C000F7E7FFF763FE0128DED10F4A536923F0F4
:1007D000020353610D4A136943F004031361BFF32D
:1007E0004F8FBFF36F8F012D06D020BF074A1369CB
:1007F00023F004031361C7E730BFF7E7024A136928
:1008000023F004031361BFE70048025800ED00E045
:1008100008B5FFF73BFE032802D040BF20BF08BD4C
:1008200020BFFCE710B582B01F4CD4F8D83043F499
:100830008043C4F8D830D4F8D83003F4804301930F
:10084000019B1A4AD2F80014194B0B4043F40143A0
:10085000C2F80034D2F8003443F00103C2F8003487
:100860000320FFF7BDFDFFF71DFEA369C3F30323BC
:10087000104AD35C03F01F03D840A36903F00F03B1
:10088000D35C03F01F03D8400B4B18600B4B186070
:100890000F2000F001FA18B10124204602B010BD6B
:1008A0000446FFF783FDF8E7004402580040024089
:1008B000FF00F0FF0C2B10080C00001008000010C7
:1008C000034B1B78034A11680B441360704700BF49
:1008D00000000010340000107047000090F83D3018
:1008E000DBB2012B3AD1022380F83D300268D36895
:1008F00043F00103D36003681A4AB3F1804F18BF75
:1009000093421DD0A2F57C42934219D002F5806239
:10091000934215D002F58062934211D002F57842DD
:1009200093420DD0A2F56C42934209D002F5943265
:10093000934205D01A6842F001021A600020704705
:100940009968094A0A40062A18BFB2F5803F07D0C5
:100950001A6842F001021A600020704701207047B7
:1009600000207047000001400700010070477047F9
:100970007047704710B5044603681A6912F0020FF9
:1009800011D0DA6812F0020F0DD06FF002021A6176
:100990000123037703689B6913F0030F79D0FFF7F6
:1009A000E6FF0023237723681A6912F0040F12D0A0
:1009B000DA6812F0040F0ED06FF004021A610223FD
:1009C000237723689B6913F4407F68D02046FFF7A4
:1009D000CEFF0023237723681A6912F0080F12D084
:1009E000DA6812F0080F0ED06FF008021A610423C3
:1009F00023772368DB6913F0030F57D02046FFF7F6
:100A0000B6FF0023237723681A6912F0100F12D063
:100A1000DA6812F0100F0ED06FF010021A6108237E
:100A200023772368DB6913F4407F46D02046FFF725
:100A30009EFF0023237723681A6912F0010F03D069
:100A4000DA6812F0010F3FD123681A6912F0800FA3
:100A500003D0DA6812F0800F3DD123681A6912F4CE
:100A6000807F03D0DA6812F0800F3BD123681A69C7
:100A700012F0400F03D0DA6812F0400F39D123682A
:100A80001A6912F0200F03D0DA6812F0200F37D164
:100A900010BDFFF76BFF2046FFF76AFF81E7204696
:100AA000FFF764FF2046FFF763FF92E72046FFF75A
:100AB0005DFF2046FFF75CFFA3E72046FFF756FFE8
:100AC0002046FFF755FFB4E76FF001021A61204698
:100AD000FFF754FCB8E76FF080021A61204600F07F
:100AE000CAF8BAE76FF480721A61204600F0C4F8C1
:100AF000BCE76FF040021A612046FFF73AFFBEE7FD
:100B00006FF020021A61204600F0B4F8C0E7000040
:100B100030B50368394A904214BF4FF0000E4FF0D1
:100B2000010EB0F1804F14BF72464EF00102AAB917
:100B3000334CA04214BF00240124324DA8420DD0F2
:100B400064B904F1804404F58234A04214BF002447
:100B5000012405F50065A84200D01CB123F0700304
:100B60004C68234312BB264A904214BF0022012244
:100B7000244CA0421AD0CAB902F1804202F5823256
:100B8000904214BF0022012204F50064A0420DD05F
:100B900062B91D4A904214BF0022012204F59A3422
:100BA000A04203D012B9194A904204D123F4407CE8
:100BB000CB6843EA0C0323F080034A6913430360C4
:100BC0008A68C2620A688262114A904214BF734600
:100BD0004EF0010363B90C4B984214BF002301236C
:100BE00002F57052904203D013B9084B984201D1DC
:100BF0000B6903630123436130BD00BF0000014066
:100C0000000800400004004000440140004801404A
:100C10000004014060B310B5044690F83D3013B3B2
:100C2000022384F83D30214651F8040BFFF770FF92
:100C3000012384F8483084F83E3084F83F3084F84B
:100C4000403084F8413084F8423084F8433084F8EE
:100C5000443084F8453084F8463084F8473084F8CE
:100C60003D30002010BD80F83C30FFF735FED7E75F
:100C7000012070477047704770470000054BD3F85C
:100C8000882042F47002C3F888201A6942F01002EA
:100C90001A61704700ED00E00F2801D9012070476C
:100CA00010B58AB00446002201461C20FFF7AAFBBB
:100CB0001C20FFF7DDFB1B4B1C601B4BD3F8E8200F
:100CC00042F00102C3F8E820D3F8E83003F0010352
:100CD0000093009B01A902A8FFF710FD079BC3B971
:100CE000FFF7FAFC03461148A0FB03239B0C013BD2
:100CF0000F484FF08042026040F2E732C26043602A
:100D0000002303618360FFF785FF30B101200AB043
:100D100010BDFFF7E1FC4300E5E70548FFF7DEFD06
:100D2000F5E700BF040000100044025883DE1B43B7
:100D30003800001000F1080343604FF0FF3282607A
:100D4000C3600361002303607047002303617047A1
:100D500043684B609A688A605160996008610368D3
:100D600001330360704730B40D68B5F1FF3F11D017
:100D700000F108031C465B681A68AA42FAD9636846
:100D80004B6099608C6061600861036801330360A7
:100D900030BC70470469F2E70369416882688A6081
:100DA000416851605A68824206D0002202611A6886
:100DB000013A1A601868704782685A60F5E710B502
:100DC000044601F0C7FCA26BE36B9A4204D00024F6
:100DD00001F0E2FC204610BD0124F9E710B50446FD
:100DE00001F0B8FCA36B23B9012401F0D5FC204627
:100DF00010BD0024F9E770B504461546866B026CF9
:100E00005AB903681BB100200136A66370BD806823
:100E100000F0E2FF0023A360F6E76DB9406801F03F
:100E20003BFE226C636813446360A268934219D34B
:100E3000236863602846E7E7C06801F02DFE226C56
:100E40005142E3689B1AE3602268934202D2A3688E
:100E50000B44E360022D01D00020D5E726B1013E0E
:100E60000020D1E72846CFE70020CDE70346026CFB
:100E70006AB110B50846D9681144D9609C68A1428E
:100E800001D31968D960D96801F006FE10BD70471A
:100E900038B5054601F05EFC95F8454064B201E0C6
:100EA000013C64B2002C0ADD6B6A43B105F12400F9
:100EB00000F0E8FE0028F3D000F078FFF0E7FF2311
:100EC00085F8453001F068FC01F044FC95F8444099
:100ED00064B201E0013C64B2002C0ADD2B6943B12D
:100EE00005F1100000F0CEFE0028F3D000F05EFF08
:100EF000F0E7FF2385F8443001F04EFC38BD38B5EB
:100F0000E0B10D46044601F025FC2368E26B216C3C
:100F100001FB0230A0600020A0636360013A02FB85
:100F20000133E360FF2384F8443084F84530FDB991
:100F3000236963B901F030FC012038BD4FF0500344
:100F400083F31188BFF36F8FBFF34F8FFEE704F178
:100F5000100000F097FE0028ECD04FF0E0234FF097
:100F60008052C3F8042DBFF34F8FBFF36F8FE1E7BB
:100F700004F11000FFF7DEFE04F12400FFF7DAFEB3
:100F8000D8E738B51D46049C0B4649B92460E06398
:100F9000236401212046FFF7B2FF84F84C5038BD8E
:100FA0002260F4E740B94FF0500383F31188BFF398
:100FB0006F8FBFF34F8FFEE710B584B01C4683B12F
:100FC0000B1E18BF0123002A08BF43F001038BB991
:100FD0004FF0500383F31188BFF36F8FBFF34F8F30
:100FE000FEE74FF0500383F31188BFF36F8FBFF319
:100FF0004F8FFEE7B1FA81F35B09002A18BF43F077
:10100000010343B94FF0500383F31188BFF36F8F8F
:10101000BFF34F8FFEE750230393039B502B08D061
:101020004FF0500383F31188BFF36F8FBFF34F8FDF
:10103000FEE7039B012384F8463000949DF81830A6
:10104000FFF79FFF204604B010BDF0B585B00192B8
:1010500088B10F461D460446B1B1022D20D1E36B85
:10106000012B1DD04FF0500383F31188BFF36F8F16
:10107000BFF34F8FFEE74FF0500383F31188BFF3A8
:101080006F8FBFF34F8FFEE7036C002BE5D04FF05F
:10109000500383F31188BFF36F8FBFF34F8FFEE7C9
:1010A00000F08AFE064658B9019B002B48D04FF04D
:1010B000500383F31188BFF36F8FBFF34F8FFEE7A9
:1010C00000263DE02A4639462046FFF794FE636A33
:1010D0007BB948B14FF0E0234FF08052C3F8042DA4
:1010E000BFF34F8FBFF36F8F01F056FB012005B0A8
:1010F000F0BD04F1240000F0C5FD0028F4D04FF04D
:10110000E0234FF08052C3F8042DBFF34F8FBFF39D
:101110006F8FE9E701F040FB0020E8E702A800F04C
:10112000F7FD012619E0002384F8443021E0002374
:1011300084F8453023E02046FFF7AAFE00F082FC49
:1011400001F008FBA26BE36B9A42BBD3022DB9D02E
:10115000019B002BDED0002EE0D001F01DFB00F043
:10116000D7FB01F0F7FA94F8442052B2B2F1FF3FF6
:10117000D9D094F8452052B2B2F1FF3FD7D001F058
:101180000BFB01A902A800F0CFFDD8B92046FFF75C
:1011900016FE0028CFD0019904F1100000F03EFDAA
:1011A0002046FFF775FE00F04DFC0028C8D14FF037
:1011B000E0234FF08052C3F8042DBFF34F8FBFF3ED
:1011C0006F8FBDE72046FFF763FE00F03BFC002079
:1011D0008DE72DE9F84390B10F4616461C460546AB
:1011E000B1B1022C20D1EB6B012B1DD04FF050037D
:1011F00083F31188BFF36F8FBFF34F8FFEE74FF07C
:10120000500383F31188BFF36F8FBFF34F8FFEE757
:10121000036C002BE5D04FF0500383F31188BFF32C
:101220006F8FBFF34F8FFEE701F0BAFBEFF3118929
:101230004FF0500383F31188BFF36F8FBFF34F8FCD
:10124000AA6BEB6B9A4206D3022C04D0002089F3E0
:101250001188BDE8F88395F845804FFA88F8AB6BA4
:10126000224639462846FFF7C6FDB8F1FF3F06D0B3
:1012700008F101035BB285F845300120E7E76B6AAE
:101280000BB90120E3E705F1240000F0FBFC18B1E5
:1012900026B101203060DAE70120D8E70120D6E747
:1012A000F0B585B0019290B10F460446C1B100F08F
:1012B00083FD064600BB019B002B5ED04FF0500320
:1012C00083F31188BFF36F8FBFF34F8FFEE74FF0AB
:1012D000500383F31188BFF36F8FBFF34F8FFEE787
:1012E000036C002BE3D04FF0500383F31188BFF35E
:1012F0006F8FBFF34F8FFEE700263EE03946204652
:10130000FFF7B4FD013DA563236923B901F044FA59
:10131000012005B0F0BD04F1100000F0B3FC00287E
:10132000F4D04FF0E0234FF08052C3F8042DBFF308
:101330004F8FBFF36F8FE9E701F02EFA0020E8E747
:1013400002A800F0E5FC012621E0002384F84430E7
:1013500029E0002384F845302BE02046FFF798FD74
:1013600000F070FB09E02046FFF792FD00F06AFBF9
:101370002046FFF733FD00283FD101F0EBF9A56BC4
:10138000002DBBD1019B002BD6D0002ED8D001F070
:1013900003FA00F0BDFA01F0DDF994F844305BB2D5
:1013A000B3F1FF3FD1D094F845305BB2B3F1FF3FCA
:1013B000CFD001F0F1F901A902A800F0B5FC002896
:1013C000D1D12046FFF70AFD0028C6D0019904F1CB
:1013D000240000F023FC2046FFF75AFD00F032FB0A
:1013E0000028CAD14FF0E0234FF08052C3F8042DFB
:1013F000BFF34F8FBFF36F8FBFE7002089E7000077
:101400000023072B0CD8074A52F833200AB10133C6
:10141000F7E7044A42F8331002EBC3035860704701
:10142000704700BF8400001070B504460D46164694
:1014300001F090F994F844305BB2B3F1FF3F0DD066
:1014400094F845305BB2B3F1FF3F0BD001F0A4F943
:10145000A36B5BB12046FFF71BFD70BD002384F832
:101460004430EDE7002384F84530EFE73246294663
:1014700004F1240000F0EAFBECE70000084B1B68D5
:101480001B6823B9074B4FF0FF321A607047044BBB
:101490001B68DB68DB685A68024B1A60704700BF44
:1014A000C8000010700500102DE9F04780460D4679
:1014B00017469946089EDDF824A00A9C9200A521B3
:1014C000206B01F0F7FA236B6FF040423A4403EBD4
:1014D000820727F00707B5B34FF0000CBCF10F0FE0
:1014E0000BD815F80C2004EB0C0383F8342015F806
:1014F0000C3013B10CF1010CF0E7002384F84330F9
:10150000372E00D93726E662E66400252565201DC2
:10151000FFF71BFC04F11800FFF717FC2461C6F16C
:101520003806A6616462656584F858504A464146AB
:10153000384601F0E5F82060BAF1000F01D0CAF892
:101540000040BDE8F087002384F83430D8E700007D
:1015500038B5002407E004EB840293000E481844D9
:10156000FFF7E8FB0134372CF5D90C4D2846FFF77F
:10157000E1FB0B4C2046FFF7DDFB0A48FFF7DAFBE7
:101580000948FFF7D7FB0948FFF7D4FB084B1D605C
:10159000084B1C6038BD00BFD0000010440500108F
:1015A000580500107C050010A805001094050010D7
:1015B000C8000010CC00001010B5044601F0CAF8B5
:1015C000224A136801331360214B1B685BB1214B26
:1015D0001B686BB91E4B1B68DA6AE36A9A4207D82C
:1015E0001B4B1C6004E01A4B1C601368012B29D0B4
:1015F000194A1368013313606364E06A174B1B6870
:10160000984201D9154B186000EB8000211D144B46
:1016100003EB8000FFF79CFB01F0BEF80D4B1B684D
:101620007BB10B4B1B68DA6AE36A9A4209D24FF02E
:10163000E0234FF08052C3F8042DBFF34F8FBFF368
:101640006F8F10BDFFF784FFD2E700BF3005001099
:10165000C4000010900500103C050010400500106B
:10166000D000001010B5044690F8593063B1012B3A
:1016700011D0022B0ED04FF0500383F31188BFF32B
:101680006F8FBFF34F8FFEE7006B00F0BDFF20466A
:1016900000F0BAFF10BD00F0B7FFFBE70F4B1B686F
:1016A000D3B110B501F056F80D4BDB68DC68201D96
:1016B000FFF772FB0B4A1368013B1360074A13687C
:1016C000013B136001F068F82046FFF7CBFF034BA6
:1016D0001B68002BE6D110BD704700BF3405001019
:1016E000A80500103005001008B5FFF7D7FF074B1D
:1016F0001B68012BF9D94FF0E0234FF08052C3F85B
:10170000042DBFF34F8FBFF36F8FEEE7D0000010B3
:1017100070B504460D46194B1E68194B1868043005
:10172000FFF73AFBB4F1FF3F14BF00230123002D64
:1017300008BF00236BB93444114B1B685C60A642A0
:101740000ED9104B18680E4B19680431FFF70BFBCC
:1017500070BD0B4B196804310B48FFF7F9FAF7E736
:101760000A4B1868064B19680431FFF7FCFA084B5E
:101770001B68A342ECD9064B1C60E9E7BC050010CE
:10178000C4000010CC00001094050010C800001028
:101790007005001030B587B00B9C7CB10C9DB5B1C5
:1017A0005C250495049D5C2D1AD04FF0500383F303
:1017B0001188BFF36F8FBFF34F8FFEE74FF05003D9
:1017C00083F31188BFF36F8FBFF34F8FFEE74FF0A6
:1017D000500383F31188BFF36F8FBFF34F8FFEE782
:1017E000049D0C9D2C63022485F859400024039429
:1017F000029505AC01940A9C0094FFF755FE0C98E5
:10180000FFF7DAFE059807B030BD2DE9F04385B04B
:101810000746884614461E46900000F077FE00B347
:1018200081465C2000F072FE0546B0B1C0F83090F1
:10183000E5B1002385F85930039302950D9B019380
:101840000C9B00933346224641463846FFF72CFE58
:101850002846FFF7B1FE012005E0484600F0D4FE1F
:10186000E6E74FF0FF3005B0BDE8F0834FF0FF3002
:10187000F9E7000010B588B000240594069407AA83
:1018800006A905A800F0C6FD059B0293069B0193DF
:1018900000942346079A18491848FFF77BFF184B16
:1018A000186040B100F050FB012806D0B0F1FF3FB6
:1018B00018D008B010BD0020F6E74FF0500383F3B6
:1018C0001188BFF36F8FBFF34F8F0E4B4FF0FF3276
:1018D0001A600D4B01221A600C4B00221A6000F0B6
:1018E000D3FFE6E74FF0500383F31188BFF36F8F08
:1018F000BFF34F8FFEE700BF1C2B1008E91610083E
:101900006C0500107005001090050010BC0500105B
:10191000024A136801331360704700BF3805001096
:10192000014B1868704700BFBC050010F8B53A4B72
:101930001B68002B69D1394B1D6801351D60C5B985
:10194000374B1B681B6843B14FF0500383F311887A
:10195000BFF36F8FBFF34F8FFEE7314A1168314BF2
:10196000186810601960304A136801331360FFF77C
:1019700085FD2E4B1B68AB423DD900272C4B1B68C5
:10198000DB6A03EB83039A002A4B9B58012B00D997
:101990000127294B1B68002B3CD001273AE0012787
:1019A0001F4B1B681B6843B31D4B1B68DB68DC685F
:1019B00063689D4226D3261D3046FFF7EDF9A36AE2
:1019C0001BB104F11800FFF7E7F9E36A1B4A12683C
:1019D000934201D9194A136003EB83039A003146FD
:1019E00014481044FFF7B4F9E26A114B1B68DB6A34
:1019F0009A42D4D2D4E70027D2E70C4B4FF0FF3203
:101A00001A60BBE7094A1360B8E70D4A136801334F
:101A1000136000273846F8BD38050010BC050010DB
:101A2000C8000010CC0000107405001070050010F4
:101A3000C4000010D0000010C005001040050010C8
:101A40007805001038B5354B1B6843B94FF050038B
:101A500083F31188BFF36F8FBFF34F8FFEE700F062
:101A600079FE2E4B1A68013A1A601B68002B4FD181
:101A70002B4B1B680BB900244BE00024294B1B683F
:101A80001BB3284BDB68DC6804F11800FFF784F90E
:101A9000251D2846FFF780F9E06A234B1B68984212
:101AA00001D9214B186000EB800029461F4B03EB46
:101AB0008000FFF74DF9E26A1D4B1B68DB6A9A4212
:101AC000DCD31C4B01221A60D8E70CB1FFF7D6FC1F
:101AD000194B1C6884B9174B1C68D4B14FF0E02334
:101AE0004FF08052C3F8042DBFF34F8FBFF36F8FB9
:101AF00001240EE0013C07D0FFF718FF0028F9D0C1
:101B00000C4B01221A60F5E70B4B00221A60E2E74A
:101B1000002400F041FE204638BD00BF380500100B
:101B2000300500107C05001040050010D0000010AA
:101B3000C4000010C00500107805001010B5A8B151
:101B40000446104B1B6843B14FF0500383F31188D8
:101B5000BFF36F8FBFF34F8FFEE7FFF7D9FE002172
:101B60002046FFF7D5FDFFF76DFF48B94FF0E023A2
:101B70004FF08052C3F8042DBFF34F8FBFF36F8F28
:101B800010BD00BF380500101F4B1B681BB11F4B59
:101B900001221A6070471D4B00221A601C4B1B6803
:101BA00003EB83018A001B498A585AB90BB1013BE8
:101BB000F6E74FF0500383F31188BFF36F8FBFF345
:101BC0004F8FFEE703EB830082000A4450684068B1
:101BD000506003EB830C4FEA8C02083211448842B8
:101BE0000BD003EB830291000A4A0A445268D16881
:101BF000094A1160064A13607047406862469100C6
:101C0000044A0A445060ECE738050010C005001093
:101C100040050010D0000010C400001058B110B5ED
:101C20000C46094A11681831FFF79DF8012120463A
:101C3000FFF76EFD10BD4FF0500383F31188BFF323
:101C40006F8FBFF34F8FFEE7C400001038B570B13F
:101C50000D4614460A4A11681831FFF779F80CB19D
:101C60004FF0FF3521462846FFF752FD38BD4FF0B3
:101C7000500383F31188BFF36F8FBFF34F8FFEE7DD
:101C8000C400001038B5C368DC6824B304F118053B
:101C90002846FFF781F8184B1B682BBB251D2846EB
:101CA000FFF77AF8E06A154B1B68984201D9134B8D
:101CB000186000EB80002946114B03EB8000FFF712
:101CC00047F8E26A0F4B1B68DB6A9A4211D9012080
:101CD0000D4B186038BD4FF0500383F31188BFF3EC
:101CE0006F8FBFF34F8FFEE729460848FFF730F8A4
:101CF000E7E70020EEE700BF3805001040050010C0
:101D0000D0000010C4000010C00500107C050010B9
:101D1000034B1B680360034B1B684360704700BFA5
:101D200074050010BC050010F8B5C8B10C46054696
:101D3000F9B100F00FFD1B4B19686B68C81A2268D7
:101D4000B2F1FF3F26D0184E36682F68B74201D057
:101D50008B4224D9824215D80023236001241AE043
:101D60004FF0500383F31188BFF36F8FBFF34F8F92
:101D7000FEE74FF0500383F31188BFF36F8FBFF37B
:101D80004F8FFEE75B1A134423602846FFF7C0FF1E
:101D9000002400E0002400F0FFFC2046F8BD0124F0
:101DA000F9E700BFBC05001074050010014B0122CB
:101DB0001A607047C0050010054B1B6833B1054B16
:101DC0001B680BB10020704702207047012070474C
:101DD000900500103805001000283BD038B50446A7
:101DE0001E4B1B68834208D04FF0500383F31188C9
:101DF000BFF36F8FBFF34F8FFEE7036D43B94FF013
:101E0000500383F31188BFF36F8FBFF34F8FFEE74B
:101E1000013B0365C16AC26C91421DD00BB1002029
:101E200038BD051D2846FEF7B7FFE06CE062C0F143
:101E30003803A3610A4B1B68984201D9084B18600C
:101E400000EB80002946074B03EB8000FEF780FF84
:101E50000120E5E7002070470020E1E7C400001002
:101E600040050010D0000010064B1A6813682BB90B
:101E70000123036023B9D368186870470023F8E78B
:101E800000207047C405001008B541600061914210
:101E90000CD8D21A83699A4201D3012008BD011DD2
:101EA0000B4B1868FEF75FFF0020F7E79A422CBF44
:101EB00000220122994238BF00220AB10120EDE739
:101EC000011D044B1868FEF74EFF0020E6E700BF37
:101ED000C8050010C405001030B583B000F03AFC0E
:101EE000114B1B681BB100F057FC03B030BD0F4D08
:101EF0002846FEF71FFF0E4C2046FEF71BFF0D4B3A
:101F00001D600D4B1C60002300930C4B0C4A1021EC
:101F10000A20FFF747F8044B18600028E3D009496E
:101F2000FFF76EFADFE700BFE80600106C0600104E
:101F300080060010C4050010C805001098060010A7
:101F4000CC050010242B100810B588B0FFF7C4FF93
:101F5000124B1B68CBB100240594069407AA06A96E
:101F600005A800F063FA059B0293069B01930223E8
:101F700000932346079A0A490A48FFF70BFC0A4BCD
:101F8000186010B1012008B010BD4FF0500383F36A
:101F90001188BFF36F8FBFF34F8FFEE7E806001085
:101FA0002C2B1008B1221008EC060010B8B19C468A
:101FB00003461848006858B300B585B000910192F7
:101FC000029305291CDCFFF7F7FE022810D000233E
:101FD0001A4669460F480068FFF737F815E04FF0DA
:101FE000500383F31188BFF36F8FBFF34F8FFEE76A
:101FF0000023069A694607480068FFF726F804E0C0
:10200000002362466946FFF7E4F805B05DF804FB7B
:1020100000207047E806001070B582B01B4B1B68AB
:102020001A6862B3DB681E68DC68251D2846FEF767
:10203000B3FE236A2046984794F8283013F0040F23
:10204000ECD0A36933449E4207D2636024612946E1
:102050000E4B1868FEF787FEE0E7002100910B4663
:1020600032462046FFF7A2FF0028D7D14FF0500399
:1020700083F31188BFF36F8FBFF34F8FFEE7044ADE
:10208000106802490860136002B070BDC4050010FA
:10209000C805001038B50546FFF742FC0446074B5B
:1020A0001B68834205D800232B60044B1C6020462C
:1020B00038BDFFF7B1FF01232B60F6E7940600104F
:1020C00070B582B006460D4617490968C968CC68E4
:1020D000201DFEF761FE94F828C01CF0040F08D103
:1020E0002CF0010C84F828C0236A2046984702B0DF
:1020F00070BDA16933462A4631442046FFF7C4FE2D
:102100000028F1D0002100910B4632462046FFF70F
:102110004DFF0028E8D14FF0500383F31188BFF33F
:102120006F8FBFF34F8FFEE7C405001070B582B00C
:1021300006460C46FFF7ECFB01A8FFF7ABFF019B3F
:102140003BBB0546B04228BF002C19D024B1134A2E
:1021500012681268DAB901242246711B104B186804
:10216000FFF762F9FFF76EFCA8B94FF0E0234FF0DC
:102170008052C3F8042DBFF34F8FBFF36F8F0AE077
:10218000FFF760FC29463046FFF79AFF03E01C4644
:10219000E2E7FFF757FC02B070BD00BFC8050010B2
:1021A000E806001010B588B002E0049B002B0FDA9F
:1021B000002204A93D4B1868FFF772F8002873D07D
:1021C000049B002BF1DA07990698059B9847ECE7EA
:1021D000069C636913B1201DFEF7DEFD03A8FFF71F
:1021E00059FF049B092BE3D8DFE803F00505053010
:1021F00037500505303794F8283043F0010384F850
:102200002830059BA169024619442046FFF73CFE91
:102210000028CDD0236A2046984794F8283013F040
:10222000040FC5D0A269002100910B460598024415
:102230002046FFF7BBFE0028BAD14FF0500383F3CE
:102240001188BFF36F8FBFF34F8FFEE794F82830EC
:1022500023F0010384F82830AAE794F8283043F0EB
:10226000010384F828300599A16131B10346024683
:1022700001442046FFF708FE9AE74FF0500383F32E
:102280001188BFF36F8FBFF34F8FFEE794F82830AC
:1022900013F0020F04D023F0010384F8283087E7FD
:1022A000204600F0B1F983E708B010BDE806001041
:1022B00000B583B001A8FFF7D7FD0199FFF736FFFE
:1022C000FFF770FFF6E708B54FF0E0231B69FFF753
:1022D00073FD012800D108BD00F0ACFAFBE7000057
:1022E000EFF305832BB9064B186828B901221A6051
:1022F00070476FF0050070474FF0FF30704700BF28
:102300004C090010EFF3058373B90A4B1B68012BCE
:102310000DD110B50024084BDC77064B02221A6061
:10232000FFF7A8FA204610BD6FF0050070474FF088
:10233000FF3070474C09001000ED00E0F0B587B0A9
:1023400000240594EFF3058474BB68B322B31568C9
:10235000936903B918235C1E372C49D8546814F0CC
:10236000010F47D156696EB14FEA960C94682CB1B3
:10237000D7685B2F02D9176907B1C6B92CB14FF0E6
:10238000FF340EE04FF0800CF0E7D4688CB914698C
:1023900094B14FF0FF3404E01546002418234FF0A9
:1023A000800C012C0AD0ACB1059807B0F0BD012417
:1023B000F7E74FF0FF34F4E70024F2E7146992687E
:1023C0000292019400930B4662462946FFF7E2F918
:1023D0000590E9E705AA019200930B461FFA8CF2DB
:1023E0002946FFF712FA0128DED000230593DBE728
:1023F0000020DAE70020D8E708B5EFF3058333B90A
:1024000008B9002008BDFFF799FB0020FAE76FF03C
:102410000500F7E7034B0360034B0B608023136059
:10242000704700BFF0080010F0060010034B036077
:10243000034B0B604FF4807313607047500D001016
:1024400050090010124A12F0070F1ED0D11D21F0C2
:102450000701C1F5705313440A460E48026000217B
:1024600041601344083B23F007030B4803605960A5
:102470001960991A51601360084B1960084B196074
:10248000084B4FF000421A6070474FF47053E4E776
:10249000B00D0010C4490010AC0D0010B849001078
:1024A000B4490010B0490010164B1A461B6883420D
:1024B000FBD3516802EB010C844509D0416800EB65
:1024C000010C634509D00360904219D01060704739
:1024D0004068014451601046F0E710B40A4C24688B
:1024E000A3420BD05B681944416013681B6803600A
:1024F000904200D010605DF8044B70470460F7E72D
:10250000704700BFC4490010AC0D001070B50546FF
:10251000FFF7FEF9364B1B68A3B1364B1B681D4213
:102520004ED135B1083515F0070F02D025F007055B
:102530000835002D46D0304B1B68AB4251D32F4A93
:10254000146804E0FFF77EFFE7E722461C46636855
:10255000AB4202D22368002BF7D1254B1B68A34264
:1025600041D0166808362368136063685B1B102B24
:1025700010D9601910F0070F08D04FF0500383F303
:102580001188BFF36F8FBFF34F8FFEE74360656025
:10259000FFF78AFF626818490B689B1A0B6018499D
:1025A00009688B4201D216490B60124B1B6813431A
:1025B000636000232360134A13680133136002E051
:1025C000002600E00026FFF73DFA16F0070F0CD0BA
:1025D0004FF0500383F31188BFF36F8FBFF34F8F1A
:1025E000FEE70026EFE70026EDE7304670BD00BFAE
:1025F000AC0D0010B0490010B4490010C4490010DF
:10260000B8490010BC490010002834D038B5044641
:10261000A0F1080550F8043C174A1268134208D18B
:102620004FF0500383F31188BFF36F8FBFF34F8FC9
:10263000FEE750F8081C41B14FF0500383F31188B6
:10264000BFF36F8FBFF34F8FFEE723EA020340F81B
:10265000043CFFF75DF954F8041C084A13680B4466
:1026600013602846FFF720FF054A13680133136003
:10267000FFF7E8F938BD7047B0490010B4490010C1
:10268000C049001082B0002301930D4B1B68B3F1C9
:10269000FF3F08D04FF0500383F31188BFF36F8FD3
:1026A000BFF34F8FFEE74FF0500383F31188BFF362
:1026B0006F8FBFF34F8F019B002BFCD002B0704790
:1026C0001000001008480068006880F308884FF088
:1026D000000080F3148862B661B6BFF34F8FBFF37A
:1026E0006F8F00DF00BF000008ED00E0DFF80C0096
:1026F000016841F4700101607047000088ED00E05E
:102700004FF0807340F8043C21F0010140F8081CB0
:10271000054B40F80C3C40F8202C6FF0020340F8C9
:10272000243C4438704700BF852610080000000094
:10273000074B19680868B0E8F04F80F30988BFF3C9
:102740006F8F4FF0000080F311887047AFF3008067
:10275000C40000104FF0500383F31188BFF36F8F54
:10276000BFF34F8F0B4A136801331360012B00D066
:1027700070474FF0E023D3F8043D13F0FF0FF7D07C
:102780004FF0500383F31188BFF36F8FBFF34F8F68
:10279000FEE700BF10000010094B1B6843B94FF063
:1027A000500383F31188BFF36F8FBFF34F8FFEE7A2
:1027B000013B034A13600BB983F31188704700BFD4
:1027C00010000010000000000000000000000000E9
:1027D000EFF30980BFF36F8F154B1A681EF0100FCF
:1027E00008BF20ED108A20E9F04F10602DE90900A4
:1027F0004FF0500080F31188BFF34F8FBFF36F8FFE
:10280000FFF7C2F94FF0000080F3118809BC196886
:102810000868B0E8F04F1EF0100F08BFB0EC108A47
:1028200080F30988BFF36F8F704700BFAFF300805C
:10283000C400001008B54FF0500383F31188BFF3B4
:102840006F8FBFF34F8FFFF771F828B14FF0E02380
:102850004FF08052C3F8042D002383F3118808BD84
:102860004FF0E022002313619361054B1B6805497B
:10287000A1FB03139B09013B5361072313617047BD
:102880000C000010D34D62104FF0E023D3F8002D60
:102890003D4B9A421CD04FF0E023D3F8002D3B4B28
:1028A0009A421ED030B583B0394B1A78D2B2019219
:1028B000FF221A701B78DBB28DF803309DF80330CD
:1028C00003F05003334A1370334B07221A601BE0A6
:1028D0004FF0500383F31188BFF36F8FBFF34F8F17
:1028E000FEE74FF0500383F31188BFF36F8FBFF300
:1028F0004F8FFEE7284A1368013B13609DF80330B1
:102900005B00DBB28DF803309DF8033013F0800FCD
:10291000F0D1214B1B68032B08D04FF0500383F3F9
:102920001188BFF36F8FBFF34F8FFEE71B021A4A68
:10293000136003F4E0631360019BDBB2144A13706D
:102940004FF0E024D4F8203D43F47003C4F8203D58
:10295000D4F8203D43F07043C4F8203DFFF780FFDA
:1029600000250E4B1D60FFF7C1FED4F8343F43F045
:102970004043C4F8343FFFF7A5FEFFF705F9FFF722
:1029800081FE284603B030BD71C20F4170C20F41B5
:1029900000E400E0CC490010D04900101000001005
:1029A000EFF305830F2B0FD9114A9B5CDBB2114A61
:1029B00012789A4208D94FF0500383F31188BFF37D
:1029C0006F8FBFF34F8FFEE74FF0E023D3F80C3D3E
:1029D00003F4E063084A1268934208D94FF05003A9
:1029E00083F31188BFF36F8FBFF34F8FFEE77047FC
:1029F000F0E300E0CC490010D0490010DFF834D0FB
:102A0000FEF73CF90C480D490D4A002302E0D4586A
:102A1000C4500433C4188C42F9D30A4A0A4C002328
:102A200001E013600432A242FBD300F011F8FDF77D
:102A30005DFC7047008004100000001014000010BE
:102A40003C2B100814000010D4490010FEE70000D1
:102A500070B50D4D0D4C641BA4100026A64209D183
:102A60000B4D0C4C00F02EF8641BA4100026A6425F
:102A700005D170BD55F8043B98470136EEE755F88F
:102A8000043B98470136F2E7342B1008342B10082A
:102A9000342B1008382B10080A44914200F1FF3300
:102AA00000D1704710B511F8014B03F8014F914266
:102AB000F9D110BD02440346934200D1704703F898
:102AC000011BF9E7F8B500BFF8BC08BC9E4670478B
:0C2AD000F8B500BFF8BC08BC9E4670477B
:102ADC0064656661756C745461736B00DC2A100854
:102AEC0000000000000000000000000000000000DA
:102AFC0000020000180000000000000000000000B0
:102B0C000000000001020304010203040607080987
:102B1C0049444C4500000000546D72510000000007
:082B2C00546D72205376630022
:042B3400C5021008BE
:042B3800A1021008DE
:102B3C0001000000100000000090D0030090D003B2
:042B4C00AAAAAAAADD
:04000005081029FDB9
:00000001FF
