:020000040810E2
:10000000008004101D2D10086304100865041008FA
:1000100067041008690410086B0410080000000051
:10002000000000000000000000000000512A10083D
:100030006D04100800000000F12A1008DF251008E8
:100040006D2D10086D2D10086D2D10086D2D1008E8
:100050006D2D10086D2D10086D2D10086D2D1008D8
:100060006D2D10086D2D10086D2D10086D2D1008C8
:100070006D2D10086D2D10086D2D10086D2D1008B8
:100080006D2D10086D2D10086D2D10086D2D1008A8
:100090006D2D10086D2D10086D2D10086D2D100898
:1000A0006D2D10086D2D10086D2D10086D2D100888
:1000B000710410086D2D10086D2D10086D2D10089D
:1000C0006D2D10086D2D10086D2D10086D2D100868
:1000D0006D2D10086D2D10086D2D10086D2D100858
:1000E0006D2D10086D2D1008000000006D2D1008FA
:1000F0006D2D10086D2D10086D2D10086D2D100838
:100100006D2D10086D2D10086D2D10086D2D100827
:100110006D2D10086D2D10086D2D10086D2D100817
:100120006D2D10086D2D10086D2D10086D2D100807
:100130006D2D10086D2D10086D2D10086D2D1008F7
:100140006D2D10086D2D100800000000000000004B
:100150006D2D10086D2D10086D2D10086D2D1008D7
:100160006D2D10086D2D10086D2D10086D2D1008C7
:100170006D2D10086D2D10086D2D10086D2D1008B7
:100180006D2D10086D2D10086D2D10086D2D1008A7
:100190006D2D10086D2D10086D2D10086D2D100897
:1001A0006D2D10086D2D10086D2D10086D2D100887
:1001B0006D2D10086D2D10086D2D10086D2D100877
:1001C0006D2D10086D2D10086D2D10086D2D100867
:1001D0006D2D10086D2D10086D2D10086D2D100857
:1001E0006D2D10086D2D10086D2D10086D2D100847
:1001F0006D2D10086D2D10086D2D10086D2D100837
:100200006D2D10086D2D10086D2D10086D2D100826
:100210006D2D10086D2D10086D2D10086D2D100816
:100220006D2D10086D2D10086D2D100800000000B8
:100230006D2D10086D2D10086D2D10086D2D1008F6
:100240006D2D10086D2D10086D2D10086D2D1008E6
:100250006D2D10086D2D10086D2D10086D2D1008D6
:100260006D2D10086D2D10086D2D10086D2D1008C6
:100270006D2D10086D2D10086D2D10086D2D1008B6
:100280006D2D10086D2D10086D2D10080000000058
:080290006D2D10086D2D100802
:1002A0000348044B834202D0034B03B11847704705
:1002B0001400001014000010000000000548064B58
:1002C0001B1AD90F01EBA301491002D0034B03B154
:1002D00018477047140000101400001000000000C0
:1002E00010B5064C237843B9FFF7DAFF044B13B17E
:1002F0000448AFF300800123237010BD14000010E8
:1003000000000000E42D100808B5054B1BB105499D
:100310000548AFF30080BDE80840FFF7CFBF00BF3E
:100320000000000018000010E42D100830B587B060
:10033000002401940294039404940594104BD3F880
:10034000E02042F00202C3F8E020D3F8E03003F0EE
:1003500002030093009B0B4D22464FF48041284638
:1003600000F080FB4FF48043019301230293039438
:10037000049401A9284600F065FA07B030BD00BF1B
:10038000004402580004025808B50B4C01224FF4F7
:100390008041204600F066FB4FF47A7002F0B8F915
:1003A00000224FF48041204600F05CFB4FF47A704D
:1003B00002F0AEF9E9E700BF0004025800B583B0CF
:1003C0001D4BD3F8E02042F00072C3F8E020D3F8D0
:1003D000E03003F000730193019B012000F048FB23
:1003E00000F0A6FB01220221002000F049FB134B84
:1003F0001B68C3F30313072B16D0114AD2F814312C
:1004000043F00103C2F8143100F09CFBFFF78EFFAC
:1004100002F0F2F80B4A00210B4802F01BF90B4BDB
:10042000186002F0FBF8FEE7054AD2F8043143F009
:100430000103C2F80431E7E70044025800ED00E090
:1004400000640258082E10088903100830000010BC
:1004500008B50368B3F1804F00D008BD00F0C0FBC1
:10046000FBE7FEE7FEE7FEE7FEE7FEE7704700007A
:1004700008B5024800F00EFC08BD00BF38000010AF
:1004800000B583B00A4BD3F8F42042F00202C3F85F
:10049000F420D3F8F43003F002030193019B00220F
:1004A0000F216FF0010000F057F803B05DF804FB76
:1004B00000440258002807DB00F01F024009012316
:1004C0009340024A42F82030704700BF00E100E04C
:1004D000002804DB0901C9B2044B1954704700F02D
:1004E0000F000901C9B2024B1954704700E400E043
:1004F00014ED00E000B500F00700C0F1070CBCF1FE
:10050000040F28BF4FF0040C031D062B0FD9C31E88
:100510004FF0FF3E0EFA0CF021EA000199400EFA6E
:1005200003FE22EA0E0241EA02005DF804FB00230A
:10053000EEE700000649CB6823F4E0631B041B0CC4
:10054000000200F4E0600343024A1A43CA607047A5
:1005500000ED00E00000FA0510B50446054BD86830
:10056000C0F30220FFF7C6FF01462046FFF7B0FFA9
:1005700010BD00BF00ED00E008B5FFF79BFF08BD10
:10058000044B1B68C3F30313072B01D001207047F2
:100590000320704700ED00E0744B1B6903F0380343
:1005A000102B00F0DE80182B0FD00BB17048704775
:1005B0006E4B1B6813F0200F00F0D5806B4B1B684F
:1005C000C3F3C1036B48D840704710B4674B9A6AB5
:1005D00002F003029C6AC4F30510D96A01F001011C
:1005E0005B6BC3F3CC0301FB03F307EE903AF8EE29
:1005F000677A14F47C7F00F09480012A66D0022A86
:1006000000F09280E2B107EE100AF8EE476A9FED23
:100610005A6A86EE267A554B1B6BC3F3080306EE27
:10062000903AF8EE666A9FED556A67EE867A76EE46
:10063000A77AF7EE006A77EEA67A27EE277A61E0CE
:100640004A4B1B6813F0200F23D048490A68C2F3B5
:10065000C102484BD34007EE103AF8EE476A07EE66
:10066000100AB8EE476A86EE867A0B6BC3F308036E
:1006700006EE903AF8EE666A9FED406A67EE867A7B
:1006800076EEA77AF7EE006A77EEA67A27EE277A5B
:1006900038E007EE100AF8EE476A9FED396A86EEF9
:1006A000267A324B1B6BC3F3080306EE903AF8EE42
:1006B000666A9FED326A67EE867A76EEA77AF7EE83
:1006C000006A77EEA67A27EE277A1BE007EE100A7B
:1006D000F8EE476A9FED286A86EE267A234B1B6B5D
:1006E000C3F3080306EE903AF8EE666A9FED236ABC
:1006F00067EE867A76EEA77AF7EE006A77EEA67A4C
:1007000027EE277A194B1B6BC3F34623013307EE01
:10071000903AF8EE677AC7EE276AFCEEE67A17EEB3
:10072000900A5DF8044B704707EE100AF8EE476A2E
:100730009FED146A86EE267A0C4B1B6BC3F30803FD
:1007400006EE903AF8EE666A9FED0C6A67EE867ADE
:1007500076EEA77AF7EE006A77EEA67A27EE277A8A
:10076000D0E7094870470348704700BF004402586B
:1007700000093D000090D0030024744A00000039B5
:100780000024744C0024F44A00127A0008B5FFF7E4
:1007900003FF0A498B69C3F30323094AD35C03F0BF
:1007A0001F03D8408B6903F00F03D35C03F01F03D2
:1007B000D840044B1860044B186008BD0044025830
:1007C0002C2E1008080000100C00001008B5FFF7D0
:1007D000DDFF054BDB69C3F30213044AD35C03F06E
:1007E0001F03D84008BD00BF004402582C2E10083B
:1007F0003F230360114B1A6902F0070242609A69B5
:1008000002F4706282609A6902F00F02C2609A6913
:1008100002F070020261DA6902F070024261DA6984
:1008200002F4E06282611B6A03F07003C361044B4F
:100830001B6803F00F030B60704700BF00440258B1
:1008400000200052F0B583B000236BE085685E00A5
:100850000324B44025EA0405CC68B4402C438460EA
:10086000456825EA0C054C68C4F300149C402C43F1
:10087000446069E0DD08083550F8254003F0070CB6
:100880004FEA8C0C4FF00F0E0EFA0CFE24EA0E0EFF
:100890000C6904FA0CF444EA0E0440F825406BE0BD
:1008A000092400E0002404FA0EF42C430CF1020C9D
:1008B000694D45F82C404FF0B0442568D44325EAF3
:1008C00002064F6817F4801F01D042EA05064FF078
:1008D000B0452E606D6804EA05064F6817F4001FE6
:1008E00001D042EA05064FF0B0456E60D5F8C4501D
:1008F00004EA05064F6817F4003F01D042EA0506F6
:100900004FF0B045C5F8C460D5F8C0502C404E68D3
:1009100016F4803F01D042EA05044FF0B042C2F81D
:10092000C04001330A6832FA03F400F092804FF0BD
:10093000010C0CFA03FC1CEA0202F2D04C6804F031
:100940000304013C012C81D94C6804F00304032CFE
:100950000CD0C4685D004FF0030C0CFA05FC24EACF
:100960000C0C8C68AC4044EA0C04C4604C6804F085
:100970000304022C3FF47EAF04684FEA430E4FF0AD
:10098000030C0CFA0EFC24EA0C0C4C6804F0030473
:1009900004FA0EF444EA0C0404604C6814F4403F7A
:1009A000BFD02E4CD4F8F45045F00205C4F8F450F2
:1009B000D4F8F44004F002040194019C4FEA930C33
:1009C0000CF10205244C54F8255003F0030E4FEAB5
:1009D0008E0E0F2404FA0EF425EA0405204CA042E2
:1009E0003FF460AF04F58064A04222D004F5806437
:1009F000A04220D004F58064A0421ED004F580649B
:100A0000A0421CD004F58064A0421AD004F5806492
:100A1000A04218D004F58064A04216D004F580648A
:100A2000A04214D004F58064A0423FF439AF0A24F8
:100A300039E7012437E7022435E7032433E70424A8
:100A400031E705242FE706242DE707242BE70824A8
:100A500029E703B0F0BD00BF00040058004402586D
:100A6000000002580AB18161704709048161704732
:100A7000024A136903431361704700BF00650258BF
:100A800038B50D46284C236823F001030343236047
:100A90005AB1012A25D0FFF773FD03283ED0224A20
:100AA000536923F00403536138BDFFF769FD032840
:100AB000FAD1236923F0010323611C4A136943F02F
:100AC00004031361BFF34F8FBFF36F8F012D06D067
:100AD00020BF164A136923F004031361E4E730BF13
:100AE000F7E7FFF74DFD0128DED10F4A536923F0E8
:100AF000020353610D4A136943F004031361BFF30A
:100B00004F8FBFF36F8F012D06D020BF074A1369A7
:100B100023F004031361C7E730BFF7E7024A136904
:100B200023F004031361BFE70048025800ED00E022
:100B300008B5FFF725FD032802D040BF20BF08BD40
:100B400020BFFCE710B582B01F4CD4F8D83043F476
:100B50008043C4F8D830D4F8D83003F480430193EC
:100B6000019B1A4AD2F80014194B0B4043F401437D
:100B7000C2F80034D2F8003443F00103C2F8003464
:100B80000320FFF7D7FCFFF707FDA369C3F3032397
:100B9000104AD35C03F01F03D840A36903F00F038E
:100BA000D35C03F01F03D8400B4B18600B4B18604D
:100BB0000F2000F001FA18B10124204602B010BD48
:100BC0000446FFF75DFCF8E700440258004002408D
:100BD000FF00F0FF2C2E1008080000100C00001081
:100BE000034B1B78034A11680B441360704700BF26
:100BF00000000010340000107047000090F83D30F5
:100C0000DBB2012B3AD1022380F83D300268D36871
:100C100043F00103D36003681A4AB3F1804F18BF51
:100C200093421DD0A2F57C42934219D002F5806216
:100C3000934215D002F58062934211D002F57842BA
:100C400093420DD0A2F56C42934209D002F5943242
:100C5000934205D01A6842F001021A6000207047E2
:100C60009968094A0A40062A18BFB2F5803F07D0A2
:100C70001A6842F001021A60002070470120704794
:100C800000207047000001400700010070477047D6
:100C90007047704710B5044603681A6912F0020FD6
:100CA00011D0DA6812F0020F0DD06FF002021A6153
:100CB0000123037703689B6913F0030F79D0FFF7D3
:100CC000E6FF0023237723681A6912F0040F12D07D
:100CD000DA6812F0040F0ED06FF004021A610223DA
:100CE000237723689B6913F4407F68D02046FFF781
:100CF000CEFF0023237723681A6912F0080F12D061
:100D0000DA6812F0080F0ED06FF008021A6104239F
:100D100023772368DB6913F0030F57D02046FFF7D2
:100D2000B6FF0023237723681A6912F0100F12D040
:100D3000DA6812F0100F0ED06FF010021A6108235B
:100D400023772368DB6913F4407F46D02046FFF702
:100D50009EFF0023237723681A6912F0010F03D046
:100D6000DA6812F0010F3FD123681A6912F0800F80
:100D700003D0DA6812F0800F3DD123681A6912F4AB
:100D8000807F03D0DA6812F0800F3BD123681A69A4
:100D900012F0400F03D0DA6812F0400F39D1236807
:100DA0001A6912F0200F03D0DA6812F0200F37D141
:100DB00010BDFFF76BFF2046FFF76AFF81E7204673
:100DC000FFF764FF2046FFF763FF92E72046FFF737
:100DD0005DFF2046FFF75CFFA3E72046FFF756FFC5
:100DE0002046FFF755FFB4E76FF001021A61204675
:100DF000FFF72EFBB8E76FF080021A61204600F083
:100E0000CAF8BAE76FF480721A61204600F0C4F89D
:100E1000BCE76FF040021A612046FFF73AFFBEE7D9
:100E20006FF020021A61204600F0B4F8C0E700001D
:100E300030B50368394A904214BF4FF0000E4FF0AE
:100E4000010EB0F1804F14BF72464EF00102AAB9F4
:100E5000334CA04214BF00240124324DA8420DD0CF
:100E600064B904F1804404F58234A04214BF002424
:100E7000012405F50065A84200D01CB123F07003E1
:100E80004C68234312BB264A904214BF0022012221
:100E9000244CA0421AD0CAB902F1804202F5823233
:100EA000904214BF0022012204F50064A0420DD03C
:100EB00062B91D4A904214BF0022012204F59A34FF
:100EC000A04203D012B9194A904204D123F4407CC5
:100ED000CB6843EA0C0323F080034A6913430360A1
:100EE0008A68C2620A688262114A904214BF7346DD
:100EF0004EF0010363B90C4B984214BF0023012349
:100F000002F57052904203D013B9084B984201D1B8
:100F10000B6903630123436130BD00BF0000014042
:100F20000008004000040040004401400048014027
:100F30000004014060B310B5044690F83D3013B38F
:100F4000022384F83D30214651F8040BFFF770FF6F
:100F5000012384F8483084F83E3084F83F3084F828
:100F6000403084F8413084F8423084F8433084F8CB
:100F7000443084F8453084F8463084F8473084F8AB
:100F80003D30002010BD80F83C30FFF735FED7E73C
:100F9000012070477047704770470000054BD3F839
:100FA000882042F47002C3F888201A6942F01002C7
:100FB0001A61704700ED00E00F2801D90120704749
:100FC00010B58AB00446002201461C20FFF7C4FA7F
:100FD0001C20FFF7D1FA1B4B1C601B4BD3F8E820F9
:100FE00042F00102C3F8E820D3F8E83003F001032F
:100FF0000093009B01A902A8FFF7FAFB079BC3B966
:10100000FFF7E4FB0346114AA2FB03239B0C013BC1
:101010000F484FF08042026040F2E732C260436006
:10102000002303618360FFF785FF30B101200AB020
:1010300010BDFFF7CBFB4300E5E70548FFF7DEFDFA
:10104000F5E700BF040000100044025883DE1B4394
:101050003800001000F1080343604FF0FF32826057
:10106000C36003610023036070470023036170477E
:1010700043684B609A688A605160996008610368B0
:1010800001330360704730B40D68B5F1FF3F11D0F4
:1010900000F108031C465B681A68AA42FAD9636823
:1010A0004B6099608C606160086103680133036084
:1010B00030BC70470469F2E70369416882688A605E
:1010C000416851605A68824206D0002202611A6863
:1010D000013A1A601868704782685A60F5E710B5DF
:1010E000044601F0C7FCA26BE36B9A4204D00024D3
:1010F00001F0E2FC204610BD0124F9E710B50446DA
:1011000001F0B8FCA36B23B9012401F0D5FC204603
:1011100010BD0024F9E770B504461546866B026CD5
:101120005AB903681BB100200136A66370BD806800
:1011300000F0DEFF0023A360F6E76DB9406801F020
:1011400043FE6368226C13446360A268934219D320
:10115000236863602846E7E7C06801F035FEE3686E
:10116000226C51429B1AE3602268934202D2A36828
:101170000B44E360022D01D00020D5E726B1013EEB
:101180000020D1E72846CFE70020CDE70346026CD8
:101190006AB110B50846D9681144D9609C68A1426B
:1011A00001D31968D960D96801F00EFE10BD7047EF
:1011B00038B5054601F05EFC95F8454064B201E0A3
:1011C000013C64B2002C0ADD6B6A43B105F12400D6
:1011D00000F0E4FE0028F3D000F074FFF0E7FF23F6
:1011E00085F8453001F068FC01F044FC95F8444076
:1011F00064B201E0013C64B2002C0ADD2B6943B10A
:1012000005F1100000F0CAFE0028F3D000F05AFFEC
:10121000F0E7FF2385F8443001F04EFC38BD38B5C7
:10122000E0B10D46044601F025FC2368E26B216C19
:1012300001FB0230A0600020A0636360013A02FB62
:101240000133E360FF2384F8443084F84530FDB96E
:10125000236963B901F030FC012038BD4FF0500321
:1012600083F31188BFF36F8FBFF34F8FFEE704F155
:10127000100000F093FE0028ECD04FF0E0234FF078
:101280008052C3F8042DBFF34F8FBFF36F8FE1E798
:1012900004F11000FFF7DEFE04F12400FFF7DAFE90
:1012A000D8E738B51D46049C0B4649B92460E06375
:1012B000236401212046FFF7B2FF84F84C5038BD6B
:1012C0002260F4E740B94FF0500383F31188BFF375
:1012D0006F8FBFF34F8FFEE710B584B01C4683B10C
:1012E0000B1E18BF0123002A08BF43F001038BB96E
:1012F0004FF0500383F31188BFF36F8FBFF34F8F0D
:10130000FEE74FF0500383F31188BFF36F8FBFF3F5
:101310004F8FFEE7B1FA81F35B09002A18BF43F053
:10132000010343B94FF0500383F31188BFF36F8F6C
:10133000BFF34F8FFEE750230393039B502B08D03E
:101340004FF0500383F31188BFF36F8FBFF34F8FBC
:10135000FEE7039B012384F8463000949DF8183083
:10136000FFF79FFF204604B010BDF0B585B0019295
:1013700088B10F461D460446B1B1022D20D1E36B62
:10138000012B1DD04FF0500383F31188BFF36F8FF3
:10139000BFF34F8FFEE74FF0500383F31188BFF385
:1013A0006F8FBFF34F8FFEE7036C002BE5D04FF03C
:1013B000500383F31188BFF36F8FBFF34F8FFEE7A6
:1013C00000F086FE064658B9019B002B48D04FF02E
:1013D000500383F31188BFF36F8FBFF34F8FFEE786
:1013E00000263DE02A4639462046FFF794FE636A10
:1013F0007BB948B14FF0E0234FF08052C3F8042D81
:10140000BFF34F8FBFF36F8F01F056FB012005B084
:10141000F0BD04F1240000F0C1FD0028F4D04FF02D
:10142000E0234FF08052C3F8042DBFF34F8FBFF37A
:101430006F8FE9E701F040FB0020E8E702A800F029
:10144000F3FD012619E0002384F8443021E0002355
:1014500084F8453023E02046FFF7AAFE00F07CFC2C
:1014600001F008FBA26BE36B9A42BBD3022DB9D00B
:10147000019B002BDED0002EE0D001F01DFB00F020
:10148000D1FB01F0F7FA94F8442052B2B2F1FF3FD9
:10149000D9D094F8452052B2B2F1FF3FD7D001F035
:1014A0000BFB01A902A800F0CBFDD8B92046FFF73D
:1014B00016FE0028CFD0019904F1100000F03AFD8B
:1014C0002046FFF775FE00F047FC0028C8D14FF01A
:1014D000E0234FF08052C3F8042DBFF34F8FBFF3CA
:1014E0006F8FBDE72046FFF763FE00F035FC00205C
:1014F0008DE72DE9F84390B10F4616461C46054688
:10150000B1B1022C20D1EB6B012B1DD04FF0500359
:1015100083F31188BFF36F8FBFF34F8FFEE74FF058
:10152000500383F31188BFF36F8FBFF34F8FFEE734
:10153000036C002BE5D04FF0500383F31188BFF309
:101540006F8FBFF34F8FFEE701F0BAFBEFF3118807
:101550004FF0500383F31188BFF36F8FBFF34F8FAA
:10156000AA6BEB6B9A4206D3022C04D0002088F3BE
:101570001188BDE8F88395F845904FFA89F9AB6B6F
:10158000224639462846FFF7C6FDB9F1FF3F06D08F
:1015900009F101035BB285F845300120E7E76B6A8A
:1015A0000BB90120E3E705F1240000F0F7FC18B1C6
:1015B00026B101203060DAE70120D8E70120D6E724
:1015C000F0B585B0019290B10F460446C1B100F06C
:1015D0007FFD064600BB019B002B5ED04FF0500301
:1015E00083F31188BFF36F8FBFF34F8FFEE74FF088
:1015F000500383F31188BFF36F8FBFF34F8FFEE764
:10160000036C002BE3D04FF0500383F31188BFF33A
:101610006F8FBFF34F8FFEE700263EE0394620462E
:10162000FFF7B4FD013DA563236923B901F044FA36
:10163000012005B0F0BD04F1100000F0AFFC00285F
:10164000F4D04FF0E0234FF08052C3F8042DBFF3E5
:101650004F8FBFF36F8FE9E701F02EFA0020E8E724
:1016600002A800F0E1FC012621E0002384F84430C8
:1016700029E0002384F845302BE02046FFF798FD51
:1016800000F06AFB09E02046FFF792FD00F064FBE2
:101690002046FFF733FD00283FD101F0EBF9A56BA1
:1016A000002DBBD1019B002BD6D0002ED8D001F04D
:1016B00003FA00F0B7FA01F0DDF994F844305BB2B8
:1016C000B3F1FF3FD1D094F845305BB2B3F1FF3FA7
:1016D000CFD001F0F1F901A902A800F0B1FC002877
:1016E000D1D12046FFF70AFD0028C6D0019904F1A8
:1016F000240000F01FFC2046FFF75AFD00F02CFBF1
:101700000028CAD14FF0E0234FF08052C3F8042DD7
:10171000BFF34F8FBFF36F8FBFE7002089E7000053
:101720000023072B0CD8074A52F833200AB10133A3
:10173000F7E7044A42F8331002EBC30250607047E7
:10174000704700BF8400001070B504460D46164671
:1017500001F090F994F844305BB2B3F1FF3F0DD043
:1017600094F845305BB2B3F1FF3F0BD001F0A4F920
:10177000A36B5BB12046FFF71BFD70BD002384F80F
:101780004430EDE7002384F84530EFE73246294640
:1017900004F1240000F0E6FBECE70000084B1B68B6
:1017A0001B6823B9074B4FF0FF321A607047044B98
:1017B0001B68DB68DB685A68024B1A60704700BF21
:1017C00034010010CC0000102DE9F04780460D4692
:1017D00017469946089EDDF824A00A9C9200A52190
:1017E000206B01F0C4FA236B6FF040423A4403EBE4
:1017F000820727F00707A5B34FF0000CBCF10F0FCD
:1018000009D815F80C3004EB0C0282F8343013B10F
:101810000CF1010CF2E7002384F84330372E00D995
:101820003726E662E66400252565201DFFF71DFCCE
:1018300004F11800FFF719FC2461C6F13806A6610F
:101840006462656584F858504A464146384601F05E
:10185000E7F82060BAF1000F01D0CAF80040BDE8F7
:10186000F087002384F83430D8E7000038B500242E
:1018700007E004EB840293000E481844FFF7EAFBEC
:101880000134372CF5D90C4D2846FFF7E3FB0B4C00
:101890002046FFF7DFFB0A48FFF7DCFB0948FFF7AC
:1018A000D9FB0948FFF7D6FB084B1D60084B1C60AD
:1018B00038BD00BF600100104C010010380100105D
:1018C0001C01001008010010F0000010340100108D
:1018D0003001001010B5044601F0CCF8224A13681C
:1018E00001331360214B1B685BB1214B1B686BB943
:1018F0001E4B1B68DA6AE36A9A4207D81B4B1C60CE
:1019000004E01A4B1C601368012B29D0194A136894
:10191000013313606364E06A174B1B68984201D976
:10192000154B186000EB8000211D144B03EB800069
:10193000FFF79EFB01F0C0F80D4B1B687BB10B4B12
:101940001B68DA6AE36A9A4209D24FF0E0234FF04B
:101950008052C3F8042DBFF34F8FBFF36F8F10BDBC
:10196000FFF784FFD2E700BFEC000010C0050010B5
:10197000E0000010D0000010E40000106001001032
:1019800010B5044690F8593063B1012B11D0022BE9
:101990000ED04FF0500383F31188BFF36F8FBFF366
:1019A0004F8FFEE7006B00F0BFFF204600F0BCFF4A
:1019B00010BD00F0B9FFFBE70F4B1B68D3B110B5AA
:1019C00001F058F80D4BDB68DC68201DFFF774FB55
:1019D0000B4A1368013B1360074A1368013B13600D
:1019E00001F06AF82046FFF7CBFF034B1B68002B82
:1019F000E6D110BD704700BF0401001008010010BF
:101A0000EC00001008B5FFF7D7FF074B1B68012B50
:101A1000F9D94FF0E0234FF08052C3F8042DBFF303
:101A20004F8FBFF36F8FEEE76001001070B5044673
:101A30000D46194B1E68194B18680430FFF73CFB24
:101A4000B4F1FF3F14BF00230123002D08BF002382
:101A50006BB93444114B1B685C60A6420ED9104B25
:101A600018680E4B19680431FFF70DFB70BD0B4B66
:101A7000196804310B48FFF7FBFAF7E70A4B1868BF
:101A8000064B19680431FFF7FEFA084B1B68A342A6
:101A9000ECD9064B1C60E9E7E8000010C005001017
:101AA00030010010F000001034010010CC000010D4
:101AB00030B587B00B9C7CB10C9DB5B15C2504950D
:101AC000049D5C2D1AD04FF0500383F31188BFF3AF
:101AD0006F8FBFF34F8FFEE74FF0500383F31188F2
:101AE000BFF36F8FBFF34F8FFEE74FF0500383F3C9
:101AF0001188BFF36F8FBFF34F8FFEE7049D0C9DDE
:101B00002C63022485F8594000240394029505AC07
:101B100001940A9C0094FFF757FE0C98FFF7DAFE39
:101B2000059807B030BD2DE9F04385B007468846DB
:101B300014461E46900000F075FE08B381465C20F6
:101B400000F070FE0546A8B1C0F83090002380F880
:101B50005930039302900D9B01930C9B00933346E5
:101B6000224641463846FFF72FFE2846FFF7B2FED1
:101B7000012007E0484600F0D7FE4FF0FF3001E0BB
:101B80004FF0FF3005B0BDE8F083000010B588B01D
:101B900000240594069407AA06A905A800F0C6FD2E
:101BA000059B0293069B019300942346079A1749CD
:101BB0001748FFF77DFF174B1860C0B100F050FBCE
:101BC000012815D14FF0500383F31188BFF36F8FB5
:101BD000BFF34F8F104B4FF0FF321A600F4B0122B3
:101BE0001A600F4B00221A6000F0DEFF03E00020B5
:101BF000B0F1FF3F01D008B010BD4FF0500383F3A8
:101C00001188BFF36F8FBFF34F8FFEE73C2E100894
:101C1000051A1008C8000010CC000010E0000010E9
:101C2000E8000010024A136801331360704700BFD8
:101C3000C4000010014B1868704700BFE800001096
:101C4000F8B53A4B1B68002B69D1394B1D6801353B
:101C50001D60C5B9374B1B681B6843B14FF050037B
:101C600083F31188BFF36F8FBFF34F8FFEE7314AC5
:101C70001168314B186810601960304A13680133DD
:101C80001360FFF78BFD2E4B1B68AB423DD900273D
:101C90002C4B1B68DB6A03EB83039A002A4B9B588F
:101CA000012B00D90127294B1B68002B3CD00127B1
:101CB0003AE001271F4B1B681B6843B31D4B1B6891
:101CC000DB68DC6863689D4226D3261D3046FFF73B
:101CD000F3F9A36A1BB104F11800FFF7EDF9E36A09
:101CE0001B4A1268934201D9194A136003EB83031C
:101CF0009A00314614481044FFF7BAF9E26A114BD2
:101D00001B68DB6A9A42D4D2D4E70027D2E70C4B97
:101D10004FF0FF321A60BBE7094A1360B8E70D4A7B
:101D200013680133136000273846F8BDC400001063
:101D3000E80000103401001030010010D400001041
:101D4000CC000010C005001060010010D800001089
:101D5000E4000010DC00001038B5354B1B6843B9B7
:101D60004FF0500383F31188BFF36F8FBFF34F8F92
:101D7000FEE700F07FFE2E4B1A68013A1A601B68DE
:101D8000002B4FD12B4B1B680BB900244BE00024D8
:101D9000294B1B681BB3284BDB68DC6804F1180077
:101DA000FFF78AF9251D2846FFF786F9E06A234BDD
:101DB0001B68984201D9214B186000EB800029462E
:101DC0001F4B03EB8000FFF753F9E26A1D4B1B68C2
:101DD000DB6A9A42DCD31C4B01221A60D8E70CB1B3
:101DE000FFF7DCFC194B1C6884B9174B1C68D4B195
:101DF0004FF0E0234FF08052C3F8042DBFF34F8F14
:101E0000BFF36F8F01240EE0013C07D0FFF718FFEE
:101E10000028F9D00C4B01221A60F5E70B4B002289
:101E20001A60E2E7002400F047FE204638BD00BFFC
:101E3000C4000010EC0000101C010010E4000010B1
:101E400060010010C0050010D8000010DC00001078
:101E500010B5A8B10446104B1B6843B14FF05003B6
:101E600083F31188BFF36F8FBFF34F8FFEE7FFF748
:101E7000D9FE00212046FFF7D9FDFFF76DFF48B9D5
:101E80004FF0E0234FF08052C3F8042DBFF34F8F83
:101E9000BFF36F8F10BD00BFC4000010204B1B6844
:101EA0001BB1204B01221A6070471E4B00221A60A2
:101EB0001D4B1B6803EB83018A001C498A585AB9E1
:101EC0000BB1013BF6E74FF0500383F31188BFF3EA
:101ED0006F8FBFF34F8FFEE7084603EB83018A0045
:101EE000024451684968516003EB830C4FEA8C024D
:101EF0000832024491420BD003EB830291000B4A5B
:101F00000A445268D1680A4A1160074A1360704750
:101F1000486862469100054A0A445060ECE700BFF9
:101F2000C4000010D8000010E40000106001001090
:101F3000C005001058B110B50C46094A1168183197
:101F4000FFF7A1F801212046FFF770FD10BD4FF00B
:101F5000500383F31188BFF36F8FBFF34F8FFEE7FA
:101F6000C005001038B570B10D4614460A4A116814
:101F70001831FFF77DF80CB14FF0FF3521462846A8
:101F8000FFF754FD38BD4FF0500383F31188BFF3C2
:101F90006F8FBFF34F8FFEE7C005001038B5C368E1
:101FA000DC6824B304F118052846FFF785F8184BC0
:101FB0001B682BBB251D2846FFF77EF8E06A154BF2
:101FC0001B68984201D9134B186000EB800029462A
:101FD000114B03EB8000FFF74BF8E26A0F4B1B68D5
:101FE000DB6A9A4211D901200D4B186038BD4FF0C1
:101FF000500383F31188BFF36F8FBFF34F8FFEE75A
:1020000029460848FFF734F8E7E70020EEE700BF6D
:10201000C4000010E400001060010010C0050010B2
:10202000D80000101C010010034B1B680360034B19
:102030001B684360704700BFD4000010E800001028
:10204000F8B5C8B10C460546F9B100F013FD1B4BBD
:1020500019686B68C81A2268B2F1FF3F26D0184E83
:1020600036682F68B74201D08B4224D9824215D8F6
:102070000023236001241AE04FF0500383F31188FA
:10208000BFF36F8FBFF34F8FFEE74FF0500383F323
:102090001188BFF36F8FBFF34F8FFEE75B1A1344B6
:1020A00023602846FFF7C0FF002400E0002400F072
:1020B00003FD2046F8BD0124F9E700BFE800001049
:1020C000D4000010014B01221A607047D8000010A4
:1020D000054B1B6833B1054B1B680BB100207047E3
:1020E0000220704701207047E0000010C40000107B
:1020F00000283BD038B504461E4B1B68834208D0ED
:102100004FF0500383F31188BFF36F8FBFF34F8FEE
:10211000FEE7036D43B94FF0500383F31188BFF31B
:102120006F8FBFF34F8FFEE7013B0365C16AC26C3F
:1021300091421DD00BB1002038BD051D2846FEF789
:10214000BBFFE06CE062C0F13803A3610A4B1B687F
:10215000984201D9084B186000EB80002946074BD4
:1021600003EB8000FEF784FF0120E5E700207047C5
:102170000020E1E7C0050010E4000010600100103D
:10218000064B1A6813682BB90123036023B9D3687F
:10219000186870470023F8E700207047C406001055
:1021A00008B54160006191420CD8D21A83699A4205
:1021B00001D3012008BD011D0B4B1868FEF763FF1A
:1021C0000020F7E79A422CBF00220122994238BF33
:1021D00000220AB10120EDE7011D044B1868FEF74B
:1021E00052FF0020E6E700BFC0060010C406001042
:1021F00030B583B000F03EFC114B1B681BB100F002
:102200005BFC03B030BD0F4D2846FEF723FF0E4C9C
:102210002046FEF71FFF0D4B1D600D4B1C60002379
:1022200000930C4B0C4A10210A20FFF74BF8044B8B
:1022300018600028E3D00949FFF772FADFE700BF12
:10224000BC060010DC060010C8060010C406001012
:10225000C0060010C405001014060010442E10081B
:1022600010B588B0FFF7C4FF124B1B68CBB1002438
:102270000594069407AA06A905A800F063FA059B31
:102280000293069B0193022300932346079A0A496F
:102290000A48FFF70DFC0A4B186010B1012008B086
:1022A00010BD4FF0500383F31188BFF36F8FBFF35E
:1022B0004F8FFEE7BC0600104C2E1008C9251008F1
:1022C000B8060010B8B19C4603461848006858B3D9
:1022D00000B585B000910192029305291CDCFFF73F
:1022E000F7FE022810D000231A4669460F480068FE
:1022F000FFF73BF815E04FF0500383F31188BFF36D
:102300006F8FBFF34F8FFEE70023069A6946074899
:102310000068FFF72AF804E0002362466946FFF7E9
:10232000E8F805B05DF804FB00207047BC0600101B
:1023300070B582B01B4B1B681A6862B3DB681E68FD
:10234000DC68251D2846FEF7B7FE236A204698471D
:1023500094F8283013F0040FECD0A36933449E4264
:1023600007D26360246129460E4B1868FEF78BFE86
:10237000E0E7002100910B4632462046FFF7A2FF1E
:102380000028D7D14FF0500383F31188BFF36F8F2C
:10239000BFF34F8FFEE7044A1068024908601360DC
:1023A00002B070BDC4060010C006001038B5054666
:1023B000FFF740FC0446074B1B68834205D8002307
:1023C0002B60044B1C60204638BDFFF7B1FF012392
:1023D0002B60F6E7B406001070B582B006460D46D5
:1023E00017490968C968CC68201DFEF765FE94F896
:1023F00028C01CF0040F08D12CF0010C84F828C070
:10240000236A2046984702B070BDA16933462A4628
:1024100031442046FFF7C4FE0028F1D0002100918E
:102420000B4632462046FFF74DFF0028E8D14FF01B
:10243000500383F31188BFF36F8FBFF34F8FFEE715
:10244000C406001070B582B006460C46FFF7EAFBE2
:1024500001A8FFF7ABFF019B3BBB0546B04228BF7D
:10246000002C19D024B1134A12681268DAB9012479
:102470002246711B104B1868FFF766F9FFF76CFCDA
:10248000A8B94FF0E0234FF08052C3F8042DBFF3FA
:102490004F8FBFF36F8F0AE0FFF75EFC294630468F
:1024A000FFF79AFF03E01C46E2E7FFF755FC02B096
:1024B00070BD00BFC0060010BC06001010B588B08B
:1024C00002E0049B002B0FDA002204A93D4B1868A0
:1024D000FFF776F8002873D0049B002BF1DA0799F8
:1024E0000698059B9847ECE7069C636913B1201D8D
:1024F000FEF7E2FD03A8FFF759FF049B092BE3D881
:10250000DFE803F00505053037500505303794F84E
:10251000283043F0010384F82830059BA169024666
:1025200019442046FFF73CFE0028CDD0236A204600
:10253000984794F8283013F0040FC5D0A269002101
:1025400000910B46059802442046FFF7BBFE002889
:10255000BAD14FF0500383F31188BFF36F8FBFF3ED
:102560004F8FFEE794F8283023F0010384F82830D9
:10257000AAE794F8283043F0010384F8283005993D
:10258000A16131B10346024601442046FFF708FE2F
:102590009AE74FF0500383F31188BFF36F8FBFF3B7
:1025A0004F8FFEE794F8283013F0020F04D023F089
:1025B000010384F8283087E7204600F0B5F983E767
:1025C00008B010BDBC06001000B583B001A8FFF72D
:1025D000D7FD0199FFF736FFFFF770FFF6E708B563
:1025E0004FF0E0231B69FFF773FD012800D108BD00
:1025F00000F0B0FAFBE70000EFF305832BB9064BC0
:10260000186828B901221A6070476FF005007047FA
:102610004FF0FF30704700BFA80D0010EFF30583A7
:1026200073B90A4B1B68012B0DD110B50024084B60
:10263000DC77064B02221A60FFF7A8FA204610BD8D
:102640006FF0050070474FF0FF307047A80D001085
:1026500000ED00E0F0B587B000240594EFF30584A9
:1026600074BB68B322B31568936903B918235C1E61
:10267000372C49D8546814F0010F47D156696EB110
:102680004FEA960C94682CB1D7685B2F02D9176972
:1026900007B1C6B92CB14FF0FF340EE04FF0800CFB
:1026A000F0E7D4688CB9146994B14FF0FF3404E0BA
:1026B0001546002418234FF0800C012C0AD0ACB131
:1026C000059807B0F0BD0124F7E74FF0FF34F4E7B9
:1026D0000024F2E7146992680292019400930B4679
:1026E00062462946FFF7E4F90590E9E705AA019259
:1026F00000930B461FFA8CF22946FFF714FA0128C3
:10270000DED000230593DBE70020DAE70020D8E7DE
:1027100008B5EFF3058333B908B9002008BDFFF70A
:1027200097FB0020FAE76FF00500F7E7034B036023
:10273000034B0B6080231360704700BF4C0D0010EB
:102740004C0B0010034B0360034B0B604FF4807382
:1027500013607047F00A0010F0060010124A12F0E1
:10276000070F1ED0D11D21F00701C1F5705313448E
:102770000A460E480260002141601344083B23F0E2
:1027800007030B48036059601960991A5160136080
:10279000084B1960084B1960084B4FF000421A6053
:1027A00070474FF47053E4E7CC0D0010C40D0010D7
:1027B000C00D0010B80D0010BC0D0010AC0D0010C5
:1027C000164B1A461B688342FBD3516802EB010C7F
:1027D000844509D0416800EB010C634509D00360D2
:1027E000904219D010607047406801445160104613
:1027F000F0E710B40A4C2468A3420BD05B6819447C
:10280000416013681B680360904200D010605DF85F
:10281000044B70470460F7E7704700BFC40D001019
:10282000C00D001038B50446FFF7FCF9384B1B68A3
:10283000B3B1384B1B681C4250D1002C50D004F16E
:10284000080214F0070F02D022F007020832002A13
:1028500055D0314B1B68934253D330490C6804E088
:10286000FFF77CFFE5E721461C466368934202D2EE
:102870002368002BF7D1264B1B68A34243D00D6879
:10288000083523680B6063689B1A102B10D9A018B9
:1028900010F0070F08D04FF0500383F31188BFF3F7
:1028A0006F8FBFF34F8FFEE743606260FFF788FFD3
:1028B000626819490B689B1A0B60194909688B42B9
:1028C00001D217490B60134B1B681343636000234D
:1028D0002360144A13680133136002E0002500E00E
:1028E0000025FFF739FA15F0070F0ED04FF050030F
:1028F00083F31188BFF36F8FBFF34F8FFEE700257F
:10290000EFE70025EDE70025EBE7284638BD00BFDF
:10291000C00D0010AC0D0010BC0D0010C40D001057
:10292000B80D0010B40D0010002834D038B504469E
:10293000A0F1080550F8043C174A1268134208D168
:102940004FF0500383F31188BFF36F8FBFF34F8FA6
:10295000FEE750F8081C41B14FF0500383F3118893
:10296000BFF36F8FBFF34F8FFEE723EA020340F8F8
:10297000043CFFF757F954F8041C084A13680B4449
:1029800013602846FFF71CFF054A136801331360E4
:10299000FFF7E2F938BD7047AC0D0010BC0D001018
:1029A000B00D001082B0002301930D4B1B68B3F1F2
:1029B000FF3F08D04FF0500383F31188BFF36F8FB0
:1029C000BFF34F8FFEE74FF0500383F31188BFF33F
:1029D0006F8FBFF34F8F019B002BFCD002B070476D
:1029E0001000001008480068006880F308884FF065
:1029F000000080F3148862B661B6BFF34F8FBFF357
:102A00006F8F00DF00BF000008ED00E0DFF80C0072
:102A1000016841F4700101607047000088ED00E03A
:102A20004FF0807340F8043C21F0010140F8081C8D
:102A3000054B40F80C3C40F8202C6FF0020340F8A6
:102A4000243C4438704700BFA5291008000000004E
:102A5000074B19680868B0E8F04F80F30988BFF3A6
:102A60006F8F4FF0000080F311887047AFF3008044
:102A7000C00500104FF0500383F31188BFF36F8F30
:102A8000BFF34F8F0B4A136801331360012B00D043
:102A900070474FF0E023D3F8043D13F0FF0FF7D059
:102AA0004FF0500383F31188BFF36F8FBFF34F8F45
:102AB000FEE700BF10000010094B1B6843B94FF040
:102AC000500383F31188BFF36F8FBFF34F8FFEE77F
:102AD000013B034A13600BB983F31188704700BFB1
:102AE00010000010000000000000000000000000C6
:102AF000EFF30980BFF36F8F154B1A681EF0100FAC
:102B000008BF20ED108A20E9F04F10602DE9090080
:102B10004FF0500080F31188BFF34F8FBFF36F8FDA
:102B2000FFF7BCF94FF0000080F3118809BC196869
:102B30000868B0E8F04F1EF0100F08BFB0EC108A24
:102B400080F30988BFF36F8F704700BFAFF3008039
:102B5000C005001008B54FF0500383F31188BFF390
:102B60006F8FBFF34F8FFFF76BF828B14FF0E02363
:102B70004FF08052C3F8042D002383F3118808BD61
:102B80004FF0E022002313619361054B1B68054958
:102B9000A1FB03139B09013B53610723136170479A
:102BA00008000010D34D62104FF0E023D3F8002D41
:102BB0003D4B9A421CD04FF0E023D3F8002D3B4B05
:102BC0009A421ED030B583B0394B1A78D2B20192F6
:102BD000FF221A701B78DBB28DF803309DF80330AA
:102BE00003F05003334A1370334B07221A601BE083
:102BF0004FF0500383F31188BFF36F8FBFF34F8FF4
:102C0000FEE74FF0500383F31188BFF36F8FBFF3DC
:102C10004F8FFEE7284A1368013B13609DF803308D
:102C20005B00DBB28DF803309DF8033013F0800FAA
:102C3000F0D1214B1B68032B08D04FF0500383F3D6
:102C40001188BFF36F8FBFF34F8FFEE71B021A4A45
:102C5000136003F4E0631360019BDBB2144A13704A
:102C60004FF0E024D4F8203D43F47003C4F8203D35
:102C7000D4F8203D43F07043C4F8203DFFF780FFB7
:102C800000250E4B1D60FFF7C1FED4F8343F43F022
:102C90004043C4F8343FFFF7A5FEFFF7FFF8FFF706
:102CA00081FE284603B030BD71C20F4170C20F4192
:102CB00000E400E0D0490010CC49001010000010E2
:102CC000EFF305830F2B0FD9114A9B5CDBB2114A3E
:102CD00012789A4208D94FF0500383F31188BFF35A
:102CE0006F8FBFF34F8FFEE74FF0E023D3F80C3D1B
:102CF00003F4E063084A1268934208D94FF0500386
:102D000083F31188BFF36F8FBFF34F8FFEE77047D8
:102D1000F0E300E0D0490010CC490010DFF834D0D7
:102D2000FEF73CF90C480D490D4A002302E0D45847
:102D3000C4500433C4188C42F9D30A4A0A4C002305
:102D400001E013600432A242FBD300F019F8FDF752
:102D500035FB7047008004100000001014000010C4
:102D60005C2E100814000010D4490010FEE7024445
:102D70000346934200D1704703F8011BF9E70000B6
:102D800070B50D4D0D4C641BA4100026A64209D150
:102D90000B4D0C4C00F026F8641BA4100026A64234
:102DA00005D170BD55F8043B98470136EEE755F85C
:102DB000043B98470136F2E7542E1008542E1008B1
:102DC000542E1008582E10080A44914200F1FF3387
:102DD00000D1704710B511F8014B03F8014F914233
:102DE000F9D110BDF8B500BFF8BC08BC9E467047CD
:0C2DF000F8B500BFF8BC08BC9E46704758
:102DFC0064656661756C745461736B00FC2D10080E
:102E0C0000000000000000000000000000000000B6
:102E1C00000200001800000000000000000000008C
:102E2C000000000001020304010203040607080964
:102E3C0049444C4500000000546D725100000000E4
:082E4C00546D722053766300FF
:042E54000903100856
:042E5800E10210087B
:102E5C0001000000100000000090D0030090D0038F
:042E6C00AAAAAAAABA
:0400000508102D1D95
:00000001FF
